:100000000C9407080C9437210C9410210C942F08A1
:100010000C942F080C942F080C942F080C942F0884
:100020000C942F080C942F080C942F080C942F0874
:100030000C942F080C942F080C942F080C942F0864
:100040000C94C6200C942F080C9484210C945E21EF
:100050000C942F080C942F080C942F080C942F0844
:100060000C942F080C942F08000005800F800A00C4
:100070001B801E0014001180338036003C00398044
:1000800028002D8027802200638066006C00698034
:1000900078007D8077807200500055805F805A0024
:1000A0004B804E0044004180C380C600CC00C98014
:1000B000D800DD80D780D200F000F580FF80FA0004
:1000C000EB80EE00E400E180A000A580AF80AA00F4
:1000D000BB80BE00B400B180938096009C009980E4
:1000E00088008D8087808200838186018C018981D0
:1000F00098019D8197819201B001B581BF81BA01BC
:10010000AB81AE01A401A181E001E581EF81EA01AB
:10011000FB81FE01F401F181D381D601DC01D9819B
:10012000C801CD81C781C201400145814F814A018B
:100130005B815E0154015181738176017C0179817B
:1001400068016D8167816201238126012C0129816B
:1001500038013D8137813201100115811F811A015B
:100160000B810E0104010181038306030C03098343
:1001700018031D8317831203300335833F833A032B
:100180002B832E0324032183600365836F836A031B
:100190007B837E0374037183538356035C0359830B
:1001A00048034D8347834203C003C583CF83CA03FB
:1001B000DB83DE03D403D183F383F603FC03F983EB
:1001C000E803ED83E783E203A383A603AC03A983DB
:1001D000B803BD83B783B203900395839F839A03CB
:1001E0008B838E0384038183800285828F828A02BF
:1001F0009B829E0294029182B382B602BC02B982B3
:10020000A802AD82A782A202E382E602EC02E982A2
:10021000F802FD82F782F202D002D582DF82DA0292
:10022000CB82CE02C402C182438246024C02498282
:1002300058025D8257825202700275827F827A0272
:100240006B826E0264026182200225822F822A0262
:100250003B823E0234023182138216021C02198252
:1002600008020D820782020200000000240027001D
:100270002A0000000000250028002B0000000000DC
:1002800023002600290004040404040404040202D8
:100290000202020203030303030301020408102005
:1002A0004080010204081020010204081020000010
:1002B0000008000201000003040700000000000025
:1002C0000000033A0301000080FFFFFF7F2905BC07
:1002D0003904420301000080FFFFFF7F2905BC397C
:1002E000053B02ACF4FFFF540B00000AD7233C0689
:1002F0004302ACF4FFFF540B00000AD7233C09393A
:10030000042CA7FFFFD45800000000803F0A4104DE
:100310002CA7FFFFD45800000000803FFFFF000023
:100320000000000000000000000000033A0301008C
:100330000080FFFFFF7F2905BC3904420301000054
:1003400080FFFFFF7F2905BC39053B0298F4FFFFC2
:10035000680B00000AD7233C06430298F4FFFF68AD
:100360000B00000AD7233C093904E4C1FFFF1C3EFF
:1003700000000000803F0A4104E4C1FFFF1C3E0072
:10038000000000803FFFFF000000000000000000B0
:1003900000000000033A0301000080FFFFFF7F0B15
:1003A000581B3A04420301000080FFFFFF7F0B58F7
:1003B0001B3A053B0298F4FFFF680B00000AD723A5
:1003C0003C06430298F4FFFF680B00000AD7233C69
:1003D0000939046CEEFFFF941100000000803F0A11
:1003E00041046CEEFFFF941100000000803FFFFF0E
:1003F00000000000000000000000000000033A03BD
:1004000001000080FFFFFF7FECAD3B3A0442030197
:10041000000080FFFFFF7FECAD3B3A053B02F2F4AA
:10042000FFFF0E0B00000AD7233C064302F2F4FF45
:10043000FF0E0B00000AD7233C093904D4E0FFFF6C
:100440002C1F00000000803F0A4104D4E0FFFF2C75
:100450001F00000000803FFFFF00000000000000C0
:10046000000000000000033A0301000080FFFFFFCE
:100470007FECAD3B3A04420301000080FFFFFF7FA9
:10048000ECAD3B3A053B02E8F4FFFF180B00000A15
:10049000D7233C064302E8F4FFFF180B00000AD7FD
:1004A000233C0939048AEEFFFF761100000000802A
:1004B0003F0A41048AEEFFFF761100000000803FF2
:1004C000FFFF00000000000000000000000000032B
:1004D0003A0301000080FFFFFF7F1849333A0442CE
:1004E0000301000080FFFFFF7F1849333A053B02FC
:1004F000D8F5FFFF280A00000AD7233C064302D89C
:10050000F5FFFF280A00000AD7233C0939044BFAFB
:10051000FFFFB50500000000803F0A41044BFAFFD1
:10052000FFB50500000000803FFFFF000000000055
:10053000000000000000000009390401F8FFFFFF7F
:10054000070000F6282C400A410401F8FFFFFF07CE
:100550000000F6282C40FFFF000000000000000013
:10056000000000000009390478FDFFFF8802000048
:10057000F6282C400A410478FDFFFF88020000F6AF
:10058000282C40FFFF0000000000000000000000D9
:1005900000000939044FFDFFFFB10200001F85ABC9
:1005A0003F0A41044FFDFFFFB10200001F85AB3F32
:1005B000FFFF000000000000000000000000000934
:1005C000390457FBFFFFA9040000F6282C400A411C
:1005D0000457FBFFFFA9040000F6282C40FFFF0092
:1005E0000000000000000000000000000939048243
:1005F000FBFFFF7E0400000000803F0A410482FBF5
:10060000FFFF7E0400000000803F053B0201F8FF71
:10061000FFFF070000FA7E6A3E06430201F8FFFF73
:10062000FF070000FA7E6A3EFFFF000000000000A6
:100630000000000000000009390401F8FFFFFF0777
:1006400000003D0A57400A410401F8FFFFFF070080
:10065000003D0A5740FFFF000000000000000000BE
:100660000000000009390457FBFFFFA90400003D0A
:100670000A57400A410457FBFFFFA90400003D0A46
:100680005740FFFF000000000000000000000000D5
:100690000009380400000000FF070000000090403F
:1006A0000A4B0400000000FF0F000000009040FF14
:1006B000FF00000000000000000000000000053DF9
:1006C0000200000000FF070000FA7E6A3F064002B9
:1006D00000000000FF070000FA7E6A3FFFFF0000F5
:1006E0000000000000000000000000FFFF0000000C
:1006F0000000000000000000000007370027F8FF9E
:10070000FFD90700000000803F083E0027F8FFFFE8
:10071000D90700000000803FFFFF0000000000003C
:1007200000000000000000033A0301000080FFFF0A
:10073000FF7F29053C3A04420301000080FFFFFFD0
:100740007F29053C3A053B0298BDFFFF6842000047
:10075000EB91023B06430298BDFFFF68420000EBAD
:1007600091023B093804BCF8FFFF44070000FFE793
:1007700080410A4104BCF8FFFF44070000FFE78006
:1007800041FFFF000000000000000000000000002A
:10079000033A0301000080FFFFFF7F29053C3A0474
:1007A000420301000080FFFFFF7F29053C3A053B23
:1007B0000298BDFFFF68420000EB91023B06430236
:1007C00098BDFFFF68420000EB91023B0938045ED0
:1007D000FCFFFFA2030000FFE780410A41045EFC2A
:1007E000FFFFA2030000FFE78041FFFF00000000C1
:1007F000000000000000000000033A030100008038
:10080000FFFFFF7F0B589B3A04420301000080FF6B
:10081000FFFF7F0B589B3A053B02C4D7FFFF3C28E4
:1008200000009DC1573B064302C4D7FFFF3C280090
:10083000009DC1573B0938048DFAFFFF7305000086
:10084000FFE780400A41048DFAFFFF73050000FFB7
:10085000E78040FFFF0000000000000000000000F3
:100860000000033A0301000080FFFFFF7FECADBBF7
:100870003A04420301000080FFFFFF7FECADBB3A6A
:10088000053B02C0E0FFFF401F00005A55823B06B7
:100890004302C0E0FFFF401F00005A55823B093869
:1008A00004E4FDFFFF1C020000FFE780410A410451
:1008B000E4FDFFFF1C020000FFE78041FFFF000096
:1008C0000000000000000000000000033A030100E7
:1008D0000080FFFFFF7FECADBB3A04420301000044
:1008E00080FFFFFF7FECADBB3A053B02C0E0FFFF9E
:1008F000401F00005A55823B064302C0E0FFFF4004
:100900001F00005A55823B09380498FEFFFF68011A
:100910000000FFE780410A410498FEFFFF680100E4
:1009200000FFE78041FFFF00000000000000000022
:1009300000000000033A0301000080FFFFFF7F6E0C
:1009400049B33A04420301000080FFFFFF7F6E4974
:10095000B33A053B02C0E0FFFF401F00001FFC7ED2
:100960003B064302C0E0FFFF401F00001FFC7E3B30
:100970000938047CFCFFFF84030000FFE780400A85
:1009800041047CFCFFFF84030000FFE78040FFFF81
:1009900000000000000000000000000000033A0317
:1009A0000100F0FFFFFF0F005839B43D044203017E
:1009B000000080FFFFFF7F5839B43D053B0201FC7A
:1009C000FFFFFF030000FA7E6A3E06430201FCFFC0
:1009D000FFFF030000FA7E6A3E0737008BFCFFFF33
:1009E000750300000000803F083E008BFCFFFF7590
:1009F0000300000000803FFFFF0000000000000037
:100A0000000000000000033A0300000000FF0300A4
:100A100000E17A943E04420300000000FF0300005E
:100A2000E17A943E053D0100000000FF070000CD83
:100A3000CCCC3D06400100000000FF070000CDCCFB
:100A4000CC3DFFFF0000000000000000000000009F
:100A500000033A030090FFFF007000005839B43DD6
:100A60000442030090FFFF007000005839B43D05B8
:100A70003D0200000000FF070000D578E93D064078
:100A80000200000000FF070000D578E93DFFFF00ED
:100A9000000000000000000000000000033A030016
:100AA000000000FF030000E17A943E0442030000CE
:100AB0000000FF030000E17A943E053D01000000C4
:100AC00000FF070000CDCCCC3D0640010000000037
:100AD000FF070000CDCCCC3DFFFF00000000000070
:100AE000000000000000000C002C0112000A001899
:100AF000001C0040007100740075006B0068011D4F
:100B000000360140011E00370141015E01B004A61C
:100B100004240442042E04380488040604FC036AF6
:100B20000460041A041004F203E8037E04740456FB
:100B3000044C049C0492040089289408942095088D
:100B40009518A919A910B411B410B511B500C801B0
:100B5000C808D201D208D309D334083E084808D0C7
:100B600007DA07E4071026000239660002417E001A
:100B700002FF000000102600021A3800011B390095
:100B8000011C3A000139660002417E0002569800BD
:100B900002579A0002589C0002FF00000010260035
:100BA0000239660002417E0002FF0000003F7E0025
:100BB00002FF00000010260002142800043966001D
:100BC00002417E0002FF000000142800043F7E0066
:100BD00002FF000000070A00014B4400024E4600DD
:100BE0000138470002FF0000004B4400024E46005F
:100BF0000138470002FF000000FF00000000000075
:100C000002010200040206000104070001060800B8
:100C1000011F090001070A0001090B0001050C0072
:100C20000116140004171800040C1F00010E200008
:100C3000020D2200020F24000210260002142800D8
:100C400004112C000412300004133400041A38007C
:100C5000011B3900011C3A00011D3B0001213F002E
:100C600001220002012401020125020201260302E1
:100C7000011E04020127050201280602012A0C02B6
:100C800002290E02022D1002022C1202022B140263
:100C9000022F1802022E1A02024F220202372402E9
:100CA00002392602023B280204502C020451300271
:100CB000043A3402044D380202483A0201523B021F
:100CC000013E3C0202413E02024340020442440211
:100CD0000453480204544C02045550020245520287
:100CE0000156580202575A0202585C0202595E022B
:100CF00002FF0000000000000201020004020600E2
:100D00000104070001060800011F090001090B008A
:100D100001160D0004171100040C1500010E160039
:100D2000020D180002141A0004461E0002112000D1
:100D30000412240004132800041A2C00011B2D00A7
:100D4000011C2E00011D2F00012130000122320262
:100D5000012433020125340201263502012A4A0208
:100D600002294C02022B5202023A5402043B58025E
:100D700004385C02023C5E020448620201426302E3
:100D80000443670204416D0202556F02024571027D
:100D90000156720202577402025876020259780212
:100DA00002277A03011E7B0301287C0301FF000058
:100DB000000000000202020001040300010604001A
:100DC000011F0500010A0600020B080002080B00C3
:100DD000010C0C00010D0D00010E0E0001150F009D
:100DE000021E110001211200012218000123190026
:100DF00001321B0001311C0001301D00013A1E00B0
:100E0000023D200002462300024225000240270046
:100E1000023F290002442D0001452E0001472F000A
:100E20000148310001283200014A330002FF00006E
:100E30000000000002010200040206000104070095
:100E400001060800011F090001070A0001090B0043
:100E500001050C0001030D00011614000417180011
:100E6000040C1F00010E2000020D2200020F2400BE
:100E700002112C00041230000413340004213F003E
:100E80000122400001234100011E440001274500CA
:100E900001284600012A4C0002294E00022D500074
:100EA000022C5200022B5400022F5800022E5A002E
:100EB000024F620002376400023B680004506C007D
:100EC00004517000043A7400044D780002487A001E
:100ED00001527B00013E7C000243800004428400FA
:100EE0000453880004548C0004559000024592007D
:100EF00001FF0000000000000202020001040300E4
:100F000001060400011F0500010A0600020B08008B
:100F1000020C0B00010D0C00010E0D0001150E005E
:100F2000021E1000012011000121120001181400FE
:100F300002191600012218000123190001321A00BB
:100F400001311B0001301C00013A1E00023D20004F
:100F5000024622000242240002402600023F2800EE
:100F600002442A0001452B0001472C0001482E00B5
:100F700001492F00014A3000024D3200023C490075
:100F800001FF000000000000020202000104030053
:100F900001060400011F0500010A0600020B0800FB
:100FA000020C0B00010D0C00010E0D0001150E00CE
:100FB000021E100001201100012112000122180060
:100FC0000123190001331A0001341B0001351C00F4
:100FD00001361D00013A1E00023D2000024622009B
:100FE0000242240002402600023F280002442A0058
:100FF00001452B0001472C0001482E0001492F001C
:10100000014A300002FF00000000B6219130112497
:101010001FBECFEFD8E0DEBFCDBF26E0A8E5B1E030
:1010200001C01D92AC35B207E1F711E0A0E0B1E0DC
:10103000E8E1FCE602C005900D92A835B107D9F7AA
:1010400018E0C6E0D8E004C02197FE010E945132AA
:10105000C530D107C9F70E94F7230C94FF350C94D3
:101060000000809186048E3008F08E508770806476
:1010700080937C0080917A00806480937A008091D4
:101080007A0086FDFCCF8091780060917900762F00
:10109000682F072E000C880B990B0E94B1302AE9AB
:1010A00039E94CEC52E40E94E33228E33AE246E6A6
:1010B0005DE30E9410310E94C233CB010895CF92AC
:1010C000DF92EF92FF920F931F93CF93DF932091C4
:1010D0003905222309F401C120912E05223009F09F
:1010E000D2C02091350530913605E0913105F0915F
:1010F0003205A0913305B091340540912F05453557
:1011000009F073C0A901455F5F4F460F571FA41731
:10111000B50768F46AE070E080E090E0DF91CF917D
:101120001F910F91FF90EF90DF90CF9008958F0166
:10113000075F1F4FDC01680F791FA617B70741F43F
:10114000309336052093350560E070E0CB01E6CFA3
:10115000C90101964D916801C20ED31EE601488374
:101160008330910508F17601D2E0ED1AF108E7012C
:1011700058815F3F61F4219658815F3F41F44D3FB4
:1011800031F4800F911FEC014883C9010296409110
:101190003305509134059C01255F3F4F421753079B
:1011A00008F4B8CF9C01C9CF8230910561F4208545
:1011B0002F3F69F721852F3F51F74D3F41F7438777
:1011C00083E090E0E4CF8130910561F427812F3FE7
:1011D000F1F620852F3FD9F64D3FC9F6428782E0D0
:1011E00090E0D5CF90E080E0D2CFA901465F5F4F7D
:1011F000460F571FA417B50708F48CCF8F01085F5F
:101200001F4FDC01680F791FA617B70709F498CFA5
:10121000C90101964D916801C20ED31EE6014883B3
:101220008330910508F17601D2E0ED1AF108E7016B
:1012300058815F3F61F4219658815F3F41F44D3FF3
:1012400031F4800F911FEC014883C901029640914F
:101250003305509134059C01265F3F4F42175307D9
:1012600008F458CF9C01D0CF8230910581F72781B7
:101270002F3F69F720852F3F51F74D3F41F74287B8
:1012800083E090E0E4CF213069F5A0913505B0917D
:1012900036059B012A0F3B1FA9014A5F5F4FE09172
:1012A0003305F0913405E417F50708F433CF2E3FEA
:1012B000310508F02FCFFC01CD010596A091310535
:1012C000B0913205A80FB91F6E0F7F1F6E177F07F1
:1012D00009F436CF81918D93F9CF62E170E080E01F
:1012E00090E01CCF61E170E080E090E017CF282F04
:1012F00030E090915706E92FF0E0EB5DFA4F84A9BA
:101300008617170659F047EE5AE090E0FA01A591CA
:10131000B4916A177B07B9F4909357062B5D3A4F47
:10132000F90194AB81E09F3F69F480E042E450E032
:1013300060E070E040935305509354056093550569
:101340007093560508959F5F4E5F5F4F9F33F1F690
:101350009FEFE4CF0895833081F028F4813099F035
:101360008230A9F008958730A9F08830C9F0843020
:10137000B1F4809180008F7D03C0809180008F77D1
:1013800080938000089584B58F7784BD089584B5D7
:101390008F7DFBCF8091B0008F778093B000089550
:1013A0008091B0008F7DF9CFCF93DF93282F30E06D
:1013B000F901E255FD4F8491F901E656FD4FD491B4
:1013C000F901EA57FD4FC491CC23A1F081110E948D
:1013D000AB09EC2FF0E0EE0FFF1FE458FD4FA59195
:1013E000B491EC91ED2381E090E009F480E0DF918D
:1013F000CF91089580E090E0FACF1F93CF93DF93D1
:10140000282F30E0F901E255FD4F8491F901E656AD
:10141000FD4FD491F901EA57FD4FC491CC23A9F0B7
:10142000162F81110E94AB09EC2FF0E0EE0FFF1F89
:10143000EE58FD4FA591B4918FB7F894EC9111112E
:1014400008C0D095DE23DC938FBFDF91CF911F9131
:101450000895DE2BF8CFCF93DF93D82F60E084E0A0
:101460000E94FD0987E090E00197F1F71EBC0000A3
:101470000DB407FEFDCFCEB587E090E00197F1F700
:101480006D2F84E00E94FD098C2FDF91CF9108958C
:101490000F931F93CF93DF93CDB7DEB760970FB64F
:1014A000F894DEBF0FBECDBF80E00E942B0A082F4C
:1014B00010E0102F002787E090E00197F1F781E01E
:1014C0000E942B0A082BFE01319690E080E0A801D3
:1014D000082E02C0569547950A94E2F74170419351
:1014E00001968031910599F79E858C8598278A858C
:1014F0009827888598278E8198278C81982781E066
:101500004A81941380E0988998131FC09D858B852C
:101510009827898598278F8198278D8198278B8197
:10152000982781E04981941380E09F8598130DC02E
:10153000C8019F7360960FB6F894DEBF0FBECDBF93
:10154000DF91CF911F910F9108958FEF9FEFF2CF11
:10155000CF930E94480A9093720180937101809109
:101560007101909172018F3F9807D1F5C230A9F1B6
:101570000E94480A9093720180937101C2E0EFCFFC
:101580009C012B5F31092D3B4AE03407D0F0225BF0
:101590003C402B3A4DE03407B8F0205A3F402B3AFC
:1015A0004DE03407A0F0205A3F402B3D354090F0ED
:1015B0008D5B94438F3C974080F486E090E0CF9120
:1015C000089582E090E0FBCF83E090E0F8CF84E0E4
:1015D00090E0F5CF85E090E0F2CF90E080E0EFCFB3
:1015E0009C01285C3109293B3D4350F281E090E0A9
:1015F000E6CF61E0809150040C94FD0960E0809199
:1016000050040C94FD09CF93DF9390E0FC01E65663
:10161000FD4F24918A579D4FFC0184918823C9F086
:1016200090E0880F991FFC01E859FD4FA591B491F6
:10163000FC01EE58FD4FC591D49161110DC09FB7CB
:10164000F8948C91209582238C9388812823288379
:101650009FBFDF91CF910895623051F49FB7F89406
:101660003C91822F809583238C93E8812E2BEFCFA2
:101670008FB7F894EC912E2B2C938FBFEACF3FB706
:10168000F89480916D0190916E01A0916F01B091DD
:10169000700126B5A89B05C02F3F19F00196A11D2A
:1016A000B11D3FBFBA2FA92F982F8827BC01CD01AC
:1016B000620F711D811D911D42E0660F771F881F0B
:1016C000991F4A95D1F708958F929F92AF92BF923A
:1016D000CF92DF92EF92FF924B015C010E943F0B91
:1016E0006B017C010E943F0B6C197D098E099F09DB
:1016F000683E734081059105A8F321E0821A9108A4
:10170000A108B10888EEC80E83E0D81EE11CF11CC8
:1017100081149104A104B10429F7FF90EF90DF90A8
:10172000CF90BF90AF909F908F9008952FB7F8946F
:101730006091690170916A0180916B0190916C01D7
:101740002FBF08950895AF92BF92CF92DF92EF928C
:10175000FF920F931F93CF93DF936C017B018B015B
:10176000040F151FEB015E01AE18BF08C017D107AB
:1017700059F06991D601ED91FC910190F081E02D35
:10178000C6010995892B79F7C501DF91CF911F918A
:101790000F91FF90EF90DF90CF90BF90AF900895A2
:1017A000FC01538D448D252F30E0842F90E0821B67
:1017B000930B541710F0CF96089501970895FC01EC
:1017C000918D828D981761F0A28DAE0FBF2FB11D44
:1017D0005D968C91928D9F5F9F73928F90E008959C
:1017E0008FEF9FEF0895FC01918D828D981731F056
:1017F000828DE80FF11D858D90E008958FEF9FEFAA
:101800000895FC01918D228D892F90E0805C9F4F7F
:10181000821B91098F739927089588E894E00E94AC
:10182000010C21E0892B09F420E0822F089580E04B
:1018300090E0892B29F00E940D0C81110C9400007E
:101840000895FC01A48DA80FB92FB11DA35ABF4F55
:101850002C91848D90E001968F739927848FA689AF
:10186000B7892C93A089B1898C91837080648C9303
:10187000938D848D981306C00288F389E02D8081B2
:101880008F7D80830895EF92FF920F931F93CF93E4
:10189000DF93EC0181E0888F9B8D8C8D98131AC0AB
:1018A000E889F989808185FF15C09FB7F894EE8992
:1018B000FF896083E889F9898081837080648083EF
:1018C0009FBF81E090E0DF91CF911F910F91FF903A
:1018D000EF900895F62E0B8D10E00F5F1F4F0F73E2
:1018E0001127E02E8C8D8E110CC00FB607FCFACF9D
:1018F000E889F989808185FFF5CFCE010E94210C0E
:10190000F1CFEB8DEC0FFD2FF11DE35AFF4FF0826D
:101910009FB7F8940B8FEA89FB8980818062CFCFD3
:10192000CF93DF93EC01888D8823B9F0AA89BB8916
:10193000E889F9898C9185FD03C0808186FD0DC001
:101940000FB607FCF7CF8C9185FFF2CF808185FF22
:10195000EDCFCE010E94210CE9CFDF91CF91089508
:10196000FC0120812EBD9B012150310941F05181A4
:101970000DB407FEFDCF4EB55EBD4193F5CF61506E
:101980007109860F971F0DB407FEFDCF2EB5FC0120
:1019900020830895CF93DF9300D01F92CDB7DEB799
:1019A000906299838A836B830E94FE0A63E070E0F1
:1019B000CE0101960E94B00C0E94F90A0F900F9080
:1019C0000F90DF91CF910895CF93DF9300D01F92B6
:1019D000CDB7DEB71B82906399838A830E94FE0A8B
:1019E00063E070E0CE0101960E94B00C0E94F90AFB
:1019F0008B810F900F900F90DF91CF910895CF932F
:101A0000DF93EC014E815F8188E4849F9001859F84
:101A1000300D1124E881F981E20FF31FDB01019001
:101A20000D928A95E1F78E859F85A889B9890197DE
:101A3000A109B1098E879F87A88BB98B8E819F8161
:101A4000A885B9850196A11DB11D8E839F83A887A6
:101A5000B9874A815B816C817D8184179507A607D0
:101A6000B70721F41E821F8218861986DF91CF9155
:101A70000895CF93DF93EC014A855B8588E4849FCA
:101A80009001859F300D1124A881B981A20FB31F49
:101A9000FB0101900D928A95E1F78A859B85AC85C3
:101AA000BD850196A11DB11D8A879B87AC87BD8727
:101AB0004A815B816C817D8184179507A607B707F2
:101AC00021F41A861B861C861D868E859F85A88913
:101AD000B9890196A11DB11D8E879F87A88BB98BEF
:101AE0004A895B896C897D89481759076A077B0792
:101AF00020F48A8B9B8BAC8BBD8BDF91CF910895AB
:101B0000883111F158F4803171F18431C1F08C3099
:101B100081F469E070E080E090E008958033C9F0DE
:101B20008034E1F0803229F46DE070E080E090E0F4
:101B300008958F70682F70E090E080E008956BE06A
:101B400070E080E090E008956CE070E080E090E06C
:101B500008956EE070E080E090E008956FE070E03E
:101B600080E090E008956AE070E080E090E0089501
:101B7000FC01E60FF11D20813181628170E090E06F
:101B800080E0CB0177276627732B622B2381922B72
:101B90000895CF93DF9300D000D000D0CDB7DEB74B
:101BA0001B821C821D821E82906399838A830E94FD
:101BB000FE0A66E070E0CE0101960E94B00C0E9421
:101BC000F90A62E0CE0101960E94B80D26960FB682
:101BD000F894DEBF0FBECDBFDF91CF910895FA011B
:101BE000E20FF11D608371838283938308952F92A6
:101BF0003F924F925F926F927F928F929F92AF929D
:101C0000BF92CF92DF92EF92FF920F931F93CF93E9
:101C1000DF93CDB7DEB7CC54D1090FB6F894DEBF51
:101C20000FBECDBF8C0180E790E00E94C90D9B01E3
:101C30003C5F2D963FAF2EAF2D97D8018D909D9094
:101C4000AD90BC90139714967C907720E1F0D5016D
:101C5000C40122E1B695A795979587952A95D1F766
:101C60009770AA27BB273BE0880C991CAA1CBB1CB9
:101C70003A95D1F78824E8EF9E22EFE1BE22882A28
:101C8000992AAA2ABB2AD80117962C90822D0E9445
:101C9000800D6B017C01772011F06894C4F8F80185
:101CA0008581823009F457C0833009F450C0811116
:101CB00002C06894C5F8312C23E0220E311C359403
:101CC0002794359427942101032C000C660877088B
:101CD000FE01339688E4DF011D928A95E9F72D967F
:101CE0006EAD7FAD2D977F70706279836A8322E03D
:101CF000AE014F5F5F4FC501B4010E94EF0D26E0BA
:101D0000AE014F5F5F4FC701B6010E94EF0D780132
:101D1000B8E0EB0EF11C1AE0812C912C54018414D4
:101D20009504A604B704E8F4F701619171918191DB
:101D300091917F01212FAE014F5F5F4F0E94EF0D08
:101D4000FFEF8F1A9F0AAF0ABF0A1C5FE8CF80918E
:101D50005404811103C06894C7F8ADCFF0ECCF2ACA
:101D6000AACF0E94FE0AB101660F771F660F771F88
:101D7000665F7F4FCE0101960E94B00C0E94F90A67
:101D800063E089E690E00E94CA0CC45BDF4F0FB6A7
:101D9000F894DEBF0FBECDBFDF91CF911F910F91A1
:101DA000FF90EF90DF90CF90BF90AF909F908F907B
:101DB0007F906F905F904F903F902F90089580910B
:101DC0005B01882361F09FB7F89420915B018091BB
:101DD0005901213019F48DBB9FBF08958FBF08951D
:101DE00020915B01222381F03FB7F89420915B01A1
:101DF000213069F42DB3209359014DB320915A013C
:101E0000209524232DBB3FBF8CBD9DBD08953093ED
:101E10005901FACF0F931F93CF938C0180914C04FB
:101E200090914D040E94F00EF89480916804909176
:101E30006904A0916A04B0916B04C1E00097A10508
:101E4000B10509F4C0E0892B8A2B8B2B29F0B8014E
:101E50008AE594E00E94FF0C78940E94DF0E8C2F9C
:101E6000CF911F910F9108952F923F924F925F92C1
:101E70006F927F928F929F92BF92CF92DF92EF925A
:101E8000FF920F931F93CF93DF93CDB7DEB7CE545E
:101E9000D1090FB6F894DEBF0FBECDBFFC0197810C
:101EA0008581823020F4993090F0B12C28C099308F
:101EB00070F09C3061F0892F8B7F803141F0983138
:101EC00031F0892F8F7E803211F0903471F78F01BD
:101ED00080914C0490914D040E94F00EF894D8012A
:101EE00016968C911697811163C017969C918091DC
:101EF00055048917F0F4B12C78940E94DF0E8B2DD5
:101F0000C25BDF4F0FB6F894DEBF0FBECDBFDF91CF
:101F1000CF911F910F91FF90EF90DF90CF90BF90E6
:101F20009F908F907F906F905F904F903F902F90F9
:101F3000089580915304882349F18091720490910F
:101F40007304A0917404B091750440917E04509183
:101F50007F046091800470918104481759076A07D3
:101F60007B0740F4B80180E794E00E94390DBB2460
:101F7000B394C2CF0196A11DB11D809382049093AA
:101F80008304A0938404B0938504B5CFC8010E9454
:101F9000F70D8CE690E00E94E40C80FDE8CF61E94B
:101FA00088E690E00E94CA0C81E080935304DFCF62
:101FB0008F3FE9F6F801978180915604891708F45C
:101FC0009ACFB0905204BB2009F495CF84E590E0FD
:101FD0000E94E40C84FFA0C06FEE84E590E00E94B4
:101FE000CA0C88E590E00E94C90D1B01FCEF3F1A66
:101FF000D8014D905D906D907C90139714969C90B5
:102000009920E1F0D301C20132E1B695A7959795E9
:1020100087953A95D1F79770AA27BB274BE0440CD8
:10202000551C661C771C4A95D1F74424E8EF5E22C4
:10203000EFE17E22482A592A6A2A7B2AD80117967C
:102040008C90882D0E94800D6B017C01992011F0ED
:102050006894C4F8F8018581823009F464C0833043
:1020600009F45DC0811102C06894C5F8912C23E089
:10207000820E911C9594879495948794C401092CA1
:10208000000CAA0BBB0B2F968CAF9DAFAEAFBFAFB2
:102090002F97FE01339688E4DF011D928A95E9F7B8
:1020A000BFE03B22689435F839822A8222E0AE01F3
:1020B0004F5F5F4FC301B2010E94EF0D26E0AE01FA
:1020C0004F5F5F4FC701B6010E94EF0D085F1F4FC2
:1020D0002AE0F22E412C512C32012F968CAD9DAD71
:1020E000AEADBFAD2F97481659066A067B0608F5B8
:1020F000D8016D917D918D919D918D012F2DAE0116
:102100004F5F5F4F0E94EF0DBFEF4B1A5B0A6B0AE8
:102110007B0AE4E0FE0EE1CF80FFEDCE62CF80913E
:102120005404811103C06894C7F8A0CFF0ECCF2A03
:102130009DCF0E94FE0AB401660F771F660F771FBE
:10214000665F7F4FCE0101960E94B00C0E94F90A93
:1021500063E081E590E00E94CA0CCECECF93DF937E
:10216000EC0180914C0490914D040E94F00EF89483
:10217000CE010E94E40CC82F78940E94DF0E8C2FB1
:10218000DF91CF9108951F93CF93DF93EC01162F2A
:1021900080914C0490914D040E94F00EF894612FB0
:1021A000CE010E94CA0C7894DF91CF911F910C94BC
:1021B000DF0ECF92DF92EF92FF920F931F93CF9398
:1021C000DF9300D000D000D0CDB7DEB78C016A011C
:1021D0007B0180914C0490914D040E94F00EF89484
:1021E0001B821C821D821E82106219830A8322E0D8
:1021F000AE014F5F5F4FC701B6010E94EF0D0E9415
:10220000FE0A66E070E0CE0101960E94B00C0E94CA
:10221000F90A78940E94DF0E26960FB6F894DEBF76
:102220000FBECDBFDF91CF911F910F91FF90EF9027
:10223000DF90CF900895CF93CFB7F8948091580155
:10224000811127C0E0E9F2E08491E4EAF2E09491A0
:10225000E82FF0E0EE0FFF1FE859FD4FA591B49174
:10226000EC91E92321F461E08AE00E94FD0961E03C
:102270008AE00E94030B8CB580618CBD8CB58064B4
:102280008CBD61E08DE00E94030B61E08BE00E9459
:10229000030B809158018F5F80935801CFBFCF917E
:1022A0000895DC014C911196EC911197F0E0E6272E
:1022B000EE0FFF1FE859FF4F8591949120E0342FD6
:1022C000282739272D933C9308952F923F924F92C0
:1022D0005F926F927F928F929F92AF92BF92CF92B6
:1022E000DF92EF92FF920F931F93CF93DF93E091D2
:1022F0002505F0912605309709F472C06115710526
:1023000019F0009709F46CC0E281EE2309F489C04A
:10231000F09127056115710519F0009709F415C3AF
:10232000EFEFEF0FE23040F081E1C82ED12CE12C2D
:10233000F12C90E080E096C249015A01F0933F05EC
:10234000909343058093420570934505609344053F
:1023500081E0809352050E94960B2B013C0113E013
:10236000212E04E0302E01E0C2E0D0E0809125056E
:1023700090912605DC01ED91FC910480F581E02D22
:102380000995181619060CF090C0809125059091BA
:102390002605DC01ED91FC910680F781E02D099581
:1023A000BC0180915205882309F402C3162F809145
:1023B0003F05823009F01CC2E0915105EA3008F077
:1023C00025C2F0E0EA51FE4E0C945132161267120B
:1023D0007B1290129D12BC12F3120113D313DC1363
:1023E00086E090E0A0E0B0E0809353059093540520
:1023F000A0935505B093560590E080E0DF91CF9112
:102400001F910F91FF90EF90DF90CF90BF90AF9012
:102410009F908F907F906F905F904F903F902F9004
:1024200008958BE090E0A0E0B0E0DECF80913D0524
:10243000833010F010923D05E0913D0581E08E0F54
:1024400080933D05F0E0EB5DFA4F658B833069F5D5
:1024500090913B0580913C0520913A052F3FF1F486
:102460009F3FE1F48D3FD1F410924705109246054D
:1024700010924B0510924A056FEF8AE495E00E9496
:1024800051116FEF8AE495E00E9451116DEF8AE4DB
:1024900095E00E9451110093510507C090933A05B1
:1024A00080933B05B2E0B0933D050E94960B641902
:1024B000750986099709681579058A059B0508F449
:1024C00055CF23E0C22ED12CE12CF12C32CF6D3F21
:1024D00051F0609350058AE495E00E945111E2E0CA
:1024E000E0935105E2CF10925105DCE0CD2ED12CC6
:1024F000E12CF12C1ECF6D3F10F06E3F49F460933C
:102500003E058AE495E00E94511120925105CDCFFD
:1025100010925105C4E0CC2ED12CE12CF12C09CF26
:10252000CB01992790934905809348058AE495E06B
:102530000E94511130925105B8CF362F2227809139
:10254000480590914905822B932B909349058093E0
:1025500048058AE495E00E945111809148059091C8
:102560004905039708F01CC210925105A7E0CA2E36
:10257000D12CE12CF12CDDCE609340058AE495E06E
:102580000E94511110924705109246051092410584
:1025900080914805909149051535C1F48430910525
:1025A00018F320914405309145052C5F3F4F2817C3
:1025B000390740F410925105FAE0CF2ED12CE12CCE
:1025C000F12CB7CE86E0809351056FCF2091440562
:1025D000309145052D5F3F4F2817390758F3039772
:1025E00071F488E0F0CF609341058AE495E00E94A1
:1025F00051118091480590914905049791F387E026
:10260000E2CF8091420590914305C12CD12C7601F7
:10261000C394009739F410925105E6E0CE2ED12CE8
:10262000E12CF12C2091460530914705A9014F5F1F
:102630005F4F5093470540934605820F931FDC017F
:102640006C938AE495E00E945111209140056091BD
:1026500048057091490580914605909147052535BB
:1026600009F05AC084309105E0F140914205509143
:1026700043059A01280F391FF9013497E081EF3F94
:1026800009F047C0F9013397E081EF3F09F041C0FD
:1026900022503109F90120812D3FD9F50197480FCA
:1026A000591FDA012C912D3FA1F590934705809396
:1026B000460581E090E020914605309147052C5F6A
:1026C0003F4F820F931F8617970719F488E0809376
:1026D0005105B1E0CB16D104E104F10409F4E5CED3
:1026E00028CE0397B1F4809141058F3F91F4E0919A
:1026F0004205F091430580818F3F59F481818D3FE0
:1027000041F482818D3F29F4D0934705C09346055B
:10271000D0CF90E080E0CFCF8430910558F1409148
:102720004205509143059A01280F391FF90134974A
:10273000E081EF3FA9F5F9013397E081EF3F81F5A3
:1027400022503109F90120812D3F51F50197480FA1
:10275000591FDA012C912D3F19F59093470580936D
:10276000460581E090E020914605309147052D5FB8
:102770003F4FA7CF0397A1F42F3F91F4E09142057B
:10278000F091430580818F3F59F481818D3F41F461
:1027900082818D3F29F4D0934705C0934605E1CF50
:1027A00090E080E0E0CF772770934D0560934C0573
:1027B000B9E0B093510579CE762F662720914C056C
:1027C00030914D05622B732B70934D0560934C0532
:1027D00080914A0590914B054EE0C42ED12CE12CFE
:1027E000F12C6817790751F5C12CD12C760126C040
:1027F000813009F099CD80915105823009F46FC084
:1028000040F48823C1F1813009F45EC01092510573
:102810004CCE843009F49FC008F479C08530B1F7FC
:1028200080914E05809580934E0560934F053DE065
:10283000C32ED12CE12CF12C6817B1F21092510566
:10284000C114D104E104F10409F043CF80912705BC
:10285000823009F0A9C080914005853509F025CE68
:102860008AE395E0C0925305D0925405E092550555
:10287000F0925605C3CD80913D05823010F0109244
:102880003D05E0913D0581E08E0F80933D05F0E030
:10289000EB5DFA4F658B823009F007CE80913B05E6
:1028A00090913A059F3F49F48F3F39F410924705C4
:1028B0001092460510924E05EECD80933A05109287
:1028C0003B0500933D05F1CD6F3F09F49FCF609329
:1028D0003E0580914E05680F60934E0500CE9B012A
:1028E00033278091440590914505029682179307FE
:1028F00008F460CE623008F437CE30934905209357
:10290000480580914E05680F60934E05FECD60939B
:1029100040056093410580914E05680F60934E0518
:1029200010924705109246058091480590914905FF
:102930000297B1F130925105809142059091430583
:10294000892B09F0B2CD1092510596E0C92ED12CF9
:10295000E12CF12CEECC8091420590914305209121
:10296000460530914705A9014F5F5F4F50934705DA
:1029700040934605820F931FDC016C9380914E05B6
:10298000680F60934E058091480590914905029724
:1029900020914605309147052817390709F085CD64
:1029A000F5E0F093510581CD813009F07ECD58CF0F
:1029B00082E1C82ED12CE12CF12CBBCCCF92DF923E
:1029C000EF92FF920F931F93CF93DF9300D0CDB779
:1029D000DEB780913905882309F4C8C0E09131053C
:1029E000F091320566E070E080E090E0309709F405
:1029F00059C080912E05823009F075C01A82198263
:102A0000209133053091340580913505909136053C
:102A100040912F05453539F4AC01455F5F4F2417D0
:102A2000350708F4ADC00A962817390708F4A8C07E
:102A30008FEF808381838DEF8283138280912D05B8
:102A4000848390912F05809135059535B1F58C5F84
:102A50008583809135059091360504969683809103
:102A60002F05878380913005808709E010E08091F1
:102A7000350590913605080F191F7F016F01C00EB3
:102A8000D11ECE14DF0439F58981F60180838A8155
:102A900081830E5F1F4F109338050093370560E068
:102AA00070E0CB010F900F90DF91CF911F910F91AC
:102AB000FF90EF90DF90CF9008958D5F8583809198
:102AC0003505909136050396968380912F0587836F
:102AD00008E010E0CCCFF70161917F01CE010196B3
:102AE0000E945111CECF813009F045C0809135054B
:102AF000909136059C012A5F3F4F409133055091DC
:102B0000340542175307E0F18E3F9105C8F58FEF6A
:102B10008083818380912D058283809135058E5F2E
:102B2000838380912F05853511F48091300584834E
:102B30002091350530913605A9014B5F5F4FDF01CC
:102B4000129680E0BD016E1B7F0B6417750758F06D
:102B5000E40FF51F809580832A5F3F4F309338053F
:102B6000209337059CCF9D91890FECCF62E170E0F7
:102B700080E090E097CF61E170E080E090E092CF5C
:102B80006AE070E080E090E08DCFCF92DF92EF922C
:102B9000FF92E0912B05F0912C05A0912905B091B1
:102BA0002A0590912705109709F46DC0923049F4D9
:102BB000EB30F10560F483E1C82ED12CE12CF12C2F
:102BC00054C0913009F065C0E630F105A0F3809360
:102BD0002D0590932E0560932F0510923005B0932C
:102BE0003205A0933105F0933405E093330510923C
:102BF000360510923505109238051092370581E0A0
:102C000080933905B901CA010E945F086B017C01FC
:102C1000C114D104E104F10441F50E94DE146B01FA
:102C20007C01C114D104E104F104F9F4809125057B
:102C300090912605409137055091380560913105F6
:102C400070913205DC01ED91FC910284F385E02D59
:102C50000995209137053091380582179307F9F0CF
:102C600034E1C32ED12CE12CF12C80E0C09253052D
:102C7000D0925405E0925505F0925605FF90EF90E2
:102C8000DF90CF90089526E0C22ED12CE12CF12CBC
:102C9000ECCF91E1C92ED12CE12CF12CE6CF81E0D3
:102CA000E5CFCF93DF9300D000D000D0CDB7DEB713
:102CB0002FEF3FEF3E832D838E3F31F1909127051B
:102CC000923079F519821A829B831C8224E0E0916C
:102CD0002505F0912605309761F19281992371F1D4
:102CE00030E0AE014F5F5F4F62E00E94C515811179
:102CF0002AC08D819E8126960FB6F894DEBF0FBE46
:102D0000CDBFDF91CF91089585E090E0A0E0B0E0E5
:102D10008093530590935405A0935505B0935605A1
:102D2000E8CF20E0913099F6198292E09A8322E070
:102D3000CECF86E090E0A0E0B0E0EACF8BE090E07C
:102D4000A0E0B0E0E5CF24E130E040E050E062E018
:102D500070E0CE0105960E946511CBCFCF93DF9333
:102D6000EC018B819C81DC01ED91FC910680F78167
:102D7000E02D099560E08D810E94FD098D810E9402
:102D8000D409892BD9F7DF91CF910895FC01678190
:102D90007085818592850895EF92FF920F931F931E
:102DA000CF93DF93EC018B017A018D819E818F3F60
:102DB000980741F061E00E94FD098D810E94D409CD
:102DC0000197D9F78B819C81DC01ED91FC91028008
:102DD000F381E02DA701B80109958C018D819E81B9
:102DE000019619F0CE010E94AE16C801DF91CF9175
:102DF0001F910F91FF90EF9008950F931F93CF9322
:102E0000DF93EC01162F8D819E818F3F980741F053
:102E100061E00E94FD098D810E94D4090197D9F7D4
:102E20008B819C81DC01ED91FC910190F081E02D82
:102E3000612F09958C018D819E81019619F0CE013B
:102E40000E94AE16C801DF91CF911F910F91089596
:102E5000DC0113968D919C91DC01ED91FC91028433
:102E6000F385E02D0994DC0113968D919C91DC0192
:102E7000ED91FC910084F185E02D09940F931F934F
:102E8000CF93DF938C01FC01C381D481E881F98168
:102E90000680F781E02DCE010995EA89FB898081C2
:102EA0008F7E8083EA89FB898081877F8083EA899E
:102EB000FB8980818F778083EA89FB8980818F7D80
:102EC00080838A8D898FF8011282DF91CF911F91C3
:102ED0000F910895CF92DF92EF92FF920F931F937D
:102EE000CF93DF938C016A017B01FC01C782D086FE
:102EF000E186F286C381D481E889F98982E0808302
:102F0000C114F1EEDF06E104F104A1F060E079E024
:102F10008DE390E0A70196010E942F3221503109E4
:102F2000410951095695479537952795211580E117
:102F3000380798F0E889F989108260E874E88EE132
:102F400090E0A70196010E942F32215031094109DA
:102F500051095695479537952795EC85FD85308322
:102F6000EE85FF852083188EEC89FD8986E08083BD
:102F7000EA89FB89808180618083EA89FB8980817D
:102F800088608083EA89FB89808180688083EA8900
:102F9000FB8980818F7D8083F801858196818F3FB9
:102FA000980771F061E00E94030B60E0F8018581F1
:102FB0000E94FD09F80185810E94D409892BD1F76F
:102FC00081E0F8018283DF91CF911F910F91FF90F3
:102FD000EF90DF90CF900895DC0117964D915D91B1
:102FE0006D917C911A97ED91FC910484F585E02D0B
:102FF0000994CF93DF93CDB7DEB7C854D1090FB68C
:10300000F894DEBF0FBECDBF8AE58093090488E443
:10301000E1E0F4E0DE01119601900D928A95E1F76E
:10302000CE0101960E94340FC85BDF4F0FB6F894B3
:10303000DEBF0FBECDBFDF91CF910895CF93DF9359
:10304000CDB7DEB7C854D1090FB6F894DEBF0FBEB6
:10305000CDBF80EF8093090488E4E1E0F4E0DE0175
:10306000119601900D928A95E1F7CE0101960E948A
:10307000340FC85BDF4F0FB6F894DEBF0FBECDBF75
:10308000DF91CF910895CF93DF93CDB7DEB7C854CA
:10309000D1090FB6F894DEBF0FBECDBF8FE080938D
:1030A000090488E4E1E0F4E0DE01119601900D925C
:1030B0008A95E1F7CE0101960E94340FC85BDF4F7D
:1030C0000FB6F894DEBF0FBECDBFDF91CF9108954C
:1030D000FC011082118212821382148283E08583A4
:1030E00016821782DF011896E85BFF4F1D92AE171C
:1030F000BF07E1F70895CF93DF93CDB7DEB7C8548C
:10310000D1090FB6F894DEBF0FBECDBFCE01019638
:103110000E94681880917E0490917F04A0918004A1
:10312000B0918104892B8A2B8B2BA9F0BE016F5F94
:103130007F4F80E794E00E94FF0CCE0101960E9431
:10314000F70DC85BDF4F0FB6F894DEBF0FBECDBFE3
:10315000DF91CF91089560E988E690E00E94CA0C63
:1031600010925304EECF2F923F924F925F926F9244
:103170007F928F929F92AF92BF92CF92DF92EF9207
:10318000FF920F931F93CF93DF93CDB7DEB7C5594F
:10319000D1090FB6F894DEBF0FBECDBFCE010396A6
:1031A000CD56DF4F99838883C359D04080914C041A
:1031B00090914D040E94F00E1C821B8290E3998333
:1031C000ECE1EA830E94FE0A64E070E0CE01019621
:1031D0000E94B00C0E94F90A6B807C8010E061FEB6
:1031E000EFC084E690E00E94C90D6B01CE01855BC3
:1031F0009F4F0E946818CD56DF4FE881F981C3596F
:10320000D04088E411928A95E9F79CEFD91AEFE053
:10321000DE22F0E3DF2AD982CA820E94FE0A6AE433
:1032200070E0CE0101960E94B00C62E0CE010196E2
:103230000E94B80D2F966CAF7DAF8EAF9FAF2F97CA
:1032400066E0CE0101960E94B80D4B015C01DC01E5
:10325000CB018F709927AA27BB27855F9E4FFC0162
:10326000C0806396CFAE6397D12CF3E0CF0ED11C14
:10327000D594C794D594C7940D2C000CEE08FF0884
:103280000BE410E00C0F1D1F085F1F4F8AE0CB56A8
:10329000DF4F8883C559D040212C312C21012C14BB
:1032A0003D044E045F0400F5CB56DF4F6881C559DD
:1032B000D040CE0101960E94B80DF8016193719340
:1032C000819391938F01FFEF2F1A3F0A4F0A5F0AF4
:1032D000CB56DF4F8881C559D0408C5FCB56DF4F2E
:1032E0008883C559D040DBCF0E94F90A61E08DE5A3
:1032F00090E00E94CA0CD501C4014BE0B695A79599
:10330000979587954A95D1F78F7162968FAF62979F
:1033100085FE61C061961FAE619781E0B501A40191
:10332000407155276627772784FE80E060968FAF2F
:103330006097452B462B472B31F12F968CAD9DADD9
:10334000AEADBFAD2F97AC01BD012BE07695679573
:10335000579547952A95D1F76370772732E1880F03
:10336000991FAA1FBB1F3A95D1F788279927AC7FD1
:10337000BF71842B952BA62BB72B2F968CAF9DAFAF
:10338000AEAFBFAF2F9780915C0490915D04A09188
:103390005E04B0915F0440916804509169046091AB
:1033A0006A0470916B04481759076A077B0710F588
:1033B000BE01655B7F4F8AE594E00E94390D11E004
:1033C00072FE24C06FEE8CE690E00E94CA0C0E9450
:1033D0007B1811E01DC081E087FE03C086FC05C09C
:1033E00082E061968FAF619798CF93E061969FAF2F
:1033F000619793CF0196A11DB11D80936C049093AA
:103400006D04A0936E04B0936F04D9CF60FCDFCF3E
:1034100062FE06C06BEF8CE190E00E94CA0C11E0E6
:1034200063FE06C067EF8CE190E00E94CA0C11E0D9
:1034300074FE06C06FEE8DE190E00E94CA0C11E0B0
:1034400073FE0FC0809159048F3F19F08F5F8093F6
:10345000590467EF80E690E00E94CA0C0E94DF0EDC
:10346000A5CE0E94DF0E1111A1CECB56DF4F0FB6B5
:10347000F894DEBF0FBECDBFDF91CF911F910F91AA
:10348000FF90EF90DF90CF90BF90AF909F908F9084
:103490007F906F905F904F903F902F900895E091B4
:1034A0005A05EF3340F4F0E0EE0FFF1FE951F54FFE
:1034B0008591949108958FEF9FEF0895CF92DF92B9
:1034C000EF92FF920F931F93CF93DF93CDB7DEB7A9
:1034D000C854D1090FB6F894DEBF0FBECDBF8C0122
:1034E00080914C0490914D040E94F00EF894C0908D
:1034F0006804D0906904E0906A04F0906B047894BA
:103500000E94DF0ECD28CE28CF2819F0C8010E94D6
:103510000A0FCE0101960E946818CE0101960E9402
:103520000A0F8823A9F020914A0430914B042115F9
:10353000310571F08F8190E0880F991F820F931FE2
:10354000DC01ED91FC91309719F0CE0101960995BF
:10355000C85BDF4F0FB6F894DEBF0FBECDBFDF9163
:10356000CF911F910F91FF90EF90DF90CF90089532
:10357000CF92DF92EF92FF920F931F93CF93DF933F
:1035800000D000D000D01F92CDB7DEB72C833D8392
:103590004E835F83009125051091260510935805F1
:1035A000009357050115110569F480E490E0A0E04F
:1035B000B0E08093530590935405A0935505B093C4
:1035C000560522C0DE01119623E0FD0111922A95D5
:1035D000E9F78234F4E09F0709F483C008F084C05F
:1035E0008633E1E09E0709F442C198F58E319105DA
:1035F00009F440C1A8F48231910579F038F48A3099
:10360000910559F00C9749F010E0C1C18C3191053A
:1036100021F008F0FAC04897B9F730E020E00CC07C
:1036200081379105D1F358F480349105B1F329EF36
:103630003BE08B36910541F745E85FE0EAC084370F
:10364000910510F38637910540F38C32914029F3B0
:10365000DBCF823FE3E09E07A9F118F5813421E03A
:10366000920709F40CC158F48733F1E09F0709F47D
:1036700006C18034914041F625ED3BE0C8C0883654
:10368000E1E09E0709F4C1C0883EF3E09F07D1F056
:103690008E35914009F0B8CF30E020E041EB5DE09D
:1036A000B8C08A31E4E09E0769F078F4863024E0FF
:1036B000920741F08031E4E09E0721F08C3F934077
:1036C00009F0A2CF2DE93BE0D7C08E3224E092076B
:1036D00041F08833E4E09E0721F08432944009F001
:1036E00093CF2DEA3BE0C8C0843328E0920709F469
:1036F00045C008F048C08838F4E09F0791F3E8F42B
:103700008036E4E09E0749F058F48C3424E09207B8
:1037100021F08635944009F077CF25E73BE0ACC037
:103720008437F4E09F07C9F38E3724E09207A9F3AA
:103730008A36944009F068CFF0CF803BF4E09F07D1
:1037400009F280F48C39E4E09E0749F0863AF4E00F
:103750009F0709F4B7CF8239944009F055CF25E689
:103760003BE08AC08A3DE7E09E0741F0843EF7E0F7
:103770009F0721F0803D974009F046CF30E020E0E0
:103780004DEF5BE046C08031E5EB9E07C9F1D0F418
:10379000883129EA9207A1F140F48E33F8E09F07BF
:1037A00069F38834984051F32FCF8031E4EB9E07C2
:1037B00039F18131F4EB9F0709F38931994A09F016
:1037C00023CFDCCF8130E2ED9E07C1F268F4811592
:1037D00028EC9207A9F08130E8EC9E0779F281315C
:1037E000954B09F011CFCACF883023ED920741F0F5
:1037F0008930E3ED9E0711F28830924D09F004CF35
:1038000030E020E045EF5CE004C030E020E045EF30
:103810005EE070E0E4E07E9FC0011124840F951FFC
:10382000FC01F4906F112EC03196459154915A834A
:103830004983FC013396E491EB8380E02115310547
:1038400049F539812A81FB80FF2009F4DDCEC901C9
:1038500099838A830115110589F1F80112811123D9
:1038600091F180912705823099F562E035C029EE0B
:103870003BE0CDCF29EC3BE041E35EE0CACF25EB56
:103880003BE0FACF7F5FFFEFFF12C4CFD6CF8F5F51
:103890009F3FB9F294E0899FA0011124420F531F6A
:1038A000FA0194916913F3CF3196859194919A839B
:1038B0008983FA013396E491EB83C3CF86E090E0ED
:1038C000A0E0B0E076CE8BE090E0A0E0B0E071CE7A
:1038D00061E0813009F060E020912B0530912C05EA
:1038E0004091290550912A054115510539F0823042
:1038F00009F05DC02B30310508F060C070E0CD01EB
:103900000E945F086F2D70E0CE0104960E945F0850
:103910000E94DE146B017C01C114D104E104F104A6
:1039200009F069C0809125059091260540913705E1
:10393000509138056091310570913205DC01ED91AF
:10394000FC910284F385E02D0995C0925305D09235
:103950005405E0925505F0925605112309F454CE12
:1039600024E630E040E050E070E060E090E080E08D
:103970000E946511892B09F447CE8091270582307A
:10398000E1F5809141058F7711E009F03DCE812F5F
:1039900027960FB6F894DEBF0FBECDBFDF91CF9153
:1039A0001F910F91FF90EF90DF90CF90089581309D
:1039B00009F0A4CF2630310508F4A0CF91E0909310
:1039C0002D0580932E0583E080932F0510923005FE
:1039D00050933205409331053093340520933305DD
:1039E0001092360510923505109238051092370561
:1039F0009093390583CF10E0A8CF813009F004CE31
:103A000080914105882319F2857209F0C0CFFCCD61
:103A1000CF92DF92EF92FF92CF93C82F6A017B0182
:103A20000E944F1A8F3F980771F481E00E9451164F
:103A3000BC0181E00E947709882379F00E944F1A27
:103A40008F3F980751F0A70196016C2FCF91FF90FF
:103A5000EF90DF90CF900C94B81A82E490E0A0E051
:103A6000B0E08093530590935405A0935505B0930F
:103A7000560580E0CF91FF90EF90DF90CF900895B2
:103A80008F929F92AF92BF92CF92DF92EF92FF926E
:103A90000F931F93CF93DF93CDB7DEB72E970FB65B
:103AA000F894DEBF0FBECDBF6B017C010E944F1AA0
:103AB0008C010F3F100781F481E00E945116BC0178
:103AC00081E00E947709882309F458C20E944F1AA6
:103AD0008C01019609F452C28EE0FE013196DF019D
:103AE0001D928A95E9F78FEF89830234B4E01B07B2
:103AF00009F4EDC008F0F0C00633F1E01F0709F447
:103B0000ABC008F091C00E31110509F4E0C008F017
:103B10006FC00231110509F468C008F059C00A30BD
:103B2000110509F462C00C30110509F45EC0B980BA
:103B3000FFEFBF1609F42EC28A81843009F02AC231
:103B40002B853C854D855E85C701B6010E945033AB
:103B50006B017C0120E030E0A9010E94F83320E0F5
:103B600030E040E05FE387FD04C2C701B6010E9478
:103B7000E4320E94C233CB80DC80ED80FE806C1585
:103B80007D058E059F050CF405C2CF80D884E9849D
:103B9000FA84C616D706E806F9060CF4FBC19B01A9
:103BA000AC016B2DC8010E94B81A2E960FB6F8947E
:103BB000DEBF0FBECDBFDF91CF911F910F91FF9060
:103BC000EF90DF90CF90BF90AF909F908F9008952F
:103BD0000C31110551F090E080E00D31110508F035
:103BE0008AC10831110509F0A2CF90E080E00DC034
:103BF00001371105D1F360F400341105B1F38BEEF8
:103C000096E00B36110509F092CF2CE93AE00BC192
:103C10000437110508F48BCF0637110530F30C3249
:103C2000A1E01A0711F383CF023FB3E01B0709F4A9
:103C30006EC148F50134F1E01F0709F45FC178F463
:103C400084E696E00733A1E01A0709F442C0003485
:103C5000B1E01B0709F06BCF81E996E04CC1083653
:103C6000E1E01E0709F445C1083EF3E01F0709F42F
:103C70004EC10E3581E0180709F059CF90E080E081
:103C800026E03AE0D0C00A31A4E01A0709F43CC1AA
:103C900088F40630E4E01E0751F00031F4E01F071D
:103CA00009F432C10C3F83E0180709F040CF8FEBD5
:103CB00095E00FC00E32A4E01A0749F00833B4E0D3
:103CC0001B0729F00432E4E01E0709F030CF90E032
:103CD00080E02DE939E0A7C00433F8E01F0709F4BC
:103CE00075C008F04BC00838A4E01A0781F3F8F457
:103CF0000036E4E01E0751F060F40C3484E018074D
:103D000029F00635A4E01A0709F011CF88E395E001
:103D1000E0CF0437B4E01B07C9F30E37E4E01E0719
:103D2000A9F30A36F4E01F0709F001CFEFCF003BFB
:103D300084E0180709F4E5C078F40C39B4E01B07F7
:103D400029F3063AE4E01E0709F4DBC00239F4E087
:103D50001F0709F0ECCEDACF0A3D87E0180709F417
:103D6000F5C0043EA7E01A0709F4F3C0003DB7E030
:103D70001B0709F0DCCE84E993E02AC00031E5EBB3
:103D80001E0709F4D1C038F5083189EA180709F48B
:103D9000C1C068F40E33B8E01B0709F4D4C008347E
:103DA000E8E01E0709F0C3CE8DEF93E011C00031AB
:103DB000F4EB1F0709F4B3C0013184EB180709F4D1
:103DC000C2C00931A9EA1A0709F0B1CE8FEC94E01C
:103DD0002AEF36E028C00130B2ED1B0709F4B6C067
:103DE00078F40115F8EC1F0709F4A3C0013088EC42
:103DF000180709F20131A5EB1A0709F098CED4CFC4
:103E00000830B3ED1B0709F499C00930E3ED1E0734
:103E100009F49FC090E080E020E937E00830F2ED3F
:103E20001F0709F084CE60E0AFE0A9016A9F400D52
:103E3000511D1124FA017491793009F08DC0319629
:103E4000E491E983FA01339685909590A590B4901A
:103E50008B829C82AD82BE82FA01379685909590C6
:103E6000A590B4908F829886A986BA86FA01329678
:103E7000E491EA83FA013B964591559165917491DD
:103E80004B875C876D877E87009709F450CE40E0B2
:103E90006FE09C01469F200D311D1124F9015491C2
:103EA000593009F061C03196E491E983F901339604
:103EB00085919591A591B4918B839C83AD83BE83AD
:103EC000F901379685919591A591B4918F83988743
:103ED000A987BA87F9013296E491EA83F9013B9602
:103EE00085919591A591B4918B879C87AD87BE876D
:103EF0001ECE8EEB96E021E53AE095CF87E396E083
:103F0000E8CE8CEE95E0E5CE82E995E0E2CE85E65E
:103F100095E0DFCE90E080E024E339E084CF90E0CC
:103F200080E02BEC38E07FCF90E080E022E638E0C4
:103F30007ACF90E080E029EF37E075CF90E080E025
:103F400027E237E070CF86E694E042CF8BE293E041
:103F50003FCF82EC92E03CCF6F5F7F3F09F065CFAF
:103F6000009709F094CF16C04F5F5F3F09F091CFE3
:103F7000DECDC701B6010E94E332FBCD82E490E0C2
:103F8000A0E0B0E08093530590935405A0935505AD
:103F9000B093560580E009CE41E050E060E070E06B
:103FA00082E20E94081D60E070E08AEF94E40C94C5
:103FB000401D60E070E088E493EC0E94401D64E6E0
:103FC00070E080E090E00E94640B60E070E0CB0164
:103FD0000E94401D40E050E0BA0182E20C94081DAE
:103FE0006F927F928F929F92AF92BF92CF92DF9209
:103FF000EF92FF920F931F93CF93DF93EC014A014F
:104000005B016A01483C81E05807D0F428E4249F12
:10401000C001259F900D11240E94FD333C018C01AD
:10402000F12CE12C8FEFE81AF80AC6018E199F09CE
:1040300097FD09C0C8010E946818085B1F4FF2CFA6
:104040008FEF9FEFE9CF688279828A829B82AC8270
:10405000BD821E821F82188619861A861B861C86C0
:104060001D861E861F86188A198A1A8A1B8A1C8A30
:104070001D8ADF91CF911F910F91FF90EF90DF90FC
:10408000CF90BF90AF909F908F907F906F9008954A
:10409000CF92DF92EF92FF92CF93DF93EC016A0110
:1040A0007B018CE090E00E94FD33FC0111821082C4
:1040B0008FEF97E0A0E0B0E482839383A483B5837D
:1040C000C682D782E086F1868AEA99E09387828762
:1040D00089819A81892B71F4FA83E983FC83EB83CC
:1040E00088818F5F8883DF91CF91FF90EF90DF9081
:1040F000CF900895AB81BC81ED93FC93EFCFCF932C
:10410000DF93EC018091730190917401009759F055
:1041100020917501309176012C173D0720F081E048
:10412000DF91CF910895BE016F5F7F4F0E942235CE
:10413000009789F09093740180937301D093760176
:10414000C09375012091770130917801232B39F7C5
:10415000FC011082E4CF80E0E3CF20917701309121
:104160007801232B39F421E0FC018081882361F060
:1041700020E00AC0BC0180917301909174010E94FB
:10418000EF3521E0892BA1F7822F08951F920F921E
:104190000FB60F9211242F933F938F939F93AF935A
:1041A000BF938091690190916A01A0916B01B091D8
:1041B0006C013091680123E0230F2D3758F50196EB
:1041C000A11DB11D209368018093690190936A013C
:1041D000A0936B01B0936C0180916D0190916E0181
:1041E000A0916F01B09170010196A11DB11D809346
:1041F0006D0190936E01A0936F01B0937001BF9118
:10420000AF919F918F913F912F910F900FBE0F9083
:104210001F90189526E8230F0296A11DB11DD2CF3D
:104220001F920F920FB60F9211242F933F934F932B
:104230005F936F937F938F939F93AF93BF93EF930E
:10424000FF93E0910201F09103010995FF91EF9135
:10425000BF91AF919F918F917F916F915F914F919E
:104260003F912F910F900FBE0F901F9018951F92A6
:104270000F920FB60F9211242F933F934F935F939A
:104280006F937F938F939F93AF93BF93EF93FF931E
:10429000E0910001F09101010995FF91EF91BF912B
:1042A000AF919F918F917F916F915F914F913F91CE
:1042B0002F910F900FBE0F901F9018951F920F9285
:1042C0000FB60F9211242F933F934F935F936F93E9
:1042D0007F938F939F93AF93BF93EF93FF9388E860
:1042E00094E00E94210CFF91EF91BF91AF919F91BB
:1042F0008F917F916F915F914F913F912F910F908F
:104300000FBE0F901F9018951F920F920FB60F922D
:1043100011242F938F939F93EF93FF93E091980431
:10432000F09199048081E0919E04F0919F0482FDB8
:104330001BC090818091A1048F5F8F732091A20494
:10434000821741F0E091A104F0E0E857FB4F958F10
:104350008093A104FF91EF919F918F912F910F90E6
:104360000FBE0F901F9018958081F4CF0F931F936D
:1043700010928B0410928A0488EE93E0A0E0B0E0E3
:1043800080938C0490938D04A0938E04B0938F043B
:104390008FE191E0909389048093880485EC90E00C
:1043A000909395048093940484EC90E09093970408
:1043B0008093960480EC90E0909399048093980405
:1043C00081EC90E090939B0480939A0482EC90E0BF
:1043D00090939D0480939C0486EC90E090939F04BE
:1043E00080939E041092A1041092A2041092A30440
:1043F0001092A40482E08093270510922805109261
:104400002C0510922B051092530510925405109212
:1044100055051092560580E094E00E94FD3390937C
:104420002A0580932905892B49F080E094E0909338
:104430002C0580932B0581E0809328051092390587
:1044400010925205109257068BE090E00E94FD33C7
:10445000FC01128281E391E09183808388E894E0FB
:104460009483838383E090E09683858380E091EE5C
:10447000A0E0B0E087839087A187B287F0935805CA
:10448000E0935705309709F0A2C186E090E0A0E0E4
:10449000B0E08093530590935405A0935505B093D5
:1044A00056054EEF50E06FEF70E089E595E00E9411
:1044B000E8358EE090E0909387048093860460E076
:1044C0000E94030B61E08DE00E94030B61E08BE032
:1044D0000E94030B60E08CE00E94030B61E084E02B
:1044E0000E94030B61E084E00E94FD098CB58C7F83
:1044F00082608CBD8DB581608DBD0E941B111092B4
:104500004B0410924A0480E580934C0410924D04B1
:1045100089E494E090934F0480934E0487E0809365
:10452000500482E08093510410925204109253047C
:10453000109254041092550410925604109257048D
:10454000109258041092590410925B0410925A046D
:1045500010925C0410925D0410925E0410925F044D
:10456000109260041092610410926204109263042D
:10457000109264041092650410926604109267040D
:10458000109268041092690410926A0410926B04ED
:1045900010926C0410926D0410926E0410926F04CD
:1045A00010927104109270041092720410927304AD
:1045B000109274041092750410927604109277048D
:1045C000109278041092790410927A0410927B046D
:1045D00010927C0410927D0410927E0410927F044D
:1045E000109280041092810410928204109283042D
:1045F000109284041092850481E094E00E9468186F
:1046000089EB93E00E94681881E793E00E946818A4
:1046100089E293E00E94681881EE92E00E94681897
:1046200089E992E00E94681881E592E00E9468188A
:1046300089E092E00E94681881EC91E00E9468187D
:104640000E94960B8DE791E09093A4018093A301C3
:1046500081E891E09093A2018093A10189E791E024
:104660009093A6018093A5011092BF011092B7010B
:104670001092B8011092B9011092BA0180E090E056
:10468000AFE7B3E48093BB019093BC01A093BD015D
:10469000B093BE0184E690E0A0E0B0E08093B30167
:1046A0009093B401A093B501B093B60110929E010E
:1046B00010929D0181E090E09093A00180939F0172
:1046C0008093C00180E090E0A0E4B0E48093850195
:1046D00090938601A0938701B093880140E050E059
:1046E00060EA70E44093890150938A0160938B01E2
:1046F00070938C0140E050E060E070E440938D01E5
:1047000050938E0160938F0170939001809391017B
:1047100090939201A0939301B093940180E090E074
:10472000A0E0BFE38093950190939601A093970139
:10473000B093980180E090E0A0EAB1E48093990101
:1047400090939A01A0939B01B0939C010E94960BB9
:104750000091B3011091B4012091B5013091B601DF
:10476000601B710B820B930B6093A7017093A801E0
:104770008093A9019093AA01109274011092730181
:1047800010927601109275011092780110927701C3
:1047900090E080E00E947F202091730130917401AD
:1047A00081111AC02115310519F0C9010E949934EF
:1047B0001092740110927301109278011092770197
:1047C00010927601109275011F910F910895F09348
:1047D0002605E093250565CE1092780110927701A9
:1047E00060E571E0C9011F910F910C94F835CF93EA
:1047F000DF93CDB7DEB7C65AD1090FB6F894DEBF46
:104800000FBECDBF789484B5826084BD84B58160CD
:1048100084BD85B5826085BD85B5816085BD80918B
:104820006E00816080936E00109281008091810003
:1048300082608093810080918100816080938100FB
:10484000809180008160809380008091B1008460BD
:104850008093B1008091B00081608093B00080911E
:104860007A00846080937A0080917A0082608093DD
:104870007A0080917A00816080937A0080917A003A
:10488000806880937A001092C100809125059091F4
:1048900026059093580580935705009709F056C058
:1048A00080E490E0A0E0B0E080935305909354053D
:1048B000A0935505B093560582E080932705E091BB
:1048C0002505F0912605309709F44CC08281882394
:1048D00009F455C030E020E050E040E061E081E0C4
:1048E0000E94C515811150C040E050E0BA0182E23B
:1048F0000E94081D0E944F1A863AB4E09B0709F4F3
:1049000078C008F03CC18031F4E09F0709F471C021
:1049100008F005C1813411E0910709F46AC008F07C
:1049200060C0873331E0930709F463C0803441E00D
:10493000940721F08633914009F067C041E050E0D0
:1049400060E070E08EE40E94081D5FC0DC01ED9124
:10495000FC910484F585E02D40E051EE60E070E0CC
:104960000995AACF86E090E0A0E0B0E080935305DF
:1049700090935405A0935505B0935605B5CF8BE0A1
:1049800090E0A0E0B0E0F2CF2AE030E040E050E07C
:1049900063E070E0CE0102960E946511892B09F454
:1049A000A3CF80913E05813009F09ECF898360912D
:1049B000270570E090E080E00E94AF3020E030E01A
:1049C00040E85FE30E94AA30811105C081E00E94A7
:1049D00051169B838A836A817B8181E00E947709DB
:1049E00083CF823F63E0960721F040F4883E9340F6
:1049F00061F440E050E0BA0189E0A5CF8C3FE3E0EC
:104A00009E07B9F386309440A1F30E944F1A823179
:104A1000A4EB9A0708F017C18031B4EB9B0790F420
:104A20008433E8E09E0771F008F0F8C08A3D07E0A3
:104A3000900741F0843E17E0910721F0803D9740B8
:104A400009F0F6C041E050E060E070E084E20E94CE
:104A5000081D41E050E060E070E082E20E94081D25
:104A600010925D0110925C010E943108BC01990F07
:104A7000880B990B0E94B130609381017093820181
:104A8000809383019093840180E090E0A0E6B1E4FC
:104A90008093790190937A01A0937B01B0937C017C
:104AA0008091BF010091A3011091A4018111F4C074
:104AB000D801CD90DD90ED90FC90C092AB01D092EA
:104AC000AC01E092AD01F092AE01E091A101F09154
:104AD000A20180819181A281B3818093AF019093E3
:104AE000B001A093B101B093B2018090BB0190904E
:104AF000BC01A090BD01B090BE01A5019401C70109
:104B0000B6010E94F83318160CF0B6C08092AB01C3
:104B10009092AC01A092AD01B092AE01BDC08A36B8
:104B200004E0900709F465CFA8F48C3424E09207E0
:104B300009F45FCF28F48A31944009F066CF59CF49
:104B4000863554E0950709F454CF8036944009F037
:104B50005CCF4FCF8E37A4E09A0709F44ACF28F4F0
:104B60008437944009F051CF44CF8239F4E09F0755
:104B700009F43FCF8C39944009F047CF3ACF8231C6
:104B800014EB910788F5803124EB920708F031CFC0
:104B9000843338E0930709F42CCFA8F4803D57E024
:104BA000950709F426CF28F4803B944009F02DCFD7
:104BB00020CF8A3DB7E09B0709F41BCF843E974086
:104BC00009F023CF16CF8834F8E09F0709F411CFFE
:104BD00028F48E33984009F018CF0BCF8851994AAA
:104BE000029708F012CF05CF823028EC920740F4EC
:104BF000811538EC930708F0FCCE8051954BF0CF2F
:104C0000883042ED940709F4F4CE28F48130924DB7
:104C100009F0FBCEEECE8850934DE2CF883438E0D9
:104C2000930709F40FCF50F48E33984009F40ACF5C
:104C300041E050E060E070E083E209CF8851994A9A
:104C40000297B0F7FFCE823068EC960740F48115EA
:104C5000A8EC9A0708F0F6CE8051954BF1CF88303A
:104C6000B2ED9B0709F4EECE20F48130924D01F7AE
:104C7000E9CE8850934DE4CF8090B7019090B80171
:104C8000A090B901B090BA01A5019401C701B60185
:104C90000E94AA3087FD3ACF81E08093BF01C12CEA
:104CA000D12C6AEFE62E64ECF62EC092B701D092BA
:104CB000B801E092B901F092BA01412C512C7AEF7F
:104CC000672E74E4772E4092BB015092BC01609233
:104CD000BD017092BE01F80180809180A280B380F6
:104CE000A3019201C501B4010E94F83318163CF5E6
:104CF000D8014D925D926D927C9213978090AB019A
:104D00009090AC01A090AD01B090AE01C090BB01FD
:104D1000D090BC01E090BD01F090BE01A7019601CA
:104D2000C501B4010E94F8331816CCF4C092AB014F
:104D3000D092AC01E092AD01F092AE0120C020E033
:104D400030E04AEF54ECC501B4010E94AA3087FF5D
:104D5000D5CFF801C082D182E282F382CFCFC0905A
:104D6000B701D090B801E090B901F090BA01A70165
:104D70009601C501B4010E94AA3087FDD7CF60918A
:104D8000B3017091B4018091B5019091B6010E9478
:104D9000AF309B01AC0160E070E080EA90E40E94DB
:104DA00050336B017C01AC019B01609195017091C6
:104DB000960180919701909198010E941031609323
:104DC0009501709396018093970190939801A701A4
:104DD00096016091990170919A0180919B01909147
:104DE0009C010E9450336093990170939A018093C3
:104DF0009B0190939C0185E090E0A0E0B0E080935F
:104E0000B3019093B401A093B501B093B6010E9491
:104E10001B11E12C1BE1F12E07EB10E0CB56DF4F0D
:104E2000E882F9820A831B83C559D040C12C39E03E
:104E3000D32E3DE3E32EF12C44E0842E912CA12CC3
:104E4000B12C50E3452E512C612C712C0FEF1FEF2C
:104E50009801CF56DF4F088319832A833B83C159BA
:104E6000D04020E031E040E050E0C356DF4F2883DF
:104E700039834A835B83CD59D040CF56DF4F0881B9
:104E800019812A813B81C159D0400C151D052E0581
:104E90003F0510F00C947530CB56DF4F0881198117
:104EA0002A813B81C559D040CF56DF4F88819981F7
:104EB000AA81BB81C159D04080179107A207B307CF
:104EC000F0F024013501CB56DF4F088119812A818A
:104ED0003B81C559D040CF56DF4F088319832A83C1
:104EE0003B83C159D04022E030E040E050E0C3565F
:104EF000DF4F288339834A835B83CD59D0403FEF0E
:104F0000831A930AA30AB30A65E070E080E090E098
:104F1000A50194010E942F3261E386169104A10439
:104F2000B104E9F069E0D61A6DE3E60AF108CB5660
:104F3000DF4F88819981AA81BB81C559D0409E5E8F
:104F4000A548BF4FCB56DF4F88839983AA83BB8385
:104F5000C559D040232B242B252B09F08ECFC3011C
:104F6000B20125E030E040E050E00E942F322115F0
:104F700031054105510521F421E030E040E050E0E9
:104F8000D301C2010197A109B1097C018D01E21A87
:104F9000F30A040B150BCF56DF4FE882F9820A8320
:104FA0001B83C159D040D801C70181329105A105A9
:104FB000B105A8F02052310941095109280F391FC4
:104FC0004A1F5B1F10E2E12EF12C00E010E0CF56EB
:104FD000DF4FE882F9820A831B83C159D040CF5644
:104FE000DF4FF880C159D040CA55DF4FF882C65A0A
:104FF000D040CF55DF4F2883C15AD04083E0440CC6
:10500000551C661C771C8A95D1F7C301B20125E0B7
:1050100030E040E050E00E942F32D301C2010197FE
:10502000A109B109821B930BA40BB50B813001E0E0
:105030009007A105B10558F0315041095109280FD9
:10504000391F4A1F5B1F80E091E0A0E0B0E0CB5623
:10505000DF4F99838883C559D040CB55DF4F2883D4
:10506000C55AD040C356DF4F288139814A815B81C0
:10507000CD59D04060E271EA87E090E00E941F3293
:105080009B01AC01C301B2010E941F32C756DF4F22
:10509000688379838A839B83C959D04061151DE257
:1050A000710711E3810711E0910708F06FC0212C0F
:1050B0000DE2302E01E3402E55245394261A370A70
:1050C000480A590A612C712C430119821B821A82E9
:1050D0001D821C821F821E82188640E550E060E01F
:1050E00070E0CE0101960E94482041E051E060E06E
:1050F00070E0CE0101960E94482048EE55E060E045
:1051000070E0CE0101960E944820A0E4AA2EB2E4ED
:10511000BB2E1FE0C12ED12CE12CF12C00E010E0C1
:105120009101A201B301C4010E94573219012A0161
:105130003B014C01C756DF4F688179818A819B8191
:10514000C959D04028EE33E040E050E00E94AF3231
:1051500059016A017B018C019101A201B301C401D3
:105160000E94DA3209F008F4D8C7F4E0CF2ED12C2F
:10517000E12CF12CCB56DF4FA881B981C559D04025
:10518000129790F080E090E0DC0112C0C756DF4F2C
:1051900088819981AA81BB81C959D0409D52A14380
:1051A000B1401C012D018ECF84E090E0A0E0B0E082
:1051B000CB55DF4F2881C55AD040211170C0806582
:1051C000CB55DF4F4881C55AD040842E912CCB5609
:1051D000DF4FE881F981C559D040E815F90508F499
:1051E0009160CF55DF4FF881C15AD0402F2E312C1E
:1051F000CB56DF4F08811981C559D0400F5F1F4F33
:10520000080D191D30E020E0CF56DF4F488159814D
:10521000C159D0404F5F5F4F420D531D052E000C0A
:10522000660B770BE3E0440F551F661F771FEA9567
:10523000D1F7041715072607370709F09460CA55F8
:10524000DF4FE881C65AD040E23008F49860CF556D
:10525000DF4F2881C15AD0402150203180F4CA55F7
:10526000DF4FF881C65AD040CF55DF4F0881C15A71
:10527000D040F01720F0892B8A2B8B2B11F06894EB
:10528000C3F88091510410E08230C9F011E08330FE
:10529000B1F08F3F71F46894E3F81FEF10C0CB5565
:1052A000DF4F3881C55AD040313808F489CF806A41
:1052B00087CF1FEF70E1C72ED12CE12CF12C998103
:1052C000913210F06894C7F82E813F81232B09F4A6
:1052D00026C16894C6F880E580934C0481E08093F1
:1052E0004D0400E2A02EB12C412C512C32014394EC
:1052F000C114D104E104F10409F086C2B301A20192
:1053000080E094E00E94D91080914C0490914D046B
:105310000E94F00EF89480E094E00E94C90DC756F8
:10532000DF4F688379838A839B83C959D0407894FF
:105330000E94DF0EC756DF4F88819981AA81BB8109
:10534000C959D04084159505A605B70529F0C12C8B
:10535000D12CB4E0EB2EF12C440C551C661C771CB0
:1053600091E0A91AB10809F0C3CFCD28CE28CF28E3
:1053700009F04AC241E050E060E070E080E794E06C
:105380000E94F01F41E050E060E070E08AE594E0A8
:105390000E94F01FE12CF4E0FF2E40E050E0BA0143
:1053A000C7010E94D910A4E0EA0EF11CE114BCE090
:1053B000FB0699F7C356DF4FE880F980CD59D040FE
:1053C00063E087E09EE00E94C31060E690E080E02A
:1053D0000E94C310C356DF4FE881F981CD59D040F8
:1053E000CF56DF4F28813981C159D040E29FA001BB
:1053F000E39F500DF29F500D11244034510510F0E1
:105400004FE350E070E060E0762F652F542F442783
:10541000626072608CE090E00E94D9106FE582E5D6
:1054200090E00E94C310109252046FEF83E590E069
:105430000E94C31088E4809356048091520460E176
:10544000811101C060E0616082E090E00E94C310C1
:105450006AEF8FE590E00E94C31069E08CE590E070
:105460000E94C31008E40093570460E48AE690E0C9
:105470000E94C31060EE8BE690E00E94C31060E9CA
:1054800088E690E00E94C31000935504CA80DB8038
:10549000898190E0880F991F0E94FD3390934B04FF
:1054A00080934A04512CC114D10409F4EDC0D601F3
:1054B0001A968D919C911B97A52CB12C9501220FCA
:1054C000331FE0914A04F0914B04E20FF31F9183E4
:1054D0008083350153E0660C771C5A95E1F71296EC
:1054E0004D915D916D917C911597C3018C509E4FAC
:1054F0000E94D910F6014681578160857185C301EC
:1055000080519E4F0E94D91061E8C50180539E4F83
:105510000E94C310D601CD90DC905394C4CFC11427
:10552000D104E104F10409F0D6CE8F3F19F062E016
:105530000E94030B0E94F90A61E0809150040E94CE
:10554000030B81E580934C0410924D040E94960B4E
:105550002B013C0102E0400E511C611C711C6CE0EF
:1055600083E090E00E94C31082E090E00E94AE10C1
:1055700090E065E0959587956A95E1F7843059F05C
:105580000E94960B641575058605970540F3C12C9E
:10559000D12C7601C39480914C0490914D040E94CB
:1055A000F00EF8940E94FE0A0CB405FC61C01EBC0B
:1055B00000000DB407FEFDCF8EB51EBC00000DB47B
:1055C00007FEFDCF8EB50E94F90A78940E94DF0E87
:1055D00030E2A32EB12C412C512C32014394C11442
:1055E000D104E104F10409F076CEB301A20180E018
:1055F00094E00E94D91080914C0490914D040E9437
:10560000F00EF89480E094E00E94C90DC756DF4F79
:10561000688379838A839B83C959D04078940E9498
:10562000DF0EC756DF4F288139814A815B81C95916
:10563000D040241535054605570529F022E0C22E35
:10564000D12CE12CF12C440C551C661C771C31E04C
:10565000A31AB10809F0C3CFC114D104E104F104C5
:1056600009F039CE60E680E09EE00E94C31033CEA0
:105670001EBC00000DB407FEFDCF8EB51EBC0000A1
:105680000DB407FEFDCF9ECF63E08EE190E00E9457
:10569000C31064E08FE190E00E94C310B1E0EB1A08
:1056A000F1086701F12CE12CFE2CED2CDC2CCC2434
:1056B000CB56DF4F48815981C559D04041505109DF
:1056C00070E060E04C295D296E297F29762F652FD7
:1056D000542F4427E1E08E1A9108092C000CAA08E7
:1056E000BB08482959296A297B29762F652F542F11
:1056F0004427482959296A297B2984E090E00E949F
:10570000D91081E080935404CF56DF4F48815981EE
:10571000C159D04041505109052E000C660B770B42
:105720004C295D296E297F29762F652F542F442718
:10573000F1E02F1A3108C101330CAA0BBB0B482B27
:10574000592B6A2B7B2B762F652F542F4427482B00
:10575000592B6A2B7B2B88E090E00E94D910109285
:10576000580460E083E090E00E94C3100E94960B12
:105770006B017C010AE0C00ED11CE11CF11C82E02F
:1057800090E00E94AE1082958695877039F00E9455
:10579000960B6C157D058E059F0588F3809151044D
:1057A0008F3F71F1123098F4E12FF0E0EE0FFF1F00
:1057B000E050FF4F83EB98E19183808380916900F3
:1057C000113009F4CDC08C7F80936900E89A2FB71F
:1057D000F89491E0112339F092E0113021F082E049
:1057E00080935B0190E080915A01892B80935A014C
:1057F00080915B01811103C081E080935B012FBF29
:10580000109253041092590481E590E0A0E0B0E0BA
:105810008093010490930204A0930304B0930404C2
:1058200081E08093080493E09093060442E550E001
:1058300060E070E04093B9035093BA036093BB03F8
:105840007093BC038093C0039093BE0343E550E084
:1058500060E070E0409371035093720360937303B0
:1058600070937403809378039093760340E051E043
:1058700060E070E04093290350932A0360932B0368
:1058800070932C0322E02093300390932E0340E189
:1058900050E060E070E04093E1025093E2026093D8
:1058A000E3027093E4028093E8029093E60242E000
:1058B00051E060E070E04093990250939A02609347
:1058C0009B0270939C028093A00290939E0280930F
:1058D00009042093C1039093790324E020933103BA
:1058E0002FE02093E90241E051E060E070E0409356
:1058F000510250935202609353027093540280936A
:1059000058029093560240E550E060E070E040930A
:10591000090250930A0260930B0270930C02809369
:10592000100290930E0248EE55E060E070E0409364
:10593000C1015093C2016093C3017093C40198E008
:105940009093C8018093C6018A819B81009769F07A
:10595000DC010D911C910E9499341B830A83F4CFC2
:10596000837F80936900E99A32CF89E092E00E94B8
:105970005E1A81E592E00E945E1A81EC91E00E943D
:105980005E1A0E94A80A8C019093670180936601B9
:105990000E94310880936501F0901102BFE0FB1670
:1059A00031F081E491E00E94AD20882349F180919B
:1059B00064018150823020F1EFE0FE1214C061E0FA
:1059C00085E00E94030B61E085E00E94FD096CE226
:1059D00071E080E090E00E94640B60E085E00E944E
:1059E000FD09109211020530110551F0C801019610
:1059F00090936301809362011092040110926401FC
:105A000080911102803F31F084E491E00E94AD204A
:105A1000882399F0809164018150823070F00115E3
:105A2000110559F0C80101979093630180936201B9
:105A300081E0809304011092640189E491E00E9466
:105A4000AD20882369F0809164018150823040F05C
:105A50000130110529F4F2E0F09304011092640181
:105A600081E591E00E94AD20882371F0809164016E
:105A70008150823048F00115110531F493E0E92E90
:105A8000E092040110926401F090040121E0F2160A
:105A900009F499C0F21608F43FC032E0F31609F495
:105AA000AAC243E0F41609F4DEC280916601809335
:105AB0003103809165018093320390E080E00E9481
:105AC0007F202091730130917401811104C321154D
:105AD000310519F0C9010E94993410927401109295
