:100000000C9462000C94D5010C94AE010C948A00FF
:100010000C948A000C948A000C948A000C948A0038
:100020000C948A000C948A000C948A000C948A0028
:100030000C948A000C948A000C948A000C948A0018
:100040000C9464010C948A000C948A000C948A002D
:100050000C948A000C948A000C948A000C948A00F8
:100060000C948A000C948A000000000024002700F1
:100070002A0000000000250028002B0004040404CE
:100080000404040402020202020203030303030342
:10009000020203010204081020408001020408103B
:1000A00020010204081020408040000000090003E5
:1000B000020000040508000000000000000000002D
:1000C0000000BF0211241FBECFEFD8E0DEBFCDBFBE
:1000D00011E0A0E0B1E0E8EBF5E002C005900D9280
:1000E000A430B107D9F721E0A4E0B1E001C01D922E
:1000F000AB31B207E1F710E0C2E6D0E004C02197CF
:10010000FE010E94D402C136D107C9F70E94FC014A
:100110000C94DA020C940000EFEAF0E02491E8E994
:10012000F0E09491E1E8F0E0E491EE23C9F02223BD
:1001300039F0243001F1A8F4223069F1233079F14B
:10014000F0E0EE0FFF1FEE58FF4FA591B4912FB7CF
:10015000F894EC91811126C090959E239C932FBF1B
:100160000895283071F0293091F0253049F7209119
:1001700080002F7D03C0209180002F772093800086
:10018000DFCF2091B0002F772093B000D9CF2091FE
:10019000B0002F7DF9CF24B52F7724BDD1CF24B562
:1001A0002F7DFBCF9E2BDACF3FB7F89480911701BC
:1001B00090911801A0911901B0911A0126B5A89B40
:1001C00005C02F3F19F00196A11DB11D3FBFBA2FE9
:1001D000A92F982F8827BC01CD01620F711D811DA9
:1001E000911D42E0660F771F881F991F4A95D1F72E
:1001F00008952FB7F89460911301709114018091C4
:100200001501909116012FBF089508958F929F9226
:10021000AF92BF92CF92DF92EF92FF928091100146
:100220009091110101969093110180931001E8E9DA
:10023000F0E02491E1E8F0E08491882399F090E0E7
:10024000880F991FFC01E859FF4FA591B491FC015B
:10025000EE58FF4F859194918FB7F894EC91E22B73
:10026000EC938FBF81E00E948C000E94D4004B0170
:100270005C0188ECC82ED12CE12CF12C0E94D4001A
:10028000681979098A099B09683E734081059105BF
:10029000A8F321E0C21AD108E108F10888EE880E1F
:1002A00083E0981EA11CB11CC114D104E104F10427
:1002B00029F780E0FF90EF90DF90CF90BF90AF9054
:1002C0009F908F900C948C001F920F920FB60F92FC
:1002D00011242F933F938F939F93AF93BF9380915C
:1002E000130190911401A0911501B0911601309164
:1002F000120123E0230F2D3768F126E8230F029621
:10030000A11DB11D2093120180931301909314013C
:10031000A0931501B09316018091170190911801D7
:10032000A0911901B0911A010196A11DB11D8093F0
:10033000170190931801A0931901B0931A01BF916E
:10034000AF919F918F913F912F910F900FBE0F9082
:100350001F9018950196A11DB11DD4CF1F920F9229
:100360000FB60F9211242F933F934F935F936F9388
:100370007F938F939F93AF93BF93EF93FF93E091FE
:100380000201F09103010995FF91EF91BF91AF91A7
:100390009F918F917F916F915F914F913F912F919D
:1003A0000F900FBE0F901F9018951F920F920FB6CF
:1003B0000F9211242F933F934F935F936F937F93EB
:1003C0008F939F93AF93BF93EF93FF93E0910001BF
:1003D000F09101010995FF91EF91BF91AF919F912C
:1003E0008F917F916F915F914F913F912F910F90DE
:1003F0000FBE0F901F901895789484B5836084BDCC
:1004000085B5836085BD80916E00816080936E00AC
:1004100082E08093810080918100816080938100DF
:10042000809180008160809380008091B100846021
:100430008093B1008091B00081608093B00087E824
:1004400080937A001092C100E5E9F0E02491EEE794
:10045000F0E084918823C1F090E0880F991FFC019F
:10046000E859FF4FC591D491FC01EE58FF4FA5917B
:10047000B4919FB7F8943881822F80958323888325
:10048000EC91E22BEC939FBF86E091E09093010109
:1004900080930001809169008C7F82608093690065
:1004A000E89A0E94F90060930C0170930D0180930B
:1004B0000E0190930F0113E4C0E0D0E08091100191
:1004C000909111010C9761F40E94F9000E94F900CB
:1004D00060930C0170930D0180930E0190930F01B6
:1004E0000E94F900C0900801D0900901E0900A0133
:1004F000F0900B016C197D098E099F09653F7140D1
:100500008105910550F00E94F900609308017093F5
:10051000090180930A0190930B010E94F900C09099
:100520000401D0900501E0900601F09007016C19DC
:100530007D098E099F096536710581059105C8F011
:1005400010937C0080917A00806480937A0080917F
:100550007A0086FDFCCF80917800809179000E941E
:10056000F900609304017093050180930601909354
:100570000701209709F4A2CF0E9400009FCF0E949C
:10058000F900609308017093090180930A01909328
:100590000B010E94F90060930401709305018093A0
:1005A0000601909307010895EE0FFF1F0590F49147
:0805B000E02D0994F894FFCF3F
:0405B8000501000039
:00000001FF
