:100000000C945D000C9485000C9485000C94850084
:100010000C9485000C9485000C9485000C9485004C
:100020000C9485000C9485000C9485000C9485003C
:100030000C9485000C9485000C9485000C9485002C
:100040000C9407030C9485000C9485000C94850097
:100050000C9485000C9485000C9485000C9485000C
:100060000C9485000C94850000000008000201003B
:100070000003040700000000000000000000000072
:10008000250028002B0000000000240027002A0083
:10009000040404040404040402020202020203032E
:1000A0000303030301020408102040800102040836
:1000B00010200102040810206C0411241FBECFEF91
:1000C000D8E0DEBFCDBF11E0A0E0B1E0E4EDF9E0A3
:1000D00002C005900D92A031B107D9F721E0A0E14F
:1000E000B1E001C01D92A834B207E1F710E0CDE500
:1000F000D0E004C02197FE010E94D904CC35D1077D
:10010000C9F70E9451030C94E8040C94000090E09D
:10011000FC01EC55FF4F249180579F4FFC018491C7
:10012000882399F090E0880F991FFC01EA57FF4F50
:10013000A591B491FC01E458FF4F859194918FB73C
:10014000F894EC91E22BEC938FBF089590E0FC01C2
:10015000E859FF4F2491FC01EC55FF4F3491FC010D
:10016000E057FF4FE491EE23C9F0222339F023300A
:1001700001F1A8F4213019F1223029F1F0E0EE0F5D
:10018000FF1FE458FF4FA591B4918FB7F894EC91FD
:10019000611126C030953E233C938FBF08952730D0
:1001A000A9F02830C9F0243049F7809180008F7D74
:1001B00003C0809180008F7780938000DFCF84B56B
:1001C0008F7784BDDBCF84B58F7DFBCF8091B0006E
:1001D0008F778093B000D2CF8091B0008F7DF9CF20
:1001E0003E2BDACF61E0809146010C94A60080E5B9
:1001F0008CBD81E08DBD60E0809146010C94A6002D
:100200003FB7F8948091120190911301A0911401CD
:10021000B091150126B5A89B05C02F3F19F0019696
:10022000A11DB11D3FBFBA2FA92F982F8827BC0150
:10023000CD01620F711D811D911D42E0660F771F78
:10024000881F991F4A95D1F708958F929F92AF9278
:10025000BF92CF92DF92EF92FF920E9400014B017A
:100260005C018AE0C82ED12CE12CF12C0E94000107
:10027000681979098A099B09683E734081059105CF
:10028000A8F321E0C21AD108E108F10888EE880E2F
:1002900083E0981EA11CB11CC114D104E104F10437
:1002A00029F7FF90EF90DF90CF90BF90AF909F9095
:1002B0008F900895CF93CFB7F8948091100181115A
:1002C00024C0EAE9F0E08491EEEAF0E09491E82FAE
:1002D000F0E0EE0FFF1FEA57FF4FA591B491EC91AC
:1002E000E92321F461E08AE00E94A6008AE00E94EE
:1002F00087008CB580618CBD8CB580648CBD8DE031
:100300000E9487008BE00E948700809110018F5F20
:1003100080931001CFBFCF9108958EBD00000DB422
:1003200007FEFDCF8EB508951F93CF93DF93182F4F
:10033000D62FC42F0E94F70085E00E948D01812FE7
:100340000E948D018D2F0E948D018C2F0E948D01A6
:10035000DF91CF911F910C94F200CF92DF92EF9238
:10036000FF92CF93DF93D82F482F60EE8FE00E944B
:1003700094018FB7F894C0904201D0904301E0906F
:100380004401F09045018FBF8AE0C80ED11CE11CEA
:10039000F11C2FB7F8948091420190914301A091F4
:1003A0004401B09145012FBF8C159D05AE05BF05D9
:1003B000E0F40E94F70083E00E948D018EE00E942D
:1003C0008D0180E00E948D01C82F0E94F200C07E46
:1003D000DC13DFCF81E091E0892790E0DF91CF91BE
:1003E000FF90EF90DF90CF90089580E0F4CFCF930F
:1003F000DF93D82FC62F0E94F70082E00E948D0164
:100400008D2F0E948D018C2F0E948D01DF91CF9145
:100410000C94F200FF920F931F93CF93DF93C82F9A
:10042000F62E172F042F0E94F70082E00E948D0104
:100430008C2F0E948D01CF2DD12F0C0F1D2F111D40
:10044000C017D10721F089910E948D01F9CFDF916A
:10045000CF911F910F91FF900C94F2003F924F9219
:100460005F926F927F928F929F92AF92BF92CF9244
:10047000DF92EF92FF920F931F93CF93DF93CDB74D
:10048000DEB763970FB6F894DEBF0FBECDBF6C0129
:1004900086E0E0E0F1E0DE011E9601900D928A9583
:1004A000E1F72E012EE0420E511C3E0184E1680E60
:1004B000711CF201E190F1902F018701000F111FD3
:1004C000F801EE0DFF1DEA5FFE4F30800E94F7003D
:1004D00083E00E948D01832D0E948D0180E00E94A7
:1004E0008D01A82E0E94F200A3FC8AC0F601808133
:1004F0009181A281B381AC01BD01442777FD439571
:100500005527662777272C013D014424552466246E
:10051000F0E47F2288248A94982CA82C6FE1B62ED0
:10052000411106C088248A9457E0952EA12CB12C45
:1005300088219921AA21BB21442309F453C08C832B
:100540009B83CD01AA27BB27282F23702860382F33
:10055000330F330F330F307E232B2A8335E09695EC
:1005600087953A95E1F78983F601A4808A2D45287D
:100570004628472809F080648D834A2D50E0B60153
:10058000685F7F4FCE0106960E94DF0445E04A0D6A
:100590000E0D1F1DF801EA5FFE4FBE016F5F7F4F1A
:1005A00081810E940A0248E068E0832D0E94940144
:1005B00090E080E063960FB6F894DEBF0FBECDBF2B
:1005C000DF91CF911F910F91FF90EF90DF90CF902F
:1005D000BF90AF909F908F907F906F905F904F9063
:1005E0003F9008959C0193E0369527959A95E1F701
:1005F00029838295880F807E8A831C821B82B4CFD8
:100600004614570409F055CF84E090E0D3CF1F92F1
:100610000F920FB60F9211242F933F938F939F93B6
:10062000AF93BF938091420190914301A091440107
:10063000B09145013091110123E0230F2D3758F57A
:100640000196A11DB11D2093110180934201909349
:100650004301A0934401B093450180911201909110
:100660001301A0911401B09115010196A11DB11DB6
:100670008093120190931301A0931401B09315017C
:10068000BF91AF919F918F913F912F910F900FBE8E
:100690000F901F90189526E8230F0296A11DB11DFB
:1006A000D2CFCF93DF93CDB7DEB72E970FB6F894A6
:1006B000DEBF0FBECDBF789484B5826084BD84B5A3
:1006C000816084BD85B5826085BD85B5816085BD4D
:1006D00080916E00816080936E0010928100809105
:1006E000810082608093810080918100816080938D
:1006F0008100809180008160809380008091B100B2
:1007000084608093B1008091B00081608093B000DC
:1007100080917A00846080937A0080917A00826070
:1007200080937A0080917A00816080937A00809132
:100730007A00806880937A001092C10089E00E945C
:10074000870060E089E00E94A60081E190E0A0E0DF
:10075000B0E08093300190933101A0933201B093C7
:10076000330188E0809334011092380110923901EE
:1007700010923A0110923B0110923C0110923D01FF
:1007800010923E0110923F0180E190E0A0E0B0E0C5
:100790008093200190932101A0932201B093230123
:1007A00082E08093240110922801109229010E9476
:1007B0005A010E94F70080EC0E948D010E94F20015
:1007C0000E9425018E010F5F1F4F8EE0F8011192EC
:1007D0008A95E9F74EE0B80180E30E940A024EE0F4
:1007E000B80180E40E940A024EE0B80180E50E9450
:1007F0000A0260E080E60E94F70160E080E70E9464
:10080000F70163EA8BE20E94F70144E064E680E6C8
:100810000E94940140E060E680E70E94940180E835
:100820000E94AD01892B61F460E08AE20E94F70129
:1008300060EF89E20E94F70166E888E20E94F70112
:1008400080E00E94AD0190E0E92E90E0F92E109238
:100850004101109240010091400110914101003886
:1008600011058CF50093380100933A018091240121
:10087000893020F480E291E00E942E0280913401C0
:10088000893020F480E391E00E942E0260911601ED
:100890007091170180911801909119010E948104B3
:1008A0006230710548F0660F771F660F771F65503D
:1008B0007109CB010197F1F70F5F1F4F10934101B1
:1008C00000934001C8CF0E942501E114F10409F40E
:1008D000BECF0E940000BBCF80E090E5A3E4B4E46B
:1008E0008093160190931701A0931801B0931901FA
:1008F0000E945A0187E0809346010E9487000C9471
:10090000F2000E94B80488F09F5798F0B92F9927F9
:10091000B751B0F0E1F0660F771F881F991F1AF0EA
:10092000BA95C9F714C0B13091F00E94D204B1E079
:1009300008950C94D204672F782F8827B85F39F078
:10094000B93FCCF3869577956795B395D9F73EF483
:1009500090958095709561957F4F8F4F9F4F08952B
:1009600057FD9058440F551F59F05F3F71F0479560
:10097000880F97FB991F61F09F3F79F08795089545
:10098000121613061406551FF2CF4695F1DF08C064
:10099000161617061806991FF1CF86957105610581
:1009A00008940895E894BB2766277727CB0197F929
:1009B0000895EE0FFF1F0590F491E02D0994FB01BF
:1009C000DC0102C001900D9241505040D8F70895CB
:0409D000F894FFCFC9
:1009D40000000100020030313640414650515600BB
:107E0000112484B714BE81FFF0D085E080938100F7
:107E100082E08093C00088E18093C10086E0809377
:107E2000C20080E18093C4008EE0C9D0259A86E02C
:107E300020E33CEF91E0309385002093840096BBD3
:107E4000B09BFECF1D9AA8958150A9F7CC24DD24C4
:107E500088248394B5E0AB2EA1E19A2EF3E0BF2EE7
:107E6000A2D0813461F49FD0082FAFD0023811F036
:107E7000013811F484E001C083E08DD089C08234E0
:107E800011F484E103C0853419F485E0A6D080C0E4
:107E9000853579F488D0E82EFF2485D0082F10E0AE
:107EA000102F00270E291F29000F111F8ED06801E7
:107EB0006FC0863521F484E090D080E0DECF843638
:107EC00009F040C070D06FD0082F6DD080E0C81688
:107ED00080E7D80618F4F601B7BEE895C0E0D1E017
:107EE00062D089930C17E1F7F0E0CF16F0E7DF06D8
:107EF00018F0F601B7BEE89568D007B600FCFDCFD4
:107F0000A601A0E0B1E02C9130E011968C91119780
:107F100090E0982F8827822B932B1296FA010C0160
:107F200087BEE89511244E5F5F4FF1E0A038BF0790
:107F300051F7F601A7BEE89507B600FCFDCF97BE46
:107F4000E89526C08437B1F42ED02DD0F82E2BD052
:107F50003CD0F601EF2C8F010F5F1F4F84911BD097
:107F6000EA94F801C1F70894C11CD11CFA94CF0C13
:107F7000D11C0EC0853739F428D08EE10CD085E9AC
:107F80000AD08FE07ACF813511F488E018D01DD067
:107F900080E101D065CF982F8091C00085FFFCCF94
:107FA0009093C60008958091C00087FFFCCF809118
:107FB000C00084FD01C0A8958091C6000895E0E648
:107FC000F0E098E1908380830895EDDF803219F02E
:107FD00088E0F5DFFFCF84E1DECF1F93182FE3DFCA
:107FE0001150E9F7F2DF1F91089580E0E8DFEE27F6
:047FF000FF270994CA
:027FFE00040479
:0400000300007E007B
:00000001FF
