:100000000C945D000C9485000C9485000C94850084
:100010000C9485000C9485000C9485000C9485004C
:100020000C9485000C9485000C9485000C9485003C
:100030000C9485000C9485000C9485000C9485002C
:100040000C94D2020C9485000C9485000C948500CD
:100050000C9485000C9485000C9485000C9485000C
:100060000C9485000C94850000000008000201003B
:100070000003040700000000000000000000000072
:10008000250028002B0000000000240027002A0083
:10009000040404040404040402020202020203032E
:1000A0000303030301020408102040800102040836
:1000B0001020010204081020470411241FBECFEFB6
:1000C000D8E0DEBFCDBF11E0A0E0B1E0E2ECF8E0A7
:1000D00002C005900D92A031B107D9F721E0A0E14F
:1000E000B1E001C01D92A034B207E1F710E0CDE508
:1000F000D0E004C02197FE010E945004CC35D10706
:10010000C9F70E941C030C945F040C94000090E05B
:10011000FC01EC55FF4F249180579F4FFC018491C7
:10012000882399F090E0880F991FFC01EA57FF4F50
:10013000A591B491FC01E458FF4F859194918FB73C
:10014000F894EC91E22BEC938FBF089590E0FC01C2
:10015000E859FF4F2491FC01EC55FF4F3491FC010D
:10016000E057FF4FE491EE23C9F0222339F023300A
:1001700001F1A8F4213019F1223029F1F0E0EE0F5D
:10018000FF1FE458FF4FA591B4918FB7F894EC91FD
:10019000611126C030953E233C938FBF08952730D0
:1001A000A9F02830C9F0243049F7809180008F7D74
:1001B00003C0809180008F7780938000DFCF84B56B
:1001C0008F7784BDDBCF84B58F7DFBCF8091B0006E
:1001D0008F778093B000D2CF8091B0008F7DF9CF20
:1001E0003E2BDACF61E080913E010C94A60080E5C1
:1001F0008CBD81E08DBD60E080913E010C94A60035
:100200003FB7F8948091120190911301A0911401CD
:10021000B091150126B5A89B05C02F3F19F0019696
:10022000A11DB11D3FBFBA2FA92F982F8827BC0150
:10023000CD01620F711D811D911D42E0660F771F78
:10024000881F991F4A95D1F708958EBD00000DB4FF
:1002500007FEFDCF8EB508951F93CF93DF93182F20
:10026000D62FC42F0E94F70085E00E942501812F20
:100270000E9425018D2F0E9425018C2F0E942501AF
:10028000DF91CF911F910C94F200CF92DF92EF9209
:10029000FF92CF93DF93D82F482F60EE8FE00E941C
:1002A0002C018FB7F894C0903A01D0903B01E090B8
:1002B0003C01F0903D018FBF8AE0C80ED11CE11CCB
:1002C000F11C2FB7F89480913A0190913B01A091D5
:1002D0003C01B0913D012FBF8C159D05AE05BF05BA
:1002E000E0F40E94F70083E00E9425018EE00E9466
:1002F000250180E00E942501C82F0E94F200C07EE7
:10030000DC13DFCF81E091E0892790E0DF91CF918E
:10031000FF90EF90DF90CF90089580E0F4CFCF93DF
:10032000DF93D82FC62F0E94F70082E00E9425019C
:100330008D2F0E9425018C2F0E942501DF91CF91E6
:100340000C94F200FF920F931F93CF93DF93C82F6B
:10035000F62E172F042F0E94F70082E00E9425013D
:100360008C2F0E942501CF2DD12F0C0F1D2F111D79
:10037000C017D10721F089910E942501F9CFDF91A3
:10038000CF911F910F91FF900C94F200CF93CFB7B4
:10039000F89480911001811124C0EAE9F0E0849181
:1003A000EEEAF0E09491E82FF0E0EE0FFF1FEA573D
:1003B000FF4FA591B491EC91E92321F461E08AE02B
:1003C0000E94A6008AE00E9487008CB580618CBDE7
:1003D0008CB580648CBD8DE00E9487008BE00E940C
:1003E0008700809110018F5F80931001CFBFCF9164
:1003F00008953F924F925F926F927F928F929F9259
:10040000AF92BF92CF92DF92EF92FF920F931F9322
:10041000CF93DF93CDB7DEB763970FB6F894DEBF07
:100420000FBECDBF6C0186E0E0E0F1E0DE011E967C
:1004300001900D928A95E1F72E012EE0420E511C9B
:100440003E0184E1680E711CF201E190F1902F01F0
:100450008701000F111FF801EE0DFF1DEA5FFE4F2F
:1004600030800E94F70083E00E942501832D0E94C6
:10047000250180E00E942501A82E0E94F200A3FC25
:100480008AC0F60180819181A281B381AC01BD0156
:10049000442777FD43955527662777272C013D0193
:1004A000442455246624F0E47F2288248A94982CDE
:1004B000A82C6FE1B62E411106C088248A9457E01B
:1004C000952EA12CB12C88219921AA21BB2144234E
:1004D00009F453C08C839B83CD01AA27BB27282F07
:1004E00023702860382F330F330F330F307E232BC8
:1004F0002A8335E0969587953A95E1F78983F60149
:10050000A4808A2D45284628472809F080648D83D9
:100510004A2D50E0B601685F7F4FCE0106960E94DB
:10052000560445E04A0D0E0D1F1DF801EA5FFE4F0F
:10053000BE016F5F7F4F81810E94A20148E068E0A9
:10054000832D0E942C0190E080E063960FB6F89412
:10055000DEBF0FBECDBFDF91CF911F910F91FF90F6
:10056000EF90DF90CF90BF90AF909F908F907F9053
:100570006F905F904F903F9008959C0193E0369567
:1005800027959A95E1F729838295880F807E8A8343
:100590001C821B82B4CF4614570409F055CF84E067
:1005A00090E0D3CF1F920F920FB60F9211242F938A
:1005B0003F938F939F93AF93BF9380913A01909114
:1005C0003B01A0913C01B0913D013091110123E02C
:1005D000230F2D3758F50196A11DB11D2093110150
:1005E00080933A0190933B01A0933C01B0933D016D
:1005F0008091120190911301A0911401B091150105
:100600000196A11DB11D8093120190931301A09337
:100610001401B0931501BF91AF919F918F913F91BC
:100620002F910F900FBE0F901F90189526E8230F63
:100630000296A11DB11DD2CFCF93DF93CDB7DEB708
:100640002E970FB6F894DEBF0FBECDBF789484B559
:10065000826084BD84B5816084BD85B5826085BDBE
:1006600085B5816085BD80916E00816080936E004C
:10067000109281008091810082608093810080913E
:1006800081008160809381008091800081608093EF
:1006900080008091B10084608093B1008091B000AF
:1006A00081608093B00080917A00846080937A00AA
:1006B00080917A00826080937A0080917A008160D4
:1006C00080937A0080917A00806880937A001092FB
:1006D000C10089E00E94870060E089E00E94A600D6
:1006E00081E190E0A0E0B0E080932801909329019F
:1006F000A0932A01B0932B0188E080932C011092E3
:100700003001109231011092320110923301109297
:10071000340110923501109236011092370180E1B8
:1007200090E0A0E0B0E08093180190931901A093AD
:100730001A01B0931B0182E080931C0110922001EA
:10074000109221010E94C6010E94F70080EC0E94D5
:1007500025010E94F2000E9400016B017C012AE049
:10076000822E912CA12CB12C0E9400016C197D09C4
:100770008E099F09683E734081059105A8F321E029
:10078000821A9108A108B10888EEC80E83E0D81E2D
:10079000E11CF11C81149104A104B10429F78E011C
:1007A0000F5F1F4F8EE0F80111928A95E9F74EE036
:1007B000B80180E30E94A2014EE0B80180E40E94EB
:1007C000A2014EE0B80180E50E94A20160E080E64F
:1007D0000E948F0160E080E70E948F0163EA8BE254
:1007E0000E948F0144E064E680E60E942C0140E014
:1007F00060E680E70E942C0180E80E944501892B79
:1008000061F460E08AE20E948F0160EF89E20E9459
:100810008F0166E888E20E948F0180E00E94450116
:1008200083E1C82E86E0D82E90E0E92E90E0F92EE4
:10083000109239011092380100913801109139015C
:100840000F3F1105F4F400933001009332018091C1
:100850001C01893020F488E191E00E94F901809127
:100860002C01893020F488E291E00E94F901C60150
:100870000197F1F70F5F1F4F109339010093380173
:10088000DBCFE114F104A1F20E940000D1CF0E945D
:10089000C60187E080933E010E9487000C94F2001D
:1008A000EE0FFF1F0590F491E02D0994FB01DC0190
:1008B00002C001900D9241505040D8F70895F8942D
:0208C000FFCF68
:1008C20000000100020030313640414650515600CE
:107E0000112484B714BE81FFF0D085E080938100F7
:107E100082E08093C00088E18093C10086E0809377
:107E2000C20080E18093C4008EE0C9D0259A86E02C
:107E300020E33CEF91E0309385002093840096BBD3
:107E4000B09BFECF1D9AA8958150A9F7CC24DD24C4
:107E500088248394B5E0AB2EA1E19A2EF3E0BF2EE7
:107E6000A2D0813461F49FD0082FAFD0023811F036
:107E7000013811F484E001C083E08DD089C08234E0
:107E800011F484E103C0853419F485E0A6D080C0E4
:107E9000853579F488D0E82EFF2485D0082F10E0AE
:107EA000102F00270E291F29000F111F8ED06801E7
:107EB0006FC0863521F484E090D080E0DECF843638
:107EC00009F040C070D06FD0082F6DD080E0C81688
:107ED00080E7D80618F4F601B7BEE895C0E0D1E017
:107EE00062D089930C17E1F7F0E0CF16F0E7DF06D8
:107EF00018F0F601B7BEE89568D007B600FCFDCFD4
:107F0000A601A0E0B1E02C9130E011968C91119780
:107F100090E0982F8827822B932B1296FA010C0160
:107F200087BEE89511244E5F5F4FF1E0A038BF0790
:107F300051F7F601A7BEE89507B600FCFDCF97BE46
:107F4000E89526C08437B1F42ED02DD0F82E2BD052
:107F50003CD0F601EF2C8F010F5F1F4F84911BD097
:107F6000EA94F801C1F70894C11CD11CFA94CF0C13
:107F7000D11C0EC0853739F428D08EE10CD085E9AC
:107F80000AD08FE07ACF813511F488E018D01DD067
:107F900080E101D065CF982F8091C00085FFFCCF94
:107FA0009093C60008958091C00087FFFCCF809118
:107FB000C00084FD01C0A8958091C6000895E0E648
:107FC000F0E098E1908380830895EDDF803219F02E
:107FD00088E0F5DFFFCF84E1DECF1F93182FE3DFCA
:107FE0001150E9F7F2DF1F91089580E0E8DFEE27F6
:047FF000FF270994CA
:027FFE00040479
:0400000300007E007B
:00000001FF
