:100000000C945D000C9485000C9485000C94850084
:100010000C9485000C9485000C9485000C9485004C
:100020000C9485000C9485000C9485000C9485003C
:100030000C9485000C9485000C9485000C9485002C
:100040000C943E090C9485000C9485000C9485005A
:100050000C9485000C9485000C9485000C9485000C
:100060000C9485000C94850000000008000201003B
:100070000003040700000000000000000000000072
:10008000250028002B0000000000240027002A0083
:10009000040404040404040402020202020203032E
:1000A0000303030301020408102040800102040836
:1000B0001020010204081020A51011241FBECFEF4C
:1000C000D8E0DEBFCDBF11E0A0E0B1E0E6EBF7E2A3
:1000D00002C005900D92A433B107D9F722E0A4E342
:1000E000B1E001C01D92A032B207E1F710E0CDE50A
:1000F000D0E004C02197FE010E94CA13CC35D1077D
:10010000C9F70E9488090C94D9130C94000090E060
:10011000FC01EC55FF4F249180579F4FFC018491C7
:10012000882399F090E0880F991FFC01EA57FF4F50
:10013000A591B491FC01E458FF4F859194918FB73C
:10014000F894EC91E22BEC938FBF089590E0FC01C2
:10015000E859FF4F2491FC01EC55FF4F3491FC010D
:10016000E057FF4FE491EE23C9F0222339F023300A
:1001700001F1A8F4213019F1223029F1F0E0EE0F5D
:10018000FF1FE458FF4FA591B4918FB7F894EC91FD
:10019000611126C030953E233C938FBF08952730D0
:1001A000A9F02830C9F0243049F7809180008F7D74
:1001B00003C0809180008F7780938000DFCF84B56B
:1001C0008F7784BDDBCF84B58F7DFBCF8091B0006E
:1001D0008F778093B000D2CF8091B0008F7DF9CF20
:1001E0003E2BDACF1F93CF93DF93182FEB010E94A2
:1001F0008700209739F460E0812FDF91CF911F9124
:100200000C94A600CF3FD10511F461E0F5CFE12FAA
:10021000F0E0E859FF4FE491E33031F140F4E13090
:10022000B1F0E230E1F0C038D1057CF7E4CFE7303F
:1002300029F1E83059F1E430B1F780918000806213
:1002400080938000D0938B00C0938A0004C084B553
:10025000806884BDC7BDDF91CF911F91089584B59B
:10026000806284BDC8BDF7CF809180008068809394
:100270008000D0938900C0938800EDCF8091B000BA
:1002800080688093B000C093B300E5CF8091B00048
:1002900080628093B000C093B400DDCF20911B0238
:1002A00001978730910560F4FC01E75AFE4F0C94EA
:1002B000CA1376018E01A201B601CA01DE01F20164
:1002C0006FEF70E0822F0E94F2006FEF70E080917C
:1002D0001C020E94F2006FEF70E080911D020E94EC
:1002E000F20010921A0210921902089570E060E074
:1002F000822F0E94F20070E060E080911C020E9458
:10030000F20070E060E080911D020E94F20081E046
:1003100090E090931A0280931902089570E060E0D3
:10032000822F0E94F2006FEF70E080911C020E9409
:10033000F2006FEF70E080911D020E94F20082E0F7
:1003400090E0E7CF6FEF70E0822F0E94F20070E044
:1003500060E080911C020E94F2006FEF70E08091DB
:100360001D020E94F20083E090E0D3CF6FEF70E0B7
:10037000822F0E94F2006FEF70E080911C020E94B9
:10038000F20070E060E080911D020E94F20084E0C3
:1003900090E0BFCF70E060E0822F0E94F2006AEB35
:1003A00070E080911C020E94F2006FEF70E080917B
:1003B0001D020E94F20085E090E0ABCF64EB70E09C
:1003C000822F0E94F2006FEF70E080911C020E9469
:1003D000F2006DE770E080911D020E94F20086E05D
:1003E00090E097CF70E060E0822F0E94F20070E012
:1003F00060E080911C020E94F2006FEF70E080913B
:100400001D020E94F20087E090E083CF8E5080644E
:1004100080937C0080917A00806480937A00809140
:100420007A0086FDFCCF8091780090917900089544
:100430003FB7F89480913E0190913F01A091400117
:10044000B091410126B5A89B05C02F3F19F0019638
:10045000A11DB11D3FBFBA2FA92F982F8827BC011E
:10046000CD01620F711D811D911D42E0660F771F46
:10047000881F991F4A95D1F708952FB7F894609176
:100480003A0170913B0180913C0190913D012FBF59
:100490000895CF93CFB7F89480913801811124C08B
:1004A000EAE9F0E08491EEEAF0E09491E82FF0E0E0
:1004B000EE0FFF1FEA57FF4FA591B491EC91E9238E
:1004C00021F461E08AE00E94A6008AE00E94870091
:1004D0008CB580618CBD8CB580648CBD8DE00E9434
:1004E00087008BE00E948700809138018F5F8093A6
:1004F0003801CFBFCF9108959B01AC01220F331F6C
:10050000441F551F60E074E284EF90E00E944711A1
:100510003093870020938600E1E8F0E08081887FB7
:100520008160808381E008950F931F93CF93DF93C1
:10053000D82FC62F0E948700C11108C060E08D2F00
:10054000DF91CF911F910F910C94A600CF3F11F432
:1005500061E0F5CFED2FF0E0E859FF4FE491E33093
:1005600049F128F4E23091F0C7FFE8CFF1CFE43051
:10057000F1F1E830C9F78091B00080628093B0005B
:10058000A091B300B0E004EB10E007C084B5806236
:1005900084BDA7B5B0E008E410E02C2F30E00E9445
:1005A00069112FEF30E040E050E00E944711F80160
:1005B000208318C080918000806880938000A09183
:1005C0008600B091870008E810E02C2F30E00E94F0
:1005D00069112FEF30E040E050E00E944711F80130
:1005E00031832083DF91CF911F910F9108958091E6
:1005F0008000806280938000A0918600B091870087
:100600000AE810E0E2CF8F929F92AF92BF92CF9212
:10061000DF92EF92FF92CF93DF93EC01EE8DFF8D8F
:10062000C080D180E280F380CEA2DFA2E8A6F9A646
:10063000EC8DFD8D80819181A281B3818AA79BA7DA
:10064000ACA7BDA78EA89FA8A8ACB9ACA501940182
:10065000C701B6010E94441318162CF48EA29FA263
:10066000A8A6B9A60CC08AA89BA8ACA8BDA8A5013D
:100670009401C701B6010E94E51187FDEFCFDF911C
:10068000CF91FF90EF90DF90CF90BF90AF909F9071
:100690008F9008952F923F924F925F926F927F9228
:1006A0008F929F92AF92BF92CF92DF92EF92FF9282
:1006B0000F931F93CF93DF93EC016A017B014801F5
:1006C0005901A9019801CB01B6010E94441387FF8B
:1006D0004FC0CAAADBAAECAAFDAA8EAA9FAAA8AEFE
:1006E000B9AE8AAD882309F443C02E8C3F8CF1014A
:1006F0004080518062807380A3019201C501B801DE
:100700000E94E51187FF1AC0F10180829182A282C6
:10071000B3828EA09FA0A8A4B9A4CEA8DFA8E8ACFD
:10072000F9ACA7019601C501B4010E944413181643
:100730009CF4CEA2DFA2E8A6F9A61AC0A3019201FA
:10074000C701B6010E94441318161CF7F101C082BC
:10075000D182E282F382DDCFCAA8DBA8ECA8FDA893
:10076000A7019601C501B4010E94E51187FDE1CF03
:10077000DF91CF911F910F91FF90EF90DF90CF907D
:10078000BF90AF909F908F907F906F905F904F90B1
:100790003F902F9008958F929F92AF92BF92CF92E9
:1007A000DF92EF92FF92CF93DF9316161706ACF508
:1007B000EC016B01770FEE08FF08C701B6010E943C
:1007C00094124B015C016EA57FA588A999A90E948E
:1007D00092129B01AC01C501B4010E94EA114B01C8
:1007E0005C01AC019B01688979898A899B890E9497
:1007F0004913688B798B8A8B9B8BA50194016C893B
:100800007D898E899F890E94EA116C8B7D8B8E8BEE
:100810009F8BCEA6DFA6E8AAF9AADF91CF91FF9021
:10082000EF90DF90CF90BF90AF909F908F90089502
:100830002F923F924F925F926F927F928F929F92F0
:10084000AF92BF92CF92DF92EF92FF920F931F93DE
:10085000CF93DF93CDB7DEB760970FB6F894DEBFC6
:100860000FBECDBFDC01DA96BC91BD83B1111BC0B8
:100870001D828D8160960FB6F894DEBF0FBECDBF8E
:10088000DF91CF911F910F91FF90EF90DF90CF906C
:10089000BF90AF909F908F907F906F905F904F90A0
:1008A0003F902F900895988B8F870E9418026E8337
:1008B0007F8388879987EF85F88982A193A1A4A176
:1008C000B5A14E815F8168857985481B590B6A0BFC
:1008D0007B0B86A597A5A0A9B1A9481759076A0758
:1008E0007B0730F2048CF58DE02D80819181A2810F
:1008F000B38189839A83AB83BC83AF85B889909693
:10090000ED91FC9129813A814B815C8160817181FB
:10091000828193810E9478114B015C01EF85F889F7
:1009200022A533A544A555A569817A818B819C8137
:100930000E9478116B017C01AF85B88950962D918A
:100940003D914D915C915397C501B4010E944913AB
:10095000EF85F88926A137A140A551A50E947911FC
:100960002B013C01AF85B88996964D925D926D92B0
:100970007C929997DB96BC91BA87B11118C0EF852C
:10098000F8892485358546855785C701B6010E94BB
:1009900049139B01AC01C301B2010E947811AF85DC
:1009A000B88996966D937D938D939C939997EF85D7
:1009B000F88946A057A060A471A416A907A930AC75
:1009C00021AC212F302F432D522DC301B2010E94A3
:1009D000441318160CF076C0812F902FA32DB22D42
:1009E000EF85F88986A397A3A0A7B1A7FA85FF236F
:1009F00009F481C0AF85B8891C962D913D914D9128
:100A00005C911F97C501B4010E9449134B015C0121
:100A1000EF85F8892489358946895789C701B60148
:100A20000E9449139B01AC01AF85B88996966D91E0
:100A30007D918D919C9199970E947811A5019401C7
:100A40000E9479116B017C019B01AC01612F702F19
:100A5000832D922D0E94E51187FD14C0EF85F88942
:100A600012A903A934A825A8212F302F432D522DD8
:100A7000B601C7010E94E51187FD04C01C2D0D2D94
:100A80003E2C2F2CAF85B8895E96ED91FC91812F7D
:100A9000902FA32DB22D80839183A283B38389816C
:100AA0009A81AB81BC81EF85F88982A793A7A4A71F
:100AB000B5A78E819F81A885B98582A393A3A4A39E
:100AC000B5A3D7CEAF85B889D2968D919D910D9063
:100AD000BC91A02D8B879C87AD87BE879C01AD0103
:100AE000C301B2010E94E51187FF80CF8B859C85F1
:100AF000AD85BE8575CF812C912C540189CF61E0E5
:100B0000FC0180810C94A60020E52CBD21E02DBDC8
:100B100060E0FC0180810C94A6008EBD00000DB445
:100B200007FEFDCF8EB50895CF93DF93D82FC62F44
:100B300088E192E00E94840582E00E948D058D2F5D
:100B40000E948D058C2F0E948D0588E192E0DF9137
:100B5000CF910C947F05FF920F931F93CF93DF9358
:100B6000C82FF62E172F042F88E192E00E948405EB
:100B700083E00E948D058C2F0E948D05CF2DD12FF3
:100B80000C0F1D2F111DC017D10729F080E00E9406
:100B90008D058993F8CF88E192E0DF91CF911F9185
:100BA0000F91FF900C947F05FF920F931F93CF93AB
:100BB000DF93EC01F62E042F122F0E94840585E0AE
:100BC0000E948D058F2D0E948D05802F0E948D051E
:100BD000812F0E948D05CE01DF91CF911F910F9142
:100BE000FF900C947F05DF92EF92FF920F931F937B
:100BF000CF93DF937C01C62FD42E152F022F0E9496
:100C0000840582E00E948D058C2F0E948D05CD2DDC
:100C1000D12F0C0F1D2F111DC017D10721F0899165
:100C20000E948D05F9CFC701DF91CF911F910F91E0
:100C3000FF90EF90DF900C947F051F93CF93DF938D
:100C4000EC01162F0E94840583E00E948D05812F00
:100C50000E948D0580E00E948D05182FCE010E9414
:100C60007F05812FDF91CF911F910895CF92DF9261
:100C7000EF92FF92CF93C82F282F40EE6FE088E1CC
:100C800092E00E94D4050E943D026B017C012AE0A3
:100C9000C20ED11CE11CF11C0E943D026C157D05A9
:100CA0008E059F0590F46EE088E192E00E941D069B
:100CB000807EC813F1CF81E091E0892790E0CF9149
:100CC000FF90EF90DF90CF90089580E0F5CFBF9236
:100CD000CF92DF92EF92FF920F931F93CF93DF9308
:100CE00000D000D01F92CDB7DEB78C01000F111FCE
:100CF000000F111FF801EE5EFE4F45E0BE016F5F71
:100D00007F4F81810E94AB058A81C98098E0C99E8E
:100D100060011124282F30E055E0359527955A952C
:100D2000E1F7C20ED31E0D2C000CEE08FF0883FF66
:100D300020C092E0CC0CDD1CEE1CFF1C9A95D1F774
:100D40008370C80ED11CE11CF11CFE2CED2CDC2C98
:100D5000CC248B81C80ED11CE11CF11CFE2CED2C87
:100D6000DC2CCC248C81C80ED11CE11CF11C6894B5
:100D7000F7F88D818F70B82EE8E081E090E0EB15F8
:100D800048F1F801EE5EFE4F608188E192E00E943A
:100D90001D0683FF02C06894F6F8C0920802D09244
:100DA0000902E0920A02F0920B02B0920C020E5E6F
:100DB0001E4F4B2D60E172E0F80182810E94AB056D
:100DC00020E0F80143816CE288E192E00E94D405C2
:100DD00090E080E00F900F900F900F900F90DF91B8
:100DE000CF911F910F91FF90EF90DF90CF90BF9028
:100DF0000895CF9388E192E00E94840580EA0E94E2
:100E00008D0580E00E948D05C82F88E192E00E9448
:100E10007F0590E080E0C0FD04C0C1FF05C081E017
:100E200090E0CF910C94670685E090E0CF91089513
:100E30004F925F926F927F928F929F92AF92BF92EA
:100E4000CF92DF92EF92FF920F931F93CF93DF9396
:100E5000CDB7DEB74C0127013801DC015F965C930A
:100E60004E935E975D967C936E935C9791963C93C0
:100E70002E939097DA961C92FC0112AA13AA14AA38
:100E800015AA80E090E0AFE7B3E486AB97ABA0AFE4
:100E9000B1AF84E690E0A0E0B0E086A797A7A0AB52
:100EA000B1AB118E108E20E030E0A901C801B7016E
:100EB0000E94E51187FD53C020E030E0A901C60182
:100EC000B5010E94E51187FD4AC020E030E0A9018C
:100ED0006B897C898D899E890E94E51187FD3FC0C1
:100EE00081E090E0D4015B969C938E935A97DB96B9
:100EF0008C93DB97F4014082518262827382149654
:100F0000AD92BD92CD92DC9217978B899C89AD8969
:100F1000BE8980879187A287B38744865586668677
:100F200077862DEC3CEC4CEC5DE3C601B5010E94EC
:100F30004913F401608B718B828B938B2DEC3CEC0D
:100F40004CEC5DE36B897C898D899E890E94EA1156
:100F5000D40154966D937D938D939C9357970E94E3
:100F60001802F401C6A4D7A4E0A8F1A86C197D0961
:100F70008E099F0962A373A384A395A3DF91CF91E8
:100F80001F910F91FF90EF90DF90CF90BF90AF90A7
:100F90009F908F907F906F905F904F900895CF9229
:100FA000DF92EF92FF920F931F93CF93E82F880F5A
:100FB000FF0BE859FF4FE4918DEF8E0F823068F4FC
:100FC00060E177E280E090E0CF911F910F91FF9078
:100FD000EF90DF90CF900C947C0280E0E83079F5C0
:100FE000C0E083E090E0C12C34E2D32E34EFE32E56
:100FF000F12CCF5FEC2FF0E0EE0FFF1FED5DFE4F09
:101000000081118108171907A0F39801A0E2BEE43E
:101010000E9469119B01AC01C701B6010E944711F2
:10102000C8012F3F310509F020F72093B3008091CC
:10103000B100887FC770C82BC093B10081E0CF9109
:101040001F910F91FF90EF90DF90CF9008954F92F6
:101050005F926F927F928F929F92AF92BF92CF9248
:10106000DF92EF92FF920F931F93CF93DF93CDB751
:10107000DEB763970FB6F894DEBF0FBECDBF6C012D
:1010800086E0ECE0F1E0DE011E9601900D928A957B
:10109000E1F73E018EE0680E711C4E01E4E18E0E18
:1010A000911CF301E190F1903F018701000F111FA6
:1010B000F801EE0DFF1DE65EFE4FB0806B2D88E15E
:1010C00092E00E941D0683FD8DC0F6018081918112
:1010D000A281B381AC01BD01442777FD439555271B
:1010E00066277727242FAC01BD01442755276627A3
:1010F000707444244A94542C642CFFE17F2E2111F7
:1011000006C044244A94E7E05E2E612C712C8421B1
:101110009521A621B721222309F456C08C839B83F5
:10112000CD01AA27BB27282F23702860382F330F23
:10113000330F330F307E232B2A8335E09695879526
:101140003A95E1F78983F601A4808A2D452B462B39
:10115000472B09F080648D834A2D50E0B601685F0B
:101160007F4FCE0106960E94D01325E02A0D0E0D6A
:101170001F1DF801E65EFE4FAE014F5F5F4F6181BC
:1011800088E192E00E94F30528E048E06B2D88E1B9
:1011900092E00E94D40590E080E063960FB6F89448
:1011A000DEBF0FBECDBFDF91CF911F910F91FF909A
:1011B000EF90DF90CF90BF90AF909F908F907F90F7
:1011C0006F905F904F9008959C0193E0369527951E
:1011D0009A95E1F729838295880F807E8A831C8205
:1011E0001B82B1CF6814790409F05BCF84E090E0F2
:1011F000D4CFCF93DF93CDB7DEB767970FB6F89410
:10120000DEBF0FBECDBFFE013896E87FB0E0A0E0A4
:1012100080839183A283B38381E084836087CF013D
:101220000E94270867960FB6F894DEBF0FBECDBFA9
:10123000DF91CF910895CF93DF93CDB7DEB7679756
:101240000FB6F894DEBF0FBECDBFFE013896E87F23
:10125000B0E0A0E080839183A283B38382E08483A3
:1012600060874187CF010E94270867960FB6F894E0
:10127000DEBF0FBECDBFDF91CF9108951F920F92B9
:101280000FB60F9211242F933F938F939F93AF9399
:10129000BF9380913A0190913B01A0913C01B091A4
:1012A0003D013091390123E0230F2D3758F5019688
:1012B000A11DB11D2093390180933A0190933B0108
:1012C000A0933C01B0933D0180913E0190913F017C
:1012D000A0914001B09141010196A11DB11D8093E3
:1012E0003E0190933F01A0934001B0934101BF9113
:1012F000AF919F918F913F912F910F900FBE0F90C3
:101300001F90189526E8230F0296A11DB11DD2CF7C
:10131000CF93DF93CDB7DEB7A7970FB6F894DEBFB4
:101320000FBECDBFCE0108969C01287F3FA32EA300
:10133000789484B5826084BD84B5816084BD85B5B0
:10134000826085BD85B5816085BD80916E008160BC
:1013500080936E0010928100809181008260809362
:101360008100809181008160809381008091800064
:101370008160809380008091B10084608093B1008F
:101380008091B00081608093B00080917A00846089
:1013900080937A0080917A00826080937A008091B5
:1013A0007A00816080937A0080917A0080688093CF
:1013B0007A001092C100809180008C7F8093800021
:1013C00080918100877E80618093810064EF71E06D
:1013D00080E090E00E947C028091B0008C7F816070
:1013E0008093B0008091B10088608093B10010E0DC
:1013F0008EE390E0812C74E2972E74EFA72EB12C2F
:101400001F5FE12FF0E0EE0FFF1FED5DFE4FE0806C
:10141000F180E816F906A0F39701A8EEB3E00E9468
:1014200069119B01AC01C501B4010E944711C701BC
:101430002F3F310509F020F72093B3008091B100D0
:10144000887F1770182B1093B1008AE00E94CF0795
:10145000682E8093430183E00E94CF07782E80930B
:1014600042018AE00E94870083E00E9487008BE0AF
:101470000E9487008CE00E94870060E08AE00E9462
:10148000A60060E083E00E94A60060E08BE00E947E
:10149000A60060E08CE00E94A6000E94490288E15C
:1014A00092E00E94840580EC0E948D0588E192E024
:1014B0000E947F050E9418024B015C015AE0C52E74
:1014C000D12CE12CF12C0E941802681979098A09A3
:1014D0009B09683E734081059105A8F331E0C31A6A
:1014E000D108E108F10888EE880E83E0981EA11C5F
:1014F000B11CC114D104E104F10429F78E01085E86
:101500001F4F8EE0F80111928A95E9F72EE0A801AD
:1015100060E388E192E00E94F3052EE0A80160E418
:1015200088E192E00E94F3052EE0A80160E588E1E1
:1015300092E00E94F30560E080E60E94940560E07E
:1015400080E70E94940563EA8BE20E94940524E000
:1015500044E660E688E192E00E94D40520E040E69F
:1015600060E788E192E00E94D40580E80E94360698
:10157000892B61F460E08AE20E94940560EF89E2C1
:101580000E94940566E888E20E94940580E00E942B
:10159000360680918701811104C08DE491E00E949C
:1015A000030381E08093870100E010E02AE733E441
:1015B00040E050E06AE773EC8DE491E00E944A035A
:1015C00061E070E08DE491E00E94CB038091CF0157
:1015D000811104C085E991E00E94030381E08093BA
:1015E000CF0100E010E024EC33E440E050E065E49B
:1015F00073E485E991E00E944A036AE070E085E9BE
:1016000091E00E94CB03662071F1772061F110E038
:10161000F6E9CF0ED11CE11CF11C163000F50E943A
:101620003D02C616D706E806F906B8F780911902FA
:1016300090911A02892B51F483E090E00E944E01B0
:101640000E943D026B017C011F5FE2CF90E080E0D1
:101650000E944E010E943D026B017C01D9CF90E0B7
:1016600080E00E944E010E943D0268517C4F8F4FE6
:101670009F4F609308017093090180930A01909332
:101680000B0144E6242E312C0E94F906892B59F5D2
:101690008091080290910902A0910A02B0910B0278
:1016A000803F9105A105B10581F480911002803F32
:1016B000D1F4809111028631B1F481E0809304026B
:1016C00087E090E00E944E010EC080319105A10597
:1016D000B10509F079C080911002882309F482C015
:1016E00081E08093030280910402882309F49FC162
:1016F0000E943D02AB01BC018091F1019091F20189
:10170000A091F301B091F4018C599F4FAF4FBF4F9F
:1017100084179507A607B707A8F580E10E9406027F
:101720008C019093F0018093EF0181E10E94060209
:101730009093EE018093ED016FEF0115F4E01F0728
:1017400028F41695079516950795602F6093EC0180
:101750004FEF811524E0920728F49695879596958A
:101760008795482F4093EB0180E694E00E941B0987
:101770000E943D026093F1017093F2018093F301A6
:101780009093F4010E94F906892B09F0ACCF809167
:10179000080290910902A0910A02B0910B02803FC9
:1017A0009105A105B10509F09ECF809110028F30FF
:1017B00009F099CF80911102863109F094CF1092EF
:1017C000040290E080E07ECF813724E09207A105FB
:1017D000B105E1F480911002803F09F481CF8F3090
:1017E00009F081CF10920302109202020E943D0282
:1017F000609308017093090180930A0190930B0193
:101800006FE080E794E00E94F9086DCF893191057F
:10181000A105B10549F480911002803F09F063CF22
:1018200060EF86E190E0EFCF81319105A105B10530
:1018300029F4809110028093010255CF803F35E05A
:101840009307A105B10579F48091160290911702D2
:10185000909300028093FF0164E170E00E94B61350
:1018600081EF95E0D0CF8039E2E09E07A105B10578
:10187000B9F480911002803F59F481E08093FE0119
:10188000809111028093FD0160EF80EB92E0BBCF6D
:101890001092FE0190E080E00E944E016FE0F5CFD3
:1018A00080329105A105B10559F580911002803F64
:1018B00009F019CF80911102803F09F014CF0E94E6
:1018C0003D02AB01BC018091F9019091FA01A09118
:1018D000FB01B091FC0188519C4FAF4FBF4F841763
:1018E0009507A607B70740F48091FE01811104C057
:1018F00081E08093F801F7CE6FE080EC92E083CF37
:101900008237F4E09F07A105B10509F061C080911D
:101910001002803FC9F581E08093F70180910601B4
:10192000909107019093F6018093F5018091040155
:1019300090910501B1010E94B613462F61E083E743
:1019400094E00E941B0980911102803F99F58091DB
:1019500004019091050184382CE1920730F48C59F0
:101960009F4F909305018093040180910401909111
:101970000501B1010E94B613462F6091F70183E77C
:1019800094E00E941B09AFCE8F30E9F61092F70168
:101990008091F5019091F6019093070180930601E3
:1019A0008091040190910501B1010E94B613462F68
:1019B00060E0C5CF8F3009F096CE80910401909100
:1019C00005018D3D35E0930780F284569109C9CF1A
:1019D00084379440A105B10509F085CE80911002AD
:1019E000803F09F080CE80911102803F89F44091C0
:1019F000060150910701473F5105B8F44B5F5F4F17
:101A0000509307014093060160EF85E794E0B9CF5A
:101A10008F3009F068CE40910601509107014B3C90
:101A2000510518F045505109EBCF6FE0EECF109102
:101A3000EA01112339F10E943D02AB01BC01809102
:101A4000E6019091E701A091E801B091E9018C597C
:101A50009F4FAF4FBF4F84179507A607B70790F466
:101A600081E080930302612F89E090E00E94F908F1
:101A70000E943D026093E6017093E7018093E801C4
:101A80009093E90180E10E9406026C019093F001BD
:101A90008093EF0181E10E9406028C019093EE0198
:101AA0008093ED01960150E040E0205C310941094E
:101AB0005109AFEFB0E00E943C11A12C65343DEF1D
:101AC00073073FEF8307930784F0AA24AA94611554
:101AD000ACEB7A07A2E08A0791053CF42CEB32E0EC
:101AE00040E050E00E941D11A22EA092EC0198014E
:101AF00050E040E02454334041095109AFEFB0E0D9
:101B00000E943C11B12C683CB2E07B078105910535
:101B10008CF4BB24BA946130E8E37E07EDEF8E07C6
:101B2000EFEF9E073CF028E33DEF4FEF5FEF0E94A1
:101B30001D11B22EB092EB012A2D2B19330BC901C6
:101B400037FF03C091958195910924E6289F700184
:101B5000299FF00C1124F092E5010E943D02AB0197
:101B6000BC018091E1019091E201A091E301B0916B
:101B7000E4010A96A11DB11D84179507A607B707B2
:101B8000E0F480E694E0A0E0B0E0EEA1FFA1808365
:101B90009183A283B38383E08483A086B186F28697
:101BA000CF010E9427080E943D026093E1017093DB
:101BB000E2018093E3019093E401F1EECF16F3E0AC
:101BC000DF0630F081E08093E0011092DF0109C070
:101BD0002CEAC216D10470F481E08093DF011092E8
:101BE000E0010C31110548F481E08093DE01109290
:101BF000DD010CC01092E001E8CF0935134008F474
:101C000047C181E08093DD011092DE018091DD010A
:101C10009091DF01992309F440C1882309F43BC165
:101C20008AE58093EA011091EA01112311F10E94E3
:101C30003D02AB01BC018091D9019091DA01A091E4
:101C4000DB01B091DC018C599F4FAF4FBF4F841720
:101C50009507A607B707B8F481E080930302612FC8
:101C600089E090E00E94F908612F86E794E00E94E5
:101C7000F9080E943D026093D9017093DA018093C4
:101C8000DB019093DC018091F701882391F1609151
:101C900004017091050190E080E00E94921260932F
:101CA000D5017093D6018093D7019093D8016091AC
:101CB000FF017091000290E080E00E949212609318
:101CC000D1017093D2018093D3019093D40185E91F
:101CD00091E00E94180460919101709192018091AD
:101CE0009301909194010E94631270930701609395
:101CF00006010091EF011091F001B80190E080E041
:101D00000E9492126B017C01C0928D01D0928E01D3
:101D1000E0928F01F092900180900601909007016F
:101D2000B12CA12C2CE733E040E050E02819390910
:101D30004A095B098091FE01882309F4CBC0A09178
:101D4000FD01B0E00E943C112FEF30E040E050E098
:101D50000E941D11CA01B901680D791D8A1D9B1DC4
:101D60000E9494126093890170938A0180938B0181
:101D700090938C0185E090E00E944E018DE491E00B
:101D80000E9418042DEC3CEC42EA53E4C701B60172
:101D90000E94E51187FFBAC023E333E345E853E42B
:101DA000C701B6010E94441318160CF0AFC081E0C1
:101DB00080934C0180910302882309F4B5C080917F
:101DC000020281110DC00E943D02609300017093D8
:101DD0000101809302019093030181E0809302024C
:101DE00060E08AE00E94A60060E083E00E94A60016
:101DF0000E943D02AB01BC018091480190914901D4
:101E0000A0914A01B0914B018C599F4FAF4FBF4FEA
:101E100084179507A607B70778F460EF80E794E08A
:101E20000E94F9080E943D026093480170934901A5
:101E300080934A0190934B011092F8011092FE0199
:101E400080914C01811165C00E943D02AB01BC0133
:101E50008091000190910101A0910201B0910301D4
:101E600088519C4FAF4FBF4F84179507A607B70700
:101E700038F466E181E090E00E94F90810920202D5
:101E8000A0E0B0E0AB2B09F4FFCB0E940000F9CB3F
:101E90001092DE01ACCE8BE5C4CE882311F08CE528
:101EA000C0CE8091DE019091E001992331F088232A
:101EB00011F08EE6B6CE8FE6B4CE882311F080E71F
:101EC000B0CE8091E5018A3010F084E6AACE10925F
:101ED000EA01A9CEA0910102B0E00E943C112FEFCF
:101EE00030E040E050E00E941D11CA01B901680DC8
:101EF000791D8A1D9B1D0E94941260938901709325
:101F00008A0180938B0190938C0138CF10924C0101
:101F100051CF0E943D026093480170934901809324
:101F20004A0190934B01ACCF8091F801882309F4CA
:101F30004CC060EF80EC92E00E94F9080E943D02E4
:101F40006B017C01A4E6CA0ED11CE11CF11C0E94AD
:101F50003D026C157D058E059F0530F586E090E00D
:101F60000E944E0180E090E8A2E5B4E480938901EC
:101F700090938A01A0938B01B0938C018DE491E042
:101F80000E94180460E083E00E94A6006091440172
:101F90007091450180914601909147010E94631222
:101FA0008AE00E949402D3CF90E080E00E944E012C
:101FB0001092F8010E943D026093F9017093FA01BA
:101FC0008093FB019093FC015BCF61E08BE00E946A
:101FD000A6008090440190904501A0904601B090E9
:101FE000470120E030E0A901C501B4010E9444137B
:101FF00087FD80C060E083E00E94A60060914401FC
:102000007091450180914601909147010E946312B1
:102010008AE00E9494028090890190908A01A090A9
:102020008B01B0908C012DEC3CEC4CEC5DE3C501D8
:10203000B4010E9449132B013C01AC019B01C50175
:10204000B4010E9479119B01AC01C701B6010E9445
:102050004413181674F0A3019201C501B4010E9443
:1020600078119B01AC01C701B6010E94E51187FF01
:1020700061C0C501B4010E945C129B01AC01AFEFCD
:10208000B0E00E943C112FEF33E040E050E00E94AE
:102090001D11F22E9801AFEFB0E00E9469112FEFF1
:1020A00033E040E050E00E941D114F2D622F88E682
:1020B00096E00E941B090E943D02AB01BC01809189
:1020C000080190910901A0910A01B0910B018C5077
:1020D0009E4FAF4FBF4F84179507A607B70708F06D
:1020E000CFCE81E0809303026AE086E794E00E940D
:1020F000F908C6CE20E030E0A901C501B4010E9474
:10210000E51187FF88CF20E030E0A901C501B401C7
:102110000E944413181624F0B7FAB094B7F8B0949C
:1021200060E08AE00E94A600C501B4010E9463122B
:1021300083E06FCF0E943D02609308017093090114
:1021400080930A0190930B019BCEAF92BF92CF92E6
:10215000DF92EF92FF920F931F93CF93DF938091C3
:102160000601909107019093F6018093F5010E947A
:10217000490287E0809318020E94870088E192E07C
:102180000E947F05C9E1D2E085E08A8386E08B83E7
:1021900089E08C8385E00E9487008B810E94870004
:1021A0008C810E94870061E08A810E94A60061E024
:1021B0008B810E94A60061E08C810E94A60019829A
:1021C00018821F921F921F921F92A12CB12C6501A1
:1021D000E12CF12C00E81FE329E831E044E451E070
:1021E0006DE871E08DE491E00E9418071F921F9244
:1021F0001F921F9257016801E12CF12C00E010E4BE
:1022000025ED31E041E951E061ED71E085E991E0D2
:102210000E9418078DB79EB708960FB6F8949EBF18
:102220000FBE8DBFDF91CF911F910F91FF90EF9067
:10223000DF90CF90BF90AF900895052E97FB1EF4CE
:1022400000940E94341157FD07D00E94471107FCEB
:1022500003D04EF40C94341150954095309521954F
:102260003F4F4F4F5F4F08959095809570956195C2
:102270007F4F8F4F9F4F08950E946911A59F900D2A
:10228000B49F900DA49F800D911D11240895A1E28B
:102290001A2EAA1BBB1BFD010DC0AA1FBB1FEE1FE0
:1022A000FF1FA217B307E407F50720F0A21BB30B2B
:1022B000E40BF50B661F771F881F991F1A9469F7A7
:1022C00060957095809590959B01AC01BD01CF0103
:1022D0000895A29FB001B39FC001A39F700D811DFF
:1022E0001124911DB29F700D811D1124911D08951F
:1022F0005058BB27AA270E9490110C940A130E94E1
:10230000FC1238F00E94031320F039F49F3F19F4B7
:1023100026F40C94F9120EF4E095E7FB0C94F312FA
:10232000E92F0E941B1358F3BA176207730784073B
:10233000950720F079F4A6F50C943D130EF4E09582
:102340000B2EBA2FA02D0B01B90190010C01CA016F
:10235000A0011124FF27591B99F0593F50F4503E1A
:1023600068F11A16F040A22F232F342F4427585F0C
:10237000F3CF469537952795A795F0405395C9F724
:102380007EF41F16BA0B620B730B840BBAF09150DC
:10239000A1F0FF0FBB1F661F771F881FC2F70EC07B
:1023A000BA0F621F731F841F48F48795779567954E
:1023B000B795F7959E3F08F0B0CF9395880F08F03A
:1023C0009927EE0F9795879508950E94CF1208F4EC
:1023D00081E008950E94FE110C940A130E940313D9
:1023E00058F00E94FC1240F029F45F3F29F00C9451
:1023F000F31251110C943E130C94F9120E941B130A
:1024000068F39923B1F3552391F3951B550BBB2723
:10241000AA2762177307840738F09F5F5F4F220F68
:10242000331F441FAA1FA9F335D00E2E3AF0E0E85F
:1024300032D091505040E695001CCAF72BD0FE2FA9
:1024400029D0660F771F881FBB1F2617370748073D
:10245000AB07B0E809F0BB0B802DBF01FF279358F5
:102460005F4F3AF09E3F510578F00C94F3120C94B4
:102470003E135F3FE4F3983ED4F3869577956795D6
:10248000B795F7959F5FC9F7880F911D969587952A
:1024900097F90895E1E0660F771F881FBB1F621749
:1024A00073078407BA0720F0621B730B840BBA0B07
:1024B000EE1F88F7E09508950E9463126894B111A9
:1024C0000C943E1308950E94231388F09F5798F0B0
:1024D000B92F9927B751B0F0E1F0660F771F881F29
:1024E000991F1AF0BA95C9F714C0B13091F00E9443
:1024F0003D13B1E008950C943D13672F782F882782
:10250000B85F39F0B93FCCF3869577956795B39569
:10251000D9F73EF490958095709561957F4F8F4FD8
:102520009F4F0895E89409C097FB3EF490958095DD
:10253000709561957F4F8F4F9F4F9923A9F0F92F89
:1025400096E9BB279395F695879577956795B79507
:10255000F111F8CFFAF4BB0F11F460FF1BC06F5FED
:102560007F4F8F4F9F4F16C0882311F096E911C0FF
:10257000772321F09EE8872F762F05C0662371F020
:1025800096E8862F70E060E02AF09A95660F771F34
:10259000881FDAF7880F9695879597F90895990F10
:1025A0000008550FAA0BE0E8FEEF16161706E8071D
:1025B000F907C0F012161306E407F50798F0621B3E
:1025C000730B840B950B39F40A2661F0232B242B13
:1025D000252B21F408950A2609F4A140A6958FEF32
:1025E000811D811D089597F99F6780E870E060E084
:1025F00008959FEF80EC089500240A94161617069C
:1026000018060906089500240A94121613061406E3
:1026100005060895092E0394000C11F4882352F046
:10262000BB0F40F4BF2B11F460FF04C06F5F7F4FFE
:102630008F4F9F4F089557FD9058440F551F59F0E5
:102640005F3F71F04795880F97FB991F61F09F3F9F
:1026500079F087950895121613061406551FF2CFC8
:102660004695F1DF08C0161617061806991FF1CF18
:1026700086957105610508940895E894BB2766273F
:102680007727CB0197F908950E94CF1208F48FEFB6
:1026900008950E945C130C940A130E94FC1238F0F7
:1026A0000E94031320F0952311F00C94F3120C9464
:1026B000F91211240C943E130E941B1370F3959F82
:1026C000C1F3950F50E0551F629FF001729FBB2729
:1026D000F00DB11D639FAA27F00DB11DAA1F649FC5
:1026E0006627B00DA11D661F829F2227B00DA11D78
:1026F000621F739FB00DA11D621F839FA00D611DFE
:10270000221F749F3327A00D611D231F849F600D1E
:10271000211D822F762F6A2F11249F5750409AF047
:10272000F1F088234AF0EE0FFF1FBB1F661F771FD3
:10273000881F91505040A9F79E3F510580F00C949E
:10274000F3120C943E135F3FE4F3983ED4F3869566
:1027500077956795B795F795E7959F5FC1F7FE2B3E
:10276000880F911D9695879597F90895AA1BBB1B15
:1027700051E107C0AA1FBB1FA617B70710F0A61B81
:10278000B70B881F991F5A95A9F780959095BC01A2
:10279000CD010895EE0FFF1F0590F491E02D0994EF
:1027A000FB01DC0102C001900D9241505040D8F76E
:0627B0000895F894FFCF2C
:1027B600E8030000A406FF00E80300000000010093
:1027C6000200606166017071760230313640414622
:1027D6005051560000010008002000400080000013
:0427E60001000400EA
:107E0000112484B714BE81FFF0D085E080938100F7
:107E100082E08093C00088E18093C10086E0809377
:107E2000C20080E18093C4008EE0C9D0259A86E02C
:107E300020E33CEF91E0309385002093840096BBD3
:107E4000B09BFECF1D9AA8958150A9F7CC24DD24C4
:107E500088248394B5E0AB2EA1E19A2EF3E0BF2EE7
:107E6000A2D0813461F49FD0082FAFD0023811F036
:107E7000013811F484E001C083E08DD089C08234E0
:107E800011F484E103C0853419F485E0A6D080C0E4
:107E9000853579F488D0E82EFF2485D0082F10E0AE
:107EA000102F00270E291F29000F111F8ED06801E7
:107EB0006FC0863521F484E090D080E0DECF843638
:107EC00009F040C070D06FD0082F6DD080E0C81688
:107ED00080E7D80618F4F601B7BEE895C0E0D1E017
:107EE00062D089930C17E1F7F0E0CF16F0E7DF06D8
:107EF00018F0F601B7BEE89568D007B600FCFDCFD4
:107F0000A601A0E0B1E02C9130E011968C91119780
:107F100090E0982F8827822B932B1296FA010C0160
:107F200087BEE89511244E5F5F4FF1E0A038BF0790
:107F300051F7F601A7BEE89507B600FCFDCF97BE46
:107F4000E89526C08437B1F42ED02DD0F82E2BD052
:107F50003CD0F601EF2C8F010F5F1F4F84911BD097
:107F6000EA94F801C1F70894C11CD11CFA94CF0C13
:107F7000D11C0EC0853739F428D08EE10CD085E9AC
:107F80000AD08FE07ACF813511F488E018D01DD067
:107F900080E101D065CF982F8091C00085FFFCCF94
:107FA0009093C60008958091C00087FFFCCF809118
:107FB000C00084FD01C0A8958091C6000895E0E648
:107FC000F0E098E1908380830895EDDF803219F02E
:107FD00088E0F5DFFFCF84E1DECF1F93182FE3DFCA
:107FE0001150E9F7F2DF1F91089580E0E8DFEE27F6
:047FF000FF270994CA
:027FFE00040479
:0400000300007E007B
:00000001FF
