:100000000C9455080C9470230C9449230C94EF2302
:100010000C9495240C9471240C947D080C947D0808
:100020000C947D080C947D080C947D080C947D083C
:100030000C947D080C947D080C947D080C947D082C
:100040000C94FF220C947D080C94BD230C949723F0
:100050000C947D080C947D080C947D080C947D080C
:100060000C947D080C947D08000005800F800A0028
:100070001B801E0014001180338036003C00398044
:1000800028002D8027802200638066006C00698034
:1000900078007D8077807200500055805F805A0024
:1000A0004B804E0044004180C380C600CC00C98014
:1000B000D800DD80D780D200F000F580FF80FA0004
:1000C000EB80EE00E400E180A000A580AF80AA00F4
:1000D000BB80BE00B400B180938096009C009980E4
:1000E00088008D8087808200838186018C018981D0
:1000F00098019D8197819201B001B581BF81BA01BC
:10010000AB81AE01A401A181E001E581EF81EA01AB
:10011000FB81FE01F401F181D381D601DC01D9819B
:10012000C801CD81C781C201400145814F814A018B
:100130005B815E0154015181738176017C0179817B
:1001400068016D8167816201238126012C0129816B
:1001500038013D8137813201100115811F811A015B
:100160000B810E0104010181038306030C03098343
:1001700018031D8317831203300335833F833A032B
:100180002B832E0324032183600365836F836A031B
:100190007B837E0374037183538356035C0359830B
:1001A00048034D8347834203C003C583CF83CA03FB
:1001B000DB83DE03D403D183F383F603FC03F983EB
:1001C000E803ED83E783E203A383A603AC03A983DB
:1001D000B803BD83B783B203900395839F839A03CB
:1001E0008B838E0384038183800285828F828A02BF
:1001F0009B829E0294029182B382B602BC02B982B3
:10020000A802AD82A782A202E382E602EC02E982A2
:10021000F802FD82F782F202D002D582DF82DA0292
:10022000CB82CE02C402C182438246024C02498282
:1002300058025D8257825202700275827F827A0272
:100240006B826E0264026182200225822F822A0262
:100250003B823E0234023182138216021C02198252
:1002600008020D820782020200C201000100110093
:1002700011000C0000E100000A002500250021000B
:10028000009600001900390039003600127A00008B
:100290001F004600460044008070000022004D0010
:1002A0004D004A00004B00003600750075007200DA
:1002B000403800004A009C009C0099008025000006
:1002C0007200EC00EC00E900C0120000E900DA0165
:1002D000DA01D70160090000D701B603B603B30302
:1002E000B0040000B3036E076E076B0758020000EE
:1002F0006E07DC0EDC0ED80E2C010000DC0EC11DDA
:10030000C11DBE1D00000000240027002A000000BF
:1003100000080002010000030407000000000000C4
:100320000000033A0301000080FFFFFF7F2905BCA6
:100330003904420301000080FFFFFF7F2905BC391B
:10034000053B02ACF4FFFF540B00000AD7233C0628
:100350004302ACF4FFFF540B00000AD7233C0939D9
:10036000042CA7FFFFD45800000000803F0A41047E
:100370002CA7FFFFD45800000000803FFFFF0000C3
:100380000000000000000000000000033A0301002C
:100390000080FFFFFF7F2905BC39044203010000F4
:1003A00080FFFFFF7F2905BC39053B0298F4FFFF62
:1003B000680B00000AD7233C06430298F4FFFF684D
:1003C0000B00000AD7233C093904E4C1FFFF1C3E9F
:1003D00000000000803F0A4104E4C1FFFF1C3E0012
:1003E000000000803FFFFF00000000000000000050
:1003F00000000000033A0301000080FFFFFF7F0BB5
:10040000581B3A04420301000080FFFFFF7F0B5896
:100410001B3A053B0298F4FFFF680B00000AD72344
:100420003C06430298F4FFFF680B00000AD7233C08
:100430000939046CEEFFFF941100000000803F0AB0
:1004400041046CEEFFFF941100000000803FFFFFAD
:1004500000000000000000000000000000033A035C
:1004600001000080FFFFFF7FECAD3B3A0442030137
:10047000000080FFFFFF7FECAD3B3A053B02F2F44A
:10048000FFFF0E0B00000AD7233C064302F2F4FFE5
:10049000FF0E0B00000AD7233C093904D4E0FFFF0C
:1004A0002C1F00000000803F0A4104D4E0FFFF2C15
:1004B0001F00000000803FFFFF0000000000000060
:1004C000000000000000033A0301000080FFFFFF6E
:1004D0007FECAD3B3A04420301000080FFFFFF7F49
:1004E000ECAD3B3A053B02E8F4FFFF180B00000AB5
:1004F000D7233C064302E8F4FFFF180B00000AD79D
:10050000233C0939048AEEFFFF76110000000080C9
:100510003F0A41048AEEFFFF761100000000803F91
:10052000FFFF0000000000000000000000000003CA
:100530003A0301000080FFFFFF7F1849333A04426D
:100540000301000080FFFFFF7F1849333A053B029B
:10055000D8F5FFFF280A00000AD7233C064302D83B
:10056000F5FFFF280A00000AD7233C0939044BFA9B
:10057000FFFFB50500000000803F0A41044BFAFF71
:10058000FFB50500000000803FFFFF0000000000F5
:10059000000000000000000009390401F8FFFFFF1F
:1005A000070000F6282C400A410401F8FFFFFF076E
:1005B0000000F6282C40FFFF0000000000000000B3
:1005C000000000000009390478FDFFFF88020000E8
:1005D000F6282C400A410478FDFFFF88020000F64F
:1005E000282C40FFFF000000000000000000000079
:1005F00000000939044FFDFFFFB10200001F85AB69
:100600003F0A41044FFDFFFFB10200001F85AB3FD1
:10061000FFFF0000000000000000000000000009D3
:10062000390457FBFFFFA9040000F6282C400A41BB
:100630000457FBFFFFA9040000F6282C40FFFF0031
:1006400000000000000000000000000009390482E2
:10065000FBFFFF7E0400000000803F0A410482FB94
:10066000FFFF7E0400000000803F053B0201F8FF11
:10067000FFFF070000FA7E6A3E06430201F8FFFF13
:10068000FF070000FA7E6A3EFFFF00000000000046
:100690000000000000000009390401F8FFFFFF0717
:1006A00000003D0A57400A410401F8FFFFFF070020
:1006B000003D0A5740FFFF0000000000000000005E
:1006C0000000000009390457FBFFFFA90400003DAA
:1006D0000A57400A410457FBFFFFA90400003D0AE6
:1006E0005740FFFF00000000000000000000000075
:1006F0000009380400000000FF07000000009040DF
:100700000A4B0400000000FF0F000000009040FFB3
:10071000FF00000000000000000000000000053D98
:100720000200000000FF070000FA7E6A3F06400258
:1007300000000000FF070000FA7E6A3FFFFF000094
:100740000000000000000000000000FFFF000000AB
:100750000000000000000000000007370027F8FF3D
:10076000FFD90700000000803F083E0027F8FFFF88
:10077000D90700000000803FFFFF000000000000DC
:1007800000000000000000033A0301000080FFFFAA
:10079000FF7F29053C3A04420301000080FFFFFF70
:1007A0007F29053C3A053B0298BDFFFF68420000E7
:1007B000EB91023B06430298BDFFFF68420000EB4D
:1007C00091023B093804BCF8FFFF44070000FFE733
:1007D00080410A4104BCF8FFFF44070000FFE780A6
:1007E00041FFFF00000000000000000000000000CA
:1007F000033A0301000080FFFFFF7F29053C3A0414
:10080000420301000080FFFFFF7F29053C3A053BC2
:100810000298BDFFFF68420000EB91023B064302D5
:1008200098BDFFFF68420000EB91023B0938045E6F
:10083000FCFFFFA2030000FFE780410A41045EFCC9
:10084000FFFFA2030000FFE78041FFFF0000000060
:10085000000000000000000000033A0301000080D7
:10086000FFFFFF7F0B589B3A04420301000080FF0B
:10087000FFFF7F0B589B3A053B02C4D7FFFF3C2884
:1008800000009DC1573B064302C4D7FFFF3C280030
:10089000009DC1573B0938048DFAFFFF7305000026
:1008A000FFE780400A41048DFAFFFF73050000FF57
:1008B000E78040FFFF000000000000000000000093
:1008C0000000033A0301000080FFFFFF7FECADBB97
:1008D0003A04420301000080FFFFFF7FECADBB3A0A
:1008E000053B02C0E0FFFF401F00005A55823B0657
:1008F0004302C0E0FFFF401F00005A55823B093809
:1009000004E4FDFFFF1C020000FFE780410A4104F0
:10091000E4FDFFFF1C020000FFE78041FFFF000035
:100920000000000000000000000000033A03010086
:100930000080FFFFFF7FECADBB3A044203010000E3
:1009400080FFFFFF7FECADBB3A053B02C0E0FFFF3D
:10095000401F00005A55823B064302C0E0FFFF40A3
:100960001F00005A55823B09380498FEFFFF6801BA
:100970000000FFE780410A410498FEFFFF68010084
:1009800000FFE78041FFFF000000000000000000C2
:1009900000000000033A0301000080FFFFFF7F6EAC
:1009A00049B33A04420301000080FFFFFF7F6E4914
:1009B000B33A053B02C0E0FFFF401F00001FFC7E72
:1009C0003B064302C0E0FFFF401F00001FFC7E3BD0
:1009D0000938047CFCFFFF84030000FFE780400A25
:1009E00041047CFCFFFF84030000FFE78040FFFF21
:1009F00000000000000000000000000000033A03B7
:100A00000100F0FFFFFF0F005839B43D044203011D
:100A1000000080FFFFFF7F5839B43D053B0201FC19
:100A2000FFFFFF030000FA7E6A3E06430201FCFF5F
:100A3000FFFF030000FA7E6A3E0737008BFCFFFFD2
:100A4000750300000000803F083E008BFCFFFF752F
:100A50000300000000803FFFFF00000000000000D6
:100A6000000000000000033A0300000000FF030044
:100A700000E17A943E04420300000000FF030000FE
:100A8000E17A943E053D0100000000FF070000CD23
:100A9000CCCC3D06400100000000FF070000CDCC9B
:100AA000CC3DFFFF0000000000000000000000003F
:100AB00000033A030090FFFF007000005839B43D76
:100AC0000442030090FFFF007000005839B43D0558
:100AD0003D0200000000FF070000D578E93D064018
:100AE0000200000000FF070000D578E93DFFFF008D
:100AF000000000000000000000000000033A0300B6
:100B0000000000FF030000E17A943E04420300006D
:100B10000000FF030000E17A943E053D0100000063
:100B200000FF070000CDCCCC3D06400100000000D6
:100B3000FF070000CDCCCC3DFFFF0000000000000F
:100B4000000000000000000C002C0112000A001838
:100B5000001C0040007100740075006B0068011DEE
:100B600000360140011E00370141015E01B004A6BC
:100B700004240442042E04380488040604FC036A96
:100B80000460041A041004F203E8037E047404569B
:100B9000044C049C0492040089289408942095082D
:100BA0009518A919A910B411B410B511B500C80150
:100BB000C808D201D208D309D334083E084808D067
:100BC00007DA07E4071026000239660002417E00BA
:100BD00002FF000000102600021A3800011B390035
:100BE000011C3A000139660002417E00025698005D
:100BF00002579A0002589C0002FF000000102600D5
:100C00000239660002417E0002FF0000003F7E00C4
:100C100002FF0000001026000214280004396600BC
:100C200002417E0002FF000000142800043F7E0005
:100C300002FF000000070A00014B4400024E46007C
:100C40000138470002FF0000004B4400024E4600FE
:100C50000138470002FF000000FF00000000000014
:100C60000201020004020600010407000106080058
:100C7000011F090001070A0001090B0001050C0012
:100C80000116140004171800040C1F00010E2000A8
:100C9000020D2200020F2400021026000214280078
:100CA00004112C000412300004133400041A38001C
:100CB000011B3900011C3A00011D3B0001213F00CE
:100CC0000122000201240102012502020126030281
:100CD000011E04020127050201280602012A0C0256
:100CE00002290E02022D1002022C1202022B140203
:100CF000022F1802022E1A02024F22020237240289
:100D000002392602023B280204502C020451300210
:100D1000043A3402044D380202483A0201523B02BE
:100D2000013E3C0202413E020243400204424402B0
:100D30000453480204544C02045550020245520226
:100D40000156580202575A0202585C0202595E02CA
:100D500002FF000000000000020102000402060081
:100D60000104070001060800011F090001090B002A
:100D700001160D0004171100040C1500010E1600D9
:100D8000020D180002141A0004461E000211200071
:100D90000412240004132800041A2C00011B2D0047
:100DA000011C2E00011D2F00012130000122320202
:100DB000012433020125340201263502012A4A02A8
:100DC00002294C02022B5202023A5402043B5802FE
:100DD00004385C02023C5E02044862020142630283
:100DE0000443670204416D0202556F02024571021D
:100DF00001567202025774020258760202597802B2
:100E000002277A03011E7B0301287C0301FF0000F7
:100E100000000000020202000104030001060400B9
:100E2000011F0500010A0600020B080002080B0062
:100E3000010C0C00010D0D00010E0E0001150F003C
:100E4000021E1100012112000122180001231900C5
:100E500001321B0001311C0001301D00013A1E004F
:100E6000023D2000024623000242250002402700E6
:100E7000023F290002442D0001452E0001472F00AA
:100E80000148310001283200014A330002FF00000E
:100E90000000000002010200040206000104070035
:100EA00001060800011F090001070A0001090B00E3
:100EB00001050C0001030D000116140004171800B1
:100EC000040C1F00010E2000020D2200020F24005E
:100ED00002112C00041230000413340004213F00DE
:100EE0000122400001234100011E4400012745006A
:100EF00001284600012A4C0002294E00022D500014
:100F0000022C5200022B5400022F5800022E5A00CD
:100F1000024F620002376400023B680004506C001C
:100F200004517000043A7400044D780002487A00BD
:100F300001527B00013E7C00024380000442840099
:100F40000453880004548C0004559000024592001C
:100F500001FF000000000000020202000104030083
:100F600001060400011F0500010A0600020B08002B
:100F7000020C0B00010D0C00010E0D0001150E00FE
:100F8000021E10000120110001211200011814009E
:100F900002191600012218000123190001321A005B
:100FA00001311B0001301C00013A1E00023D2000EF
:100FB000024622000242240002402600023F28008E
:100FC00002442A0001452B0001472C0001482E0055
:100FD00001492F00014A3000024D3200023C490015
:100FE00001FF0000000000000202020001040300F3
:100FF00001060400011F0500010A0600020B08009B
:10100000020C0B00010D0C00010E0D0001150E006D
:10101000021E1000012011000121120001221800FF
:101020000123190001331A0001341B0001351C0093
:1010300001361D00013A1E00023D2000024622003A
:101040000242240002402600023F280002442A00F7
:1010500001452B0001472C0001482E0001492F00BB
:10106000014A300002FF00000000000000230026BB
:1010700000290000000000250028002B00040404C3
:101080000404040404020202020202030303030331
:10109000030102040810204080010204081020010E
:1010A000020408102000B924033611241FBECFEF1C
:1010B000D8E0DEBFCDBF27E0A6E0B2E001C01D92C0
:1010C000A037B207E1F712E0A0E0B1E0ECEAF7E701
:1010D00002C005900D92A630B107D9F718E0C4E51B
:1010E000D8E004C02197FE010E940738C335D1071C
:1010F000C9F70E943D270C94C93B0C940000CF9285
:10110000DF92EF92FF920F931F93CF93DF93209183
:101110003106222309F401C120912606223009F06C
:10112000D2C020912D0630912E06E0912906F09133
:101130002A06A0912B06B0912C0640912706453532
:1011400009F073C0A901455F5F4F460F571FA417F1
:10115000B50768F46AE070E080E090E0DF91CF913D
:101160001F910F91FF90EF90DF90CF9008958F0126
:10117000075F1F4FDC01680F791FA617B70741F4FF
:1011800030932E0620932D0660E070E0CB01E6CF71
:10119000C90101964D916801C20ED31EE601488334
:1011A0008330910508F17601D2E0ED1AF108E701EC
:1011B00058815F3F61F4219658815F3F41F44D3F74
:1011C00031F4800F911FEC014883C90102964091D0
:1011D0002B0650912C069C01255F3F4F4217530769
:1011E00008F4B8CF9C01C9CF8230910561F4208505
:1011F0002F3F69F721852F3F51F74D3F41F7438737
:1012000083E090E0E4CF8130910561F427812F3FA6
:10121000F1F620852F3FD9F64D3FC9F6428782E08F
:1012200090E0D5CF90E080E0D2CFA901465F5F4F3C
:10123000460F571FA417B50708F48CCF8F01085F1E
:101240001F4FDC01680F791FA617B70709F498CF65
:10125000C90101964D916801C20ED31EE601488373
:101260008330910508F17601D2E0ED1AF108E7012B
:1012700058815F3F61F4219658815F3F41F44D3FB3
:1012800031F4800F911FEC014883C901029640910F
:101290002B0650912C069C01265F3F4F42175307A7
:1012A00008F458CF9C01D0CF8230910581F7278177
:1012B0002F3F69F720852F3F51F74D3F41F7428778
:1012C00083E090E0E4CF213069F5A0912D06B09144
:1012D0002E069B012A0F3B1FA9014A5F5F4FE09139
:1012E0002B06F0912C06E417F50708F433CF2E3FB8
:1012F000310508F02FCFFC01CD010596A0912906FC
:10130000B0912A06A80FB91F6E0F7F1F6E177F07B7
:1013100009F436CF81918D93F9CF62E170E080E0DE
:1013200090E01CCF61E170E080E090E017CF282FC3
:1013300030E090914F07E92FF0E0E35EF94F84A988
:101340008617170659F047E45BE090E0FA01A59193
:10135000B4916A177B07B9F490934F07235E394F16
:10136000F90194AB81E09F3F69F480E042E450E0F2
:1013700060E070E040934B0650934C0660934D063E
:1013800070934E0608959F5F4E5F5F4F9F33F1F657
:101390009FEFE4CF0895833081F028F4813099F0F5
:1013A0008230A9F008958730A9F08830C9F08430E0
:1013B000B1F4809180008F7D03C0809180008F7791
:1013C00080938000089584B58F7784BD089584B597
:1013D0008F7DFBCF8091B0008F778093B000089510
:1013E0008091B0008F7DF9CFCF93DF93282F30E02D
:1013F000F901E25FFC4F8491F901EF56FF4ED49161
:10140000F901E358FF4EC491CC23A1F081110E9451
:10141000CB09EC2FF0E0EE0FFF1FE759FF4EA5912F
:10142000B491EC91ED2381E090E009F480E0DF914C
:10143000CF91089580E090E0FACF1F93CF93DF9390
:10144000282F30E0F901E25FFC4F8491F901EF565B
:10145000FF4ED491F901E358FF4EC491CC23A9F07B
:10146000162F81110E94CB09EC2FF0E0EE0FFF1F29
:10147000ED58FF4EA591B4918FB7F894EC911111EE
:1014800008C0D095DE23DC938FBFDF91CF911F91F1
:101490000895DE2BF8CFCF93DF93D82F60E084E060
:1014A0000E941D0A87E090E00197F1F71EBC000042
:1014B0000DB407FEFDCFCEB587E090E00197F1F7C0
:1014C0006D2F84E00E941D0A8C2FDF91CF9108952B
:1014D0000F931F93CF93DF93CDB7DEB760970FB60F
:1014E000F894DEBF0FBECDBF80E00E944B0A082FEC
:1014F00010E0102F002787E090E00197F1F781E0DE
:101500000E944B0A082BFE01319690E080E0A80172
:10151000082E02C0569547950A94E2F74170419310
:1015200001968031910599F79E858C8598278A854B
:101530009827888598278E8198278C81982781E025
:101540004A81941380E0988998131FC09D858B85EC
:101550009827898598278F8198278D8198278B8157
:10156000982781E04981941380E09F8598130DC0EE
:10157000C8019F7360960FB6F894DEBF0FBECDBF53
:10158000DF91CF911F910F9108958FEF9FEFF2CFD1
:10159000CF930E94680A90936A02809369028091B7
:1015A000690290916A028F3F9807D1F5C230A9F184
:1015B0000E94680A90936A0280936902C2E0EFCFAA
:1015C0009C012B5F31092D3B4AE03407D0F0225BB0
:1015D0003C402B3A4DE03407B8F0205A3F402B3ABC
:1015E0004DE03407A0F0205A3F402B3D354090F0AD
:1015F0008D5B94438F3C974080F486E090E0CF91E0
:10160000089582E090E0FBCF83E090E0F8CF84E0A3
:1016100090E0F5CF85E090E0F2CF90E080E0EFCF72
:101620009C01285C3109293B3D4350F281E090E068
:10163000E6CF61E0809148050C941D0A60E080913E
:1016400048050C941D0ACF93DF9390E0FC01EF5600
:10165000FF4E249183589F4EFC0184918823C9F04A
:1016600090E0880F991FFC01EC5FFC4FA591B491AD
:10167000FC01ED58FF4EC591D49161110DC09FB78B
:10168000F8948C91209582238C9388812823288339
:101690009FBFDF91CF910895623051F49FB7F894C6
:1016A0003C91822F809583238C93E8812E2BEFCF62
:1016B0008FB7F894EC912E2B2C938FBFEACF8E30FE
:1016C00008F08E508770806480937C0080917A004F
:1016D000806480937A0080917A0086FDFCCF8091AF
:1016E000780090917900089580917E050E945F0BAB
:1016F000BC01990F880B990B0E9453362AE939E9EE
:101700004CEC52E40E94AD3828E33AE246E65DE351
:101710000E94B2360E948C39CB0108953FB7F894ED
:101720008091650290916602A0916702B091680273
:1017300026B5A89B05C02F3F19F00196A11DB11D2C
:101740003FBFBA2FA92F982F8827BC01CD01620F68
:10175000711D811D911D42E0660F771F881F991F23
:101760004A95D1F708958F929F92AF92BF92CF92F0
:10177000DF92EF92FF924B015C010E948E0B6B0196
:101780007C010E948E0B6C197D098E099F09683EB1
:10179000734081059105A8F321E0821A9108A10800
:1017A000B10888EEC80E83E0D81EE11CF11C81143C
:1017B0009104A104B10429F7FF90EF90DF90CF903E
:1017C000BF90AF909F908F9008952FB7F89460913D
:1017D00061027091620280916302909164022FBF56
:1017E000089508950895AF92BF92CF92DF92EF923D
:1017F000FF920F931F93CF93DF936C017B018B01BB
:10180000040F151FEB015E01AE18BF08C017D1070A
:1018100059F06991D601ED91FC910190F081E02D94
:10182000C6010995892B79F7C501DF91CF911F91E9
:101830000F91FF90EF90DF90CF90BF90AF90089501
:10184000FC01538D448D252F30E0842F90E0821BC6
:10185000930B541710F0CF96089501970895FC014B
:10186000918D828D981761F0A28DAE0FBF2FB11DA3
:101870005D968C91928D9F5F9F73928F90E00895FB
:101880008FEF9FEF0895FC01918D828D981731F0B5
:10189000828DE80FF11D858D90E008958FEF9FEF09
:1018A0000895FC01918D228D892F90E0805C9F4FDF
:1018B000821B91098F739927089580E895E00E9413
:1018C000510C21E0892B09F420E0822F089580E05B
:1018D00090E0892B29F00E945D0C81110C9400008E
:1018E0000895FC01A48DA80FB92FB11DA35ABF4FB5
:1018F0002C91848D90E001968F739927848FA6890F
:10190000B7892C93A089B1898C91837080648C9362
:10191000938D848D981306C00288F389E02D808111
:101920008F7D80830895EF92FF920F931F93CF9343
:10193000DF93EC0181E0888F9B8D8C8D98131AC00A
:10194000E889F989808185FF15C09FB7F894EE89F1
:10195000FF896083E889F98980818370806480834E
:101960009FBF81E090E0DF91CF911F910F91FF9099
:10197000EF900895F62E0B8D10E00F5F1F4F0F7341
:101980001127E02E8C8D8E110CC00FB607FCFACFFC
:10199000E889F989808185FFF5CFCE010E94710C1D
:1019A000F1CFEB8DEC0FFD2FF11DE35AFF4FF082CD
:1019B0009FB7F8940B8FEA89FB8980818062CFCF33
:1019C000CF93DF93EC01888D8823B9F0AA89BB8976
:1019D000E889F9898C9185FD03C0808186FD0DC061
:1019E0000FB607FCF7CF8C9185FFF2CF808185FF82
:1019F000EDCFCE010E94710CE9CFDF91CF91089518
:101A0000FC0120812EBD9B012150310941F0518103
:101A10000DB407FEFDCF4EB55EBD4193F5CF6150CD
:101A20007109860F971F0DB407FEFDCF2EB5FC017F
:101A300020830895CF93DF9300D01F92CDB7DEB7F8
:101A4000906299838A836B830E941E0B63E070E02F
:101A5000CE0101960E94000D0E94190B0F900F906D
:101A60000F90DF91CF910895CF93DF9300D01F9215
:101A7000CDB7DEB71B82906399838A830E941E0BC9
:101A800063E070E0CE0101960E94000D0E94190BE8
:101A90008B810F900F900F90DF91CF910895CF938E
:101AA000DF93EC014E815F8188E4849F9001859FE4
:101AB000300D1124E881F981E20FF31FDB01019061
:101AC0000D928A95E1F78E859F85A889B98901973E
:101AD000A109B1098E879F87A88BB98B8E819F81C1
:101AE000A885B9850196A11DB11D8E839F83A88706
:101AF000B9874A815B816C817D8184179507A60730
:101B0000B70721F41E821F8218861986DF91CF91B4
:101B10000895CF93DF93EC014A855B8588E4849F29
:101B20009001859F300D1124A881B981A20FB31FA8
:101B3000FB0101900D928A95E1F78A859B85AC8522
:101B4000BD850196A11DB11D8A879B87AC87BD8786
:101B50004A815B816C817D8184179507A607B70751
:101B600021F41A861B861C861D868E859F85A88972
:101B7000B9890196A11DB11D8E879F87A88BB98B4E
:101B80004A895B896C897D89481759076A077B07F1
:101B900020F48A8B9B8BAC8BBD8BDF91CF9108950A
:101BA000883111F158F4803171F18431C1F08C30F9
:101BB00081F469E070E080E090E008958033C9F03E
:101BC0008034E1F0803229F46DE070E080E090E054
:101BD00008958F70682F70E090E080E008956BE0CA
:101BE00070E080E090E008956CE070E080E090E0CC
:101BF00008956EE070E080E090E008956FE070E09E
:101C000080E090E008956AE070E080E090E0089560
:101C1000FC01E60FF11D20813181628170E090E0CE
:101C200080E0CB0177276627732B622B2381922BD1
:101C30000895CF93DF9300D000D000D0CDB7DEB7AA
:101C40001B821C821D821E82906399838A830E945C
:101C50001E0B66E070E0CE0101960E94000D0E940E
:101C6000190B62E0CE0101960E94080E26960FB66F
:101C7000F894DEBF0FBECDBFDF91CF910895FA017A
:101C8000E20FF11D608371838283938308952F9205
:101C90003F924F925F926F927F928F929F92AF92FC
:101CA000BF92CF92DF92EF92FF920F931F93CF9349
:101CB000DF93CDB7DEB7CC54D1090FB6F894DEBFB1
:101CC0000FBECDBF8C0180E790E00E94190E9B01F2
:101CD0003C5F2D963FAF2EAF2D97D8018D909D90F4
:101CE000AD90BC90139714967C907720E1F0D501CD
:101CF000C40122E1B695A795979587952A95D1F7C6
:101D00009770AA27BB273BE0880C991CAA1CBB1C18
:101D10003A95D1F78824E8EF9E22EFE1BE22882A87
:101D2000992AAA2ABB2AD80117962C90822D0E94A4
:101D3000D00D6B017C01772011F06894C4F8F80194
:101D40008581823009F457C0833009F450C0811175
:101D500002C06894C5F8312C23E0220E311C359462
:101D60002794359427942101032C000C66087708EA
:101D7000FE01339688E4DF011D928A95E9F72D96DE
:101D80006EAD7FAD2D977F70706279836A8322E09C
:101D9000AE014F5F5F4FC501B4010E943F0E26E0C8
:101DA000AE014F5F5F4FC701B6010E943F0E780141
:101DB000B8E0EB0EF11C1AE0812C912C5401841434
:101DC0009504A604B704E8F4F7016191719181913B
:101DD00091917F01212FAE014F5F5F4F0E943F0E17
:101DE000FFEF8F1A9F0AAF0ABF0A1C5FE8CF8091EE
:101DF0004C05811103C06894C7F8ADCFF0ECCF2A31
:101E0000AACF0E941E0BB101660F771F660F771FC6
:101E1000665F7F4FCE0101960E94000D0E94190B54
:101E200063E089E690E00E941A0DC45BDF4F0FB6B5
:101E3000F894DEBF0FBECDBFDF91CF911F910F9100
:101E4000FF90EF90DF90CF90BF90AF909F908F90DA
:101E50007F906F905F904F903F902F90089580916A
:101E60004D02882361F09FB7F89420914D02809134
:101E70004702213019F48DBB9FBF08958FBF08958D
:101E800020914D02222381F03FB7F89420914D021A
:101E9000213069F42DB3209347024DB320914C02B9
:101EA000209524232DBB3FBF8CBD9DBD089530934D
:101EB0004702FACF0F931F93CF938C018091440573
:101EC000909145050E94400FF89480916005909193
:101ED0006105A0916205B0916305C1E00097A1057D
:101EE000B10509F4C0E0892B8A2B8B2B29F0B801AE
:101EF00082E595E00E944F0D78940E942F0F8C2F61
:101F0000CF911F910F9108952F923F924F925F9220
:101F10006F927F928F929F92BF92CF92DF92EF92B9
:101F2000FF920F931F93CF93DF93CDB7DEB7CE54BD
:101F3000D1090FB6F894DEBF0FBECDBFFC0197816B
:101F40008581823020F4993090F0B12C28C09930EE
:101F500070F09C3061F0892F8B7F803141F0983197
:101F600031F0892F8F7E803211F0903471F78F011C
:101F700080914405909145050E94400FF894D80146
:101F800016968C911697811163C017969C9180913B
:101F90004D058917F0F4B12C78940E942F0F8B2DEA
:101FA000C25BDF4F0FB6F894DEBF0FBECDBFDF912F
:101FB000CF911F910F91FF90EF90DF90CF90BF9046
:101FC0009F908F907F906F905F904F903F902F9059
:101FD000089580914B05882349F180916A0590917D
:101FE0006B05A0916C05B0916D05409176055091FF
:101FF00077056091780570917905481759076A0748
:102000007B0740F4B80188E695E00E94890DBB2467
:10201000B394C2CF0196A11DB11D80937A05909310
:102020007B05A0937C05B0937D05B5CFC8010E94C8
:10203000470E8CE690E00E94340D80FDE8CF61E908
:1020400088E690E00E941A0D81E080934B05DFCF77
:102050008F3FE9F6F801978180914E05891708F4C2
:102060009ACFB0904A05BB2009F495CF84E590E063
:102070000E94340D84FFA0C06FEE84E590E00E94C2
:102080001A0D88E590E00E94190E1B01FCEF3F1A23
:10209000D8014D905D906D907C90139714969C9014
:1020A0009920E1F0D301C20132E1B695A795979549
:1020B00087953A95D1F79770AA27BB274BE0440C38
:1020C000551C661C771C4A95D1F74424E8EF5E2224
:1020D000EFE17E22482A592A6A2A7B2AD8011796DC
:1020E0008C90882D0E94D00D6B017C01992011F0FD
:1020F0006894C4F8F8018581823009F464C08330A3
:1021000009F45DC0811102C06894C5F8912C23E0E8
:10211000820E911C9594879495948794C401092C00
:10212000000CAA0BBB0B2F968CAF9DAFAEAFBFAF11
:102130002F97FE01339688E4DF011D928A95E9F717
:10214000BFE03B22689435F839822A8222E0AE0152
:102150004F5F5F4FC301B2010E943F0E26E0AE0108
:102160004F5F5F4FC701B6010E943F0E085F1F4FD0
:102170002AE0F22E412C512C32012F968CAD9DADD0
:10218000AEADBFAD2F97481659066A067B0608F517
:10219000D8016D917D918D919D918D012F2DAE0175
:1021A0004F5F5F4F0E943F0EBFEF4B1A5B0A6B0AF7
:1021B0007B0AE4E0FE0EE1CF80FFEDCE62CF80919E
:1021C0004C05811103C06894C7F8A0CFF0ECCF2A6A
:1021D0009DCF0E941E0BB401660F771F660F771FFD
:1021E000665F7F4FCE0101960E94000D0E94190B81
:1021F00063E081E590E00E941A0DCECECF93DF938D
:10220000EC0180914405909145050E94400FF8949F
:10221000CE010E94340DC82F78940E942F0F8C2F6E
:10222000DF91CF9108951F93CF93DF93EC01162F89
:1022300080914405909145050E94400FF894612FCC
:10224000CE010E941A0D7894DF91CF911F910C94CA
:102250002F0FCF92DF92EF92FF920F931F93CF93A6
:10226000DF9300D000D000D0CDB7DEB78C016A017B
:102270007B0180914405909145050E94400FF894A0
:102280001B821C821D821E82106219830A8322E037
:10229000AE014F5F5F4FC701B6010E943F0E0E9423
:1022A0001E0B66E070E0CE0101960E94000D0E94B8
:1022B000190B78940E942F0F26960FB6F894DEBF64
:1022C0000FBECDBFDF91CF911F910F91FF90EF9087
:1022D000DF90CF900895CF93CFB7F89480914602C6
:1022E000811127C0E7E8F0E18491EBE9F0E19491F6
:1022F000E82FF0E0EE0FFF1FEC5FFC4FA591B491CB
:10230000EC91E92321F461E08AE00E941D0A61E07A
:102310008AE00E94230B8CB580618CBD8CB58064F3
:102320008CBD61E08DE00E94230B61E08BE00E9498
:10233000230B809146028F5F80934602CFBFCF91DF
:102340000895DC015196ED91FC9152979081509641
:102350008C91809589238083089520914A02309141
:102360004B022817390781F4909148028091490265
:10237000981751F0E0914802F0E0EA5FFD4F80814C
:10238000082E000C990B08958FEF9FEF0895209170
:102390004A0230914B022817390739F48FB7F89465
:1023A00010924902109248028FBF089520914A026C
:1023B00030914B022817390771F48091490220911E
:1023C000480290E0805C9F4F821B910960E470E0BE
:1023D0000E94D137089590E080E0089520914A024C
:1023E00030914B0228173907B9F490914802809137
:1023F0004902981789F0E0914802F0E0EA5FFD4F4A
:1024000080812091480230E02F5F3F4F2F733327A8
:102410002093480290E008958FEF9FEF08950F9367
:102420001F930E94E50B60935807709359078093A0
:102430005A0790935B0780E597E00E94EE1197FFA3
:102440001DC00E94E50B009158071091590720917B
:102450005A0730915B07601B710B820B930B009145
:102460005407109155072091560730915707601770
:10247000710782079307F8F28FEF9FEF1F910F917B
:10248000089520E001972FEF8F3F9207D9F7089525
:1024900090E080E00895DC014C911196EC91119749
:1024A000F0E0E627EE0FFF1FE859FF4F859194916A
:1024B00020E0342F282739272D933C9308952F921D
:1024C0003F924F925F926F927F928F929F92AF92C4
:1024D000BF92CF92DF92EF92FF920F931F93CF9311
:1024E000DF93E0911D06F0911E06309709F472C04B
:1024F0006115710519F0009709F46CC0E281EE23B3
:1025000009F489C0F0911F066115710519F0009753
:1025100009F415C3EFEFEF0FE23040F081E1C82E70
:10252000D12CE12CF12C90E080E096C249015A01B7
:10253000F093370690933B0680933A0670933D06DE
:1025400060933C0681E080934A060E94E50B2B01D4
:102550003C0113E0212E04E0302E01E0C2E0D0E087
:1025600080911D0690911E06DC01ED91FC91048086
:10257000F581E02D0995181619060CF090C0809190
:102580001D0690911E06DC01ED91FC910680F781FD
:10259000E02D0995BC0180914A06882309F402C305
:1025A000162F80913706823009F01CC2E09149064F
:1025B000EA3008F025C2F0E0E052FD4E0C940738F6
:1025C0001013611375138A139713B613ED13FB13CE
:1025D000CD14D61486E090E0A0E0B0E080934B06E6
:1025E00090934C06A0934D06B0934E0690E080E089
:1025F000DF91CF911F910F91FF90EF90DF90CF90DF
:10260000BF90AF909F908F907F906F905F904F9012
:102610003F902F9008958BE090E0A0E0B0E0DECFF7
:1026200080913506833010F010923506E091350622
:1026300081E08E0F80933506F0E0E35EF94F658B05
:10264000833069F5909133068091340620913206EB
:102650002F3FF1F49F3FE1F48D3FD1F410923F06FC
:1026600010923E0610924306109242066FEF82E4EB
:1026700096E00E944B126FEF82E496E00E944B12AC
:102680006DEF82E496E00E944B120093490607C06A
:102690009093320680933306B2E0B09335060E94E1
:1026A000E50B6419750986099709681579058A0586
:1026B0009B0508F455CF23E0C22ED12CE12CF12C40
:1026C00032CF6D3F51F06093480682E496E00E945D
:1026D0004B12E2E0E0934906E2CF10924906DCE0BB
:1026E000CD2ED12CE12CF12C1ECF6D3F10F06E3F82
:1026F00049F46093360682E496E00E944B122092E1
:102700004906CDCF10924906C4E0CC2ED12CE12C45
:10271000F12C09CFCB019927909341068093400675
:1027200082E496E00E944B1230924906B8CF362FD1
:1027300022278091400690914106822B932B909303
:1027400041068093400682E496E00E944B128091FD
:10275000400690914106039708F01CC2109249066A
:10276000A7E0CA2ED12CE12CF12CDDCE60933806E7
:1027700082E496E00E944B1210923F0610923E06B1
:102780001092390680914006909141061535C1F4AA
:102790008430910518F320913C0630913D062C5F62
:1027A0003F4F2817390740F410924906FAE0CF2E20
:1027B000D12CE12CF12CB7CE86E0809349066FCF67
:1027C00020913C0630913D062D5F3F4F2817390779
:1027D00058F3039771F488E0F0CF6093390682E4F0
:1027E00096E00E944B12809140069091410604971A
:1027F00091F387E0E2CF80913A0690913B06C12C9D
:10280000D12C7601C394009739F410924906E6E082
:10281000CE2ED12CE12CF12C20913E0630913F069A
:10282000A9014F5F5F4F50933F0640933E06820FD2
:10283000931FDC016C9382E496E00E944B1220917E
:102840003806609140067091410680913E06909155
:102850003F06253509F05AC084309105E0F14091DA
:102860003A0650913B069A01280F391FF901349717
:10287000E081EF3F09F047C0F9013397E081EF3F76
:1028800009F041C022503109F90120812D3FD9F5CD
:102890000197480F591FDA012C912D3FA1F5909314
:1028A0003F0680933E0681E090E020913E06309105
:1028B0003F062C5F3F4F820F931F8617970719F42F
:1028C00088E080934906B1E0CB16D104E104F1041D
:1028D00009F4E5CE28CE0397B1F4809139068F3FF5
:1028E00091F4E0913A06F0913B0680818F3F59F4D4
:1028F00081818D3F41F482818D3F29F4D0933F0641
:10290000C0933E06D0CF90E080E0CFCF84309105D9
:1029100058F140913A0650913B069A01280F391F11
:10292000F9013497E081EF3FA9F5F9013397E08190
:10293000EF3F81F522503109F90120812D3F51F5FA
:102940000197480F591FDA012C912D3F19F59093EB
:102950003F0680933E0681E090E020913E06309154
:102960003F062D5F3F4FA7CF0397A1F42F3F91F470
:10297000E0913A06F0913B0680818F3F59F48181C6
:102980008D3F41F482818D3F29F4D0933F06C0935F
:102990003E06E1CF90E080E0E0CF772770934506D8
:1029A00060934406B9E0B093490679CE762F662746
:1029B0002091440630914506622B732B7093450697
:1029C0006093440680914206909143064EE0C42EE7
:1029D000D12CE12CF12C6817790751F5C12CD12CA1
:1029E000760126C0813009F099CD80914906823068
:1029F00009F46FC040F48823C1F1813009F45EC04E
:102A0000109249064CCE843009F49FC008F479C076
:102A10008530B1F780914606809580934606609395
:102A200047063DE0C32ED12CE12CF12C6817B1F202
:102A300010924906C114D104E104F10409F043CF16
:102A400080911F06823009F0A9C080913806853533
:102A500009F025CE82E396E0C0924B06D0924C0658
:102A6000E0924D06F0924E06C3CD8091350682303D
:102A700010F010923506E091350681E08E0F8093BC
:102A80003506F0E0E35EF94F658B823009F007CE42
:102A900080913306909132069F3F49F48F3F39F47D
:102AA00010923F0610923E0610924606EECD80939D
:102AB00032061092330600933506F1CD6F3F09F4CC
:102AC0009FCF6093360680914606680F6093460656
:102AD00000CE9B01332780913C0690913D060296E3
:102AE0008217930708F460CE623008F437CE309333
:102AF00041062093400680914606680F6093460683
:102B0000FECD609338066093390680914606680FC3
:102B10006093460610923F0610923E068091400652
:102B2000909141060297B1F13092490680913A06A0
:102B300090913B06892B09F0B2CD1092490696E0A0
:102B4000C92ED12CE12CF12CEECC80913A0690913B
:102B50003B0620913E0630913F06A9014F5F5F4F33
:102B600050933F0640933E06820F931FDC016C9307
:102B700080914606680F60934606809140069091CA
:102B80004106029720913E0630913F0628173907EB
:102B900009F085CDF5E0F093490681CD813009F04B
:102BA0007ECD58CF82E1C82ED12CE12CF12CBBCCAC
:102BB000CF92DF92EF92FF920F931F93CF93DF9309
:102BC00000D0CDB7DEB780913106882309F4C8C0A4
:102BD000E0912906F0912A0666E070E080E090E03E
:102BE000309709F459C080912606823009F075C0EB
:102BF0001A82198220912B0630912C0680912D0685
:102C000090912E0640912706453539F4AC01455F79
:102C10005F4F2417350708F4ADC00A962817390707
:102C200008F4A8C08FEF808381838DEF82831382A5
:102C30008091250684839091270680912D069535F5
:102C4000B1F58C5F858380912D0690912E060496B8
:102C5000968380912706878380912806808709E0E4
:102C600010E080912D0690912E06080F191F7F010C
:102C70006F01C00ED11ECE14DF0439F58981F60133
:102C800080838A8181830E5F1F4F109330060093EB
:102C90002F0660E070E0CB010F900F90DF91CF9195
:102CA0001F910F91FF90EF90DF90CF9008958D5F6F
:102CB000858380912D0690912E06039696838091B0
:102CC0002706878308E010E0CCCFF70161917F01F0
:102CD000CE0101960E944B12CECF813009F045C043
:102CE00080912D0690912E069C012A5F3F4F4091C6
:102CF0002B0650912C0642175307E0F18E3F9105A9
:102D0000C8F58FEF8083818380912506828380912F
:102D10002D068E5F838380912706853511F480917F
:102D20002806848320912D0630912E06A9014B5F41
:102D30005F4FDF01129680E0BD016E1B7F0B6417B1
:102D4000750758F0E40FF51F809580832A5F3F4F89
:102D50003093300620932F069CCF9D91890FECCFA6
:102D600062E170E080E090E097CF61E170E080E0A8
:102D700090E092CF6AE070E080E090E08DCFCF925B
:102D8000DF92EF92FF92E0912306F0912406A0914A
:102D90002106B091220690911F06109709F46DC08C
:102DA000923049F4EB30F10560F483E1C82ED12C68
:102DB000E12CF12C54C0913009F065C0E630F105EA
:102DC000A0F3809325069093260660932706109221
:102DD0002806B0932A06A0932906F0932C06E093C8
:102DE0002B0610922E0610922D061092300610928D
:102DF0002F0681E080933106B901CA010E947F0845
:102E00006B017C01C114D104E104F10441F50E947D
:102E1000D8156B017C01C114D104E104F104F9F46B
:102E200080911D0690911E0640912F06509130060C
:102E30006091290670912A06DC01ED91FC910284D3
:102E4000F385E02D099520912F06309130068217E9
:102E50009307F9F034E1C32ED12CE12CF12C80E062
:102E6000C0924B06D0924C06E0924D06F0924E0670
:102E7000FF90EF90DF90CF90089526E0C22ED12CE6
:102E8000E12CF12CECCF91E1C92ED12CE12CF12CCD
:102E9000E6CF81E0E5CFCF93DF9300D000D000D024
:102EA000CDB7DEB72FEF3FEF3E832D838E3F31F15D
:102EB00090911F06923079F519821A829B831C82A9
:102EC00024E0E0911D06F0911E06309761F1928199
:102ED000992371F130E0AE014F5F5F4F62E00E94D5
:102EE000BF1681112AC08D819E8126960FB6F89457
:102EF000DEBF0FBECDBFDF91CF91089585E090E09A
:102F0000A0E0B0E080934B0690934C06A0934D0652
:102F1000B0934E06E8CF20E0913099F6198292E006
:102F20009A8322E0CECF86E090E0A0E0B0E0EACF46
:102F30008BE090E0A0E0B0E0E5CF24E130E040E0BD
:102F400050E062E070E0CE0105960E945F12CBCFA8
:102F5000CF93DF93EC018B819C81DC01ED91FC919F
:102F60000680F781E02D099560E08D810E941D0AA1
:102F70008D810E94F409892BD9F7DF91CF910895B3
:102F8000FC0167817085818592850895EF92FF929B
:102F90000F931F93CF93DF93EC018B017A018D8107
:102FA0009E818F3F980741F061E00E941D0A8D814C
:102FB0000E94F4090197D9F78B819C81DC01ED9186
:102FC000FC910280F381E02DA701B80109958C01E5
:102FD0008D819E81019619F0CE010E94A817C8012B
:102FE000DF91CF911F910F91FF90EF9008950F9374
:102FF0001F93CF93DF93EC01162F8D819E818F3F1E
:10300000980741F061E00E941D0A8D810E94F40939
:103010000197D9F78B819C81DC01ED91FC910190A6
:10302000F081E02D612F09958C018D819E810196A3
:1030300019F0CE010E94A817C801DF91CF911F910E
:103040000F910895DC0113968D919C91DC01ED9117
:10305000FC910284F385E02D0994DC0113968D9197
:103060009C91DC01ED91FC910084F185E02D0994A7
:103070000F931F93CF93DF938C01FC01C381D48105
:10308000E881F9810680F781E02DCE010995EA8972
:10309000FB8980818F7E8083EA89FB898081877F9D
:1030A0008083EA89FB8980818F778083EA89FB8925
:1030B00080818F7D80838A8D898FF8011282DF91D4
:1030C000CF911F910F910895CF92DF92EF92FF92CF
:1030D0000F931F93CF93DF938C016A017B01FC0157
:1030E000C782D086E186F286C381D481E889F989D6
:1030F00082E08083C114F1EEDF06E104F104A1F067
:1031000060E079E08DE390E0A70196010E94E53749
:103110002150310941095109569547953795279511
:10312000211580E1380798F0E889F989108260E874
:1031300074E88EE190E0A70196010E94E5372150E6
:103140003109410951095695479537952795EC85E1
:10315000FD853083EE85FF852083188EEC89FD89FF
:1031600086E08083EA89FB89808180618083EA89A7
:10317000FB89808188608083EA89FB8980818068FF
:103180008083EA89FB8980818F7D8083F801858136
:1031900096818F3F980771F061E00E94230B60E0F9
:1031A000F80185810E941D0AF80185810E94F409B9
:1031B000892BD1F781E0F8018283DF91CF911F91B4
:1031C0000F91FF90EF90DF90CF900895DC0117965C
:1031D0004D915D916D917C911A97ED91FC910484D4
:1031E000F585E02D0994CF93DF93CDB7DEB7C854B2
:1031F000D1090FB6F894DEBF0FBECDBF8AE580932C
:10320000010588E4E9EFF4E0DE01119601900D92EA
:103210008A95E1F7CE0101960E94840FC85BDF4FCB
:103220000FB6F894DEBF0FBECDBFDF91CF910895EA
:10323000CF93DF93CDB7DEB7C854D1090FB6F8945A
:10324000DEBF0FBECDBF80EF8093010588E4E9EFBC
:10325000F4E0DE01119601900D928A95E1F7CE011E
:1032600001960E94840FC85BDF4F0FB6F894DEBF53
:103270000FBECDBFDF91CF910895CF93DF93CDB730
:10328000DEB7C854D1090FB6F894DEBF0FBECDBF6C
:103290008FE08093010588E4E9EFF4E0DE01119608
:1032A00001900D928A95E1F7CE0101960E94840F5C
:1032B000C85BDF4F0FB6F894DEBF0FBECDBFDF9106
:1032C000CF910895FC011082118212821382148220
:1032D00083E0858316821782DF011896E85BFF4F33
:1032E0001D92AE17BF07E1F70895CF93DF93CDB7D7
:1032F000DEB7C854D1090FB6F894DEBF0FBECDBFFC
:10330000CE0101960E946219809176059091770511
:10331000A0917805B0917905892B8A2B8B2BA9F088
:10332000BE016F5F7F4F88E695E00E944F0DCE0192
:1033300001960E94470EC85BDF4F0FB6F894DEBFC0
:103340000FBECDBFDF91CF91089560E988E690E090
:103350000E941A0D10924B05EECF2F923F924F9282
:103360005F926F927F928F929F92AF92BF92CF9215
:10337000DF92EF92FF920F931F93CF93DF93CDB71E
:10338000DEB7C559D1090FB6F894DEBF0FBECDBF69
:10339000CE010396CD56DF4F99838883C359D04021
:1033A00080914405909145050E94400F1C821B822C
:1033B00090E39983ECE1EA830E941E0B64E070E0E5
:1033C000CE0101960E94000D0E94190B6B807C803B
:1033D00010E061FEEFC084E690E00E94190E6B01E0
:1033E000CE01855B9F4F0E946219CD56DF4FE88169
:1033F000F981C359D04088E411928A95E9F79CEF8E
:10340000D91AEFE0DE22F0E3DF2AD982CA820E94D5
:103410001E0B6AE470E0CE0101960E94000D62E08E
:10342000CE0101960E94080E2F966CAF7DAF8EAF35
:103430009FAF2F9766E0CE0101960E94080E4B01C8
:103440005C01DC01CB018F709927AA27BB27855F20
:103450009E4FFC01C0806396CFAE6397D12CF3E002
:10346000CF0ED11CD594C794D594C7940D2C000CC5
:10347000EE08FF080BE410E00C0F1D1F085F1F4F44
:103480008AE0CB56DF4F8883C559D040212C312CA0
:1034900021012C143D044E045F0400F5CB56DF4F90
:1034A0006881C559D040CE0101960E94080EF801EE
:1034B00061937193819391938F01FFEF2F1A3F0ACC
:1034C0004F0A5F0ACB56DF4F8881C559D0408C5FC9
:1034D000CB56DF4F8883C559D040DBCF0E94190BF4
:1034E00061E08DE590E00E941A0DD501C4014BE02A
:1034F000B695A795979587954A95D1F78F7162965E
:103500008FAF629785FE61C061961FAE619781E0C3
:10351000B501A401407155276627772784FE80E016
:1035200060968FAF6097452B462B472B31F12F9636
:103530008CAD9DADAEADBFAD2F97AC01BD012BE005
:1035400076956795579547952A95D1F763707727B4
:1035500032E1880F991FAA1FBB1F3A95D1F7882720
:103560009927AC7FBF71842B952BA62BB72B2F9659
:103570008CAF9DAFAEAFBFAF2F97809154059091A8
:103580005505A0915605B0915705409160055091A1
:1035900061056091620570916305481759076A07D4
:1035A0007B0710F5BE01655B7F4F82E595E00E94C9
:1035B000890D11E072FE24C06FEE8CE690E00E944F
:1035C0001A0D0E94751911E01DC081E087FE03C02D
:1035D00086FC05C082E061968FAF619798CF93E03B
:1035E00061969FAF619793CF0196A11DB11D809306
:1035F000640590936505A0936605B0936705D9CFE0
:1036000060FCDFCF62FE06C06BEF8CE190E00E94B1
:103610001A0D11E063FE06C067EF8CE190E00E9496
:103620001A0D11E074FE06C06FEE8DE190E00E946D
:103630001A0D11E073FE0FC0809151058F3F19F0F4
:103640008F5F8093510567EF80E690E00E941A0D2E
:103650000E942F0FA5CE0E942F0F1111A1CECB5685
:10366000DF4F0FB6F894DEBF0FBECDBFDF91CF9115
:103670001F910F91FF90EF90DF90CF90BF90AF9090
:103680009F908F907F906F905F904F903F902F9082
:103690000895E0915206EF3340F4F0E0EE0FFF1F83
:1036A000E95BF44F8591949108958FEF9FEF089512
:1036B000DF92EF92FF920F931F93CF93DF93EC0172
:1036C000898D9A8D892B71F481E090E09B838A83A8
:1036D00090E080E0DF91CF911F910F91FF90EF90EC
:1036E000DF900895162FDFB6F8948B8D81FD29C0E9
:1036F000CE010E94A111898D9A8D05960E944112DA
:103700008B8D98E0E92EF12C01E081FF28C0812FFC
:103710008023F1F0CE010E94A111898D9A8D0E9423
:103720004112000F81E0E81AF10889F7CE010E94EA
:10373000A111DFBE898D9A8D0E94411281E090E037
:10374000C9CFE989FA8980819889892B8083D3CF71
:10375000E989FA8980819889892B8083DECF812F3E
:103760008023B1F0E989FA8980819889892B808347
:10377000898D9A8D0E944112000F81E0E81AF108AC
:1037800071F7E989FA8980819889892B8083D1CF63
:10379000CE010E94A111ECCFCF92DF92EF92FF9267
:1037A0000F931F93CF93DF93CDB7DEB7C854D109E2
:1037B0000FB6F894DEBF0FBECDBF8C0180914405DB
:1037C000909145050E94400FF894C0906005D090FC
:1037D0006105E0906205F090630578940E942F0FD8
:1037E000CD28CE28CF2819F0C8010E945A0FCE014B
:1037F00001960E946219CE0101960E945A0F8823F9
:10380000A9F020914205309143052115310571F051
:103810008F8190E0880F991F820F931FDC01ED913B
:10382000FC91309719F0CE0101960995C85BDF4FE6
:103830000FB6F894DEBF0FBECDBFDF91CF911F91C1
:103840000F91FF90EF90DF90CF900895CF92DF928D
:10385000EF92FF920F931F93CF93DF9300D000D08E
:1038600000D01F92CDB7DEB72C833D834E835F839C
:1038700000911D0610911E061093500600934F06EE
:103880000115110569F480E490E0A0E0B0E08093B8
:103890004B0690934C06A0934D06B0934E0622C063
:1038A000DE01119623E0FD0111922A95E9F7823499
:1038B000F4E09F0709F483C008F084C08633E1E098
:1038C0009E0709F442C198F58E31910509F440C173
:1038D000A8F48231910579F038F48A30910559F0D5
:1038E0000C9749F010E0C1C18C31910521F008F02E
:1038F000FAC04897B9F730E020E00CC08137910555
:10390000D1F358F480349105B1F329E53CE08B36CE
:10391000910541F745EE5FE0EAC08437910510F369
:103920008637910540F38C32914029F3DBCF823FFB
:10393000E3E09E07A9F118F5813421E0920709F42C
:103940000CC158F48733F1E09F0709F406C18034B5
:10395000914041F625E33CE0C8C08836E1E09E078F
:1039600009F4C1C0883EF3E09F07D1F08E35914045
:1039700009F0B8CF30E020E041E15EE0B8C08A3124
:10398000E4E09E0769F078F4863024E0920741F085
:103990008031E4E09E0721F08C3F934009F0A2CFF4
:1039A0002DEF3BE0D7C08E3224E0920741F0883300
:1039B000E4E09E0721F08432944009F093CF2DE09B
:1039C0003CE0C8C0843328E0920709F445C008F001
:1039D00048C08838F4E09F0791F3E8F48036E4E0CB
:1039E0009E0749F058F48C3424E0920721F0863584
:1039F000944009F077CF25ED3BE0ACC08437F4E08C
:103A00009F07C9F38E3724E09207A9F38A369440C2
:103A100009F068CFF0CF803BF4E09F0709F280F413
:103A20008C39E4E09E0749F0863AF4E09F0709F4F8
:103A3000B7CF8239944009F055CF25EC3BE08AC0DE
:103A40008A3DE7E09E0741F0843EF7E09F0721F0C2
:103A5000803D974009F046CF30E020E04DE55CE046
:103A600046C08031E5EB9E07C9F1D0F4883129EAE0
:103A70009207A1F140F48E33F8E09F0769F3883490
:103A8000984051F32FCF8031E4EB9E0739F181311B
:103A9000F4EB9F0709F38931994A09F023CFDCCF72
:103AA0008130E2ED9E07C1F268F4811528EC92079F
:103AB000A9F08130E8EC9E0779F28131954B09F04D
:103AC00011CFCACF883023ED920741F08930E3ED62
:103AD0009E0711F28830924D09F004CF30E020E0CB
:103AE00045E55DE004C030E020E045E55FE070E0E2
:103AF000E4E07E9FC0011124840F951FFC01F49027
:103B00006F112EC03196459154915A834983FC011F
:103B10003396E491EB8380E02115310549F5398135
:103B20002A81FB80FF2009F4DDCEC90199838A83B5
:103B30000115110589F1F8011281112391F180918C
:103B40001F06823099F562E035C029E43CE0CDCF14
:103B500029E23CE041E95EE0CACF25E13CE0FACF52
:103B60007F5FFFEFFF12C4CFD6CF8F5F9F3FB9F2C9
:103B700094E0899FA0011124420F531FFA019491F0
:103B80006913F3CF3196859194919A838983FA01D1
:103B90003396E491EB83C3CF86E090E0A0E0B0E001
:103BA00076CE8BE090E0A0E0B0E071CE61E08130B5
:103BB00009F060E02091230630912406409121060F
:103BC000509122064115510539F0823009F05DC04F
:103BD0002B30310508F060C070E0CD010E947F08F5
:103BE0006F2D70E0CE0104960E947F080E94D815C8
:103BF0006B017C01C114D104E104F10409F069C036
:103C000080911D0690911E0640912F06509130061E
:103C10006091290670912A06DC01ED91FC910284E5
:103C2000F385E02D0995C0924B06D0924C06E092A8
:103C30004D06F0924E06112309F454CE24E630E0EE
:103C400040E050E070E060E090E080E00E945F12B1
:103C5000892B09F447CE80911F068230E1F58091CF
:103C600039068F7711E009F03DCE812F27960FB6E8
:103C7000F894DEBF0FBECDBFDF91CF911F910F91A2
:103C8000FF90EF90DF90CF900895813009F0A4CF9E
:103C90002630310508F4A0CF91E09093250680935B
:103CA000260683E0809327061092280650932A0662
:103CB0004093290630932C0620932B0610922E0653
:103CC00010922D061092300610922F069093310616
:103CD00083CF10E0A8CF813009F004CE809139065F
:103CE000882319F2857209F0C0CFFCCDCF92DF9204
:103CF000EF92FF92CF93C82F6A017B010E94491B6C
:103D00008F3F980771F481E00E944B17BC0181E05E
:103D10000E949709882379F00E94491B8F3F9807DA
:103D200051F0A70196016C2FCF91FF90EF90DF909B
:103D3000CF900C94261C82E490E0A0E0B0E0809349
:103D40004B0690934C06A0934D06B0934E0680E030
:103D5000CF91FF90EF90DF90CF9008958F929F9238
:103D6000AF92BF92CF92DF92EF92FF920F931F9389
:103D7000CF93DF93CDB7DEB72E970FB6F894DEBFA3
:103D80000FBECDBF6B017C010E94491B8C010F3F10
:103D9000100781F481E00E944B17BC0181E00E9472
:103DA0009709882309F458C20E94491B8C01019687
:103DB00009F452C28EE0FE013196DF011D928A9510
:103DC000E9F78FEF89830234B4E01B0709F4EDC0F3
:103DD00008F0F0C00633F1E01F0709F4ABC008F0AB
:103DE00091C00E31110509F4E0C008F06FC0023136
:103DF000110509F468C008F059C00A30110509F42A
:103E000062C00C30110509F45EC0B980FFEFBF1627
:103E100009F42EC28A81843009F02AC22B853C85A0
:103E20004D855E85C701B6010E941A396B017C0180
:103E300020E030E0A9010E94C23920E030E040E0FB
:103E40005FE387FD04C2C701B6010E94AE380E943D
:103E50008C39CB80DC80ED80FE806C157D058E0575
:103E60009F050CF405C2CF80D884E984FA84C61675
:103E7000D706E806F9060CF4FBC19B01AC016B2DDB
:103E8000C8010E94261C2E960FB6F894DEBF0FBE06
:103E9000CDBFDF91CF911F910F91FF90EF90DF90F9
:103EA000CF90BF90AF909F908F9008950C311105E7
:103EB00051F090E080E00D31110508F08AC1083121
:103EC000110509F0A2CF90E080E00DC00137110587
:103ED000D1F360F400341105B1F38BE497E00B36B5
:103EE000110509F092CF2CEF3AE00BC10437110510
:103EF00008F48BCF0637110530F30C32A1E01A0716
:103F000011F383CF023FB3E01B0709F46EC148F5FC
:103F10000134F1E01F0709F45FC178F484EC96E006
:103F20000733A1E01A0709F442C00034B1E01B07CF
:103F300009F06BCF81EF96E04CC10836E1E01E0737
:103F400009F445C1083EF3E01F0709F44EC10E35E0
:103F500081E0180709F059CF90E080E026E63AE0CA
:103F6000D0C00A31A4E01A0709F43CC188F4063035
:103F7000E4E01E0751F00031F4E01F0709F432C1FC
:103F80000C3F83E0180709F040CF8FE196E00FC0A7
:103F90000E32A4E01A0749F00833B4E01B0729F0F9
:103FA0000432E4E01E0709F030CF90E080E02DEF0E
:103FB00039E0A7C00433F8E01F0709F475C008F022
:103FC0004BC00838A4E01A0781F3F8F40036E4E0A7
:103FD0001E0751F060F40C3484E0180729F0063510
:103FE000A4E01A0709F011CF88E995E0E0CF043783
:103FF000B4E01B07C9F30E37E4E01E07A9F30A3645
:10400000F4E01F0709F001CFEFCF003B84E0180771
:1040100009F4E5C078F40C39B4E01B0729F3063A3B
:10402000E4E01E0709F4DBC00239F4E01F0709F0E1
:10403000ECCEDACF0A3D87E0180709F4F5C0043E5C
:10404000A7E01A0709F4F3C0003DB7E01B0709F029
:10405000DCCE84EF93E02AC00031E5EB1E0709F4C3
:10406000D1C038F5083189EA180709F4C1C068F4ED
:104070000E33B8E01B0709F4D4C00834E8E01E078B
:1040800009F0C3CE8DE594E011C00031F4EB1F07B9
:1040900009F4B3C0013184EB180709F4C2C0093137
:1040A000A9EA1A0709F0B1CE8FE295E02AE537E0D8
:1040B00028C00130B2ED1B0709F4B6C078F4011531
:1040C000F8EC1F0709F4A3C0013088EC180709F2C7
:1040D0000131A5EB1A0709F098CED4CF0830B3ED23
:1040E0001B0709F499C00930E3ED1E0709F49FC0CE
:1040F00090E080E020EF37E00830F2ED1F0709F094
:1041000084CE60E0AFE0A9016A9F400D511D1124EB
:10411000FA017491793009F08DC03196E491E98308
:10412000FA01339685909590A590B4908B829C82ED
:10413000AD82BE82FA01379685909590A590B49095
:104140008F829886A986BA86FA013296E491EA832C
:10415000FA013B9645915591659174914B875C8727
:104160006D877E87009709F450CE40E06FE09C0198
:10417000469F200D311D1124F9015491593009F049
:1041800061C03196E491E983F90133968591959167
:10419000A591B4918B839C83AD83BE83F90137963F
:1041A00085919591A591B4918F839887A987BA87B6
:1041B000F9013296E491EA83F9013B968591959154
:1041C000A591B4918B879C87AD87BE871ECE8EE16B
:1041D00097E021EB3AE095CF87E996E0E8CE8CE4D2
:1041E00096E0E5CE82EF95E0E2CE85EC95E0DFCE7D
:1041F00090E080E024E939E084CF90E080E02BE299
:1042000039E07FCF90E080E022EC38E07ACF90E098
:1042100080E029E538E075CF90E080E027E837E0DE
:1042200070CF86EC94E042CF8BE893E03FCF82E200
:1042300093E03CCF6F5F7F3F09F065CF009709F0B7
:1042400094CF16C04F5F5F3F09F091CFDECDC7011D
:10425000B6010E94AD38FBCD82E490E0A0E0B0E072
:1042600080934B0690934C06A0934D06B0934E0658
:1042700080E009CE41E050E060E070E082E20E9420
:10428000761E60E070E08AEF94E40C94AE1E60E06D
:1042900070E088E493EC0E94AE1E64E670E080E07B
:1042A00090E00E94B30B60E070E0CB010E94AE1E74
:1042B00040E050E0BA0182E20C94761ECF92DF9289
:1042C000EF92FF92CF93DF93EC016A017B018CE0C8
:1042D00090E00E94C739FC01118210828FEF97E0B5
:1042E000A0E0B0E482839383A483B583C682D7829F
:1042F000E086F1868AEC99E09387828789819A81AA
:10430000892B71F4FA83E983FC83EB8388818F5FC7
:104310008883DF91CF91FF90EF90DF90CF90089549
:10432000AB81BC81ED93FC93EFCF6F927F928F9224
:104330009F92AF92BF92CF92DF92EF92FF920F9334
:104340001F93CF93DF93EC014A015B016A01483C64
:1043500081E05807D0F428E4249FC001259F900DE8
:1043600011240E94C7393C018C01F12CE12C8FEF04
:10437000E81AF80AC6018E199F0997FD09C0C801FD
:104380000E946219085B1F4FF2CF8FEF9FEFE9CFBA
:10439000688279828A829B82AC82BD821E821F8261
:1043A000188619861A861B861C861D861E861F8601
:1043B000188A198A1A8A1B8A1C8A1D8ADF91CF9152
:1043C0001F910F91FF90EF90DF90CF90BF90AF9033
:1043D0009F908F907F906F900895FC010190002036
:1043E000E9F73197AF01481B590BBC0180E597E015
:1043F0000C94F30B8F929F92AF92BF920F931F93E7
:10440000CF93DF93CDB7DEB7A1970FB6F894DEBF99
:104410000FBECDBF19A2423008F44AE08E010F5DF5
:104420001F4F842E912CB12CA12CA50194010E9428
:10443000E537E62FB901CA01EA30F4F4E05DD801AE
:10444000EE938D01232B242B252B79F790E080E030
:10445000109719F0CD010E94ED21A1960FB6F894A6
:10446000DEBF0FBECDBFDF91CF911F910F91BF90E7
:10447000AF909F908F900895E95CE1CFCF92DF924B
:10448000EF92FF92CF93DF936B017C016DE280E5A9
:1044900097E00E94581BEC0166277727CB016C1927
:1044A0007D098E099F094AE00E94FA218C0F9D1F09
:1044B000DF91CF91FF90EF90DF90CF900895CF9351
:1044C000DF93682F70E090E080E04AE00E94FA21DC
:1044D000EC0183E591E00E94ED218C0F9D1FDF919F
:1044E000CF910895CF93DF930E94ED21EC0183E5F6
:1044F00091E00E94ED218C0F9D1FDF91CF910895D7
:10450000CF93DF93BC01990F880B990B97FF0CC0D9
:104510000E943E22EC0183E591E00E94ED218C0F88
:104520009D1FDF91CF9108954AE00E94FA21F2CFBA
:1045300020916F0230917002232B39F421E0FC01AD
:104540008081882361F020E00AC0BC0180916B0269
:1045500090916C020E94B93B21E0892BA1F7822F38
:1045600008950F931F93CF93DF93EC018881998176
:10457000009759F02A813B812617370730F081E0F8
:10458000DF91CF911F910F9108958B016F5F7F4F46
:104590000E94EC3A009759F0998388831B830A8321
:1045A0002C813D81232B59F7FC011082E8CF80E05C
:1045B000E7CF0F931F93CF93DF93EC018B010E9402
:1045C000B12228813981811112C02115310519F0DC
:1045D000C9010E94633A198218821D821C821B82C3
:1045E0001A82CE01DF91CF911F910F9108951D8303
:1045F0000C8365E571E0C9010E94C23BF2CF1F92B6
:104600000F920FB60F9211242F933F938F939F9386
:10461000AF93BF938091610290916202A091630277
:10462000B09164023091600223E0230F2D3758F5DA
:104630000196A11DB11D20936002809361029093A9
:104640006202A0936302B09364028091650290912C
:104650006602A0916702B09168020196A11DB11D8A
:104660008093650290936602A0936702B0936802FC
:10467000BF91AF919F918F913F912F910F900FBE5E
:104680000F901F90189526E8230F0296A11DB11DCB
:10469000D2CF1F920F920FB60F9211242F933F93F8
:1046A0004F935F936F937F938F939F93AF93BF933A
:1046B000EF93FF93E0910201F09103010995FF91BF
:1046C000EF91BF91AF919F918F917F916F915F918A
:1046D0004F913F912F910F900FBE0F901F90189503
:1046E0001F920F920FB60F9211242F933F934F9367
:1046F0005F936F937F938F939F93AF93BF93EF934A
:10470000FF93E0910001F09101010995FF91EF9174
:10471000BF91AF919F918F917F916F915F914F91D9
:104720003F912F910F900FBE0F901F9018951F92E1
:104730000F920FB60F9211242F933F934F935F93D5
:104740006F937F938F939F93AF93BF93EF93FF9359
:1047500080E895E00E94710CFF91EF91BF91AF91BD
:104760009F918F917F916F915F914F913F912F9189
:104770000F900FBE0F901F9018951F920F920FB6BB
:104780000F9211242F938F939F93EF93FF93E091B8
:104790009005F09191058081E0919605F091970543
:1047A00082FD1BC09081809199058F5F8F7320914E
:1047B0009A05821741F0E0919905F0E0E058FA4F30
:1047C000958F80939905FF91EF919F918F912F91F4
:1047D0000F900FBE0F901F9018958081F4CF1F92FD
:1047E0000F920FB60F921124EF92FF920F931F9327
:1047F0002F933F934F935F936F937F938F939F93E9
:10480000AF93BF93CF93DF93EF93FF93C0914A028F
:10481000D0914B02209749F0EE85FF859D858B8DC9
:1048200081FF1AC080818923D1F4FF91EF91DF913C
:10483000CF91BF91AF919F918F917F916F915F9138
:104840004F913F912F911F910F91FF90EF900F90FB
:104850000FBE0F901F9018958081892331F78B89A7
:104860009C890E94411288E0E82EF12C10E001E0C2
:104870008D899E890E944112EE85FF8580819D85EC
:10488000892339F1102B000F81E0E81AF10881F734
:104890008F89988D0E9441128B8D81FD109580919A
:1048A00049022091480290E001968F7399272817BA
:1048B000190699F0E0914902F0E0EA5FFD4F10839C
:1048C0008091490290E001968F7399278093490265
:1048D000ACCF802F80951823D6CF8B8D81608B8FA6
:1048E000A4CF1F920F920FB60F9211242F933F93D4
:1048F0004F935F936F937F938F939F93AF93BF93E8
:10490000EF93FF930E94EF23FF91EF91BF91AF913F
:104910009F918F917F916F915F914F913F912F91D7
:104920000F900FBE0F901F9018951F920F920FB609
:104930000F9211242F933F934F935F936F937F9325
:104940008F939F93AF93BF93EF93FF930E94EF23B7
:10495000FF91EF91BF91AF919F918F917F916F9157
:104960005F914F913F912F910F900FBE0F901F902D
:1049700018950F931F93109283051092820588EE6D
:1049800093E0A0E0B0E08093840590938505A09328
:104990008605B09387052FE131E0309381052093A0
:1049A000800525EC30E030938D0520938C0524ECB8
:1049B00030E030938F0520938E0520EC30E030936B
:1049C00091052093900521EC30E0309393052093DE
:1049D000920522EC30E0309395052093940526EC67
:1049E00030E0309397052093960510929905109228
:1049F0009A0510929B0510929C05109253071092F5
:104A000052078093540790935507A0935607B0938D
:104A1000570785E491E090935107809350071092D7
:104A20006407109263071092660710926507109250
:104A300068071092670710926A07109269078091C1
:104A40006B078E7F8D7F80936B0761E089E00E940A
:104A5000230B61E089E00E941D0AEAE9F0E1E4919C
:104A6000E0936007E6E8F0E1E491F0E0EE0FFF1F6D
:104A7000ED58FF4E85919491909362078093610762
:104A800060E088E00E94230B80916B0781FD04C0E9
:104A900061E088E00E941D0A88E080935C07E9E9F4
:104AA000F0E1E491E0935D07E5E8F0E1E491F0E006
:104AB000EE0FFF1FE759FF4E8591949190935F078A
:104AC00080935E0782E080931F061092200610926A
:104AD00024061092230610924B0610924C06109258
:104AE0004D0610924E0680EC90E00E94C7399093DC
:104AF000220680932106892B49F080EC90E0909368
:104B000024068093230681E08093200610923106CC
:104B100010924A0610924F078BE090E00E94C7392E
:104B2000FC01128281E391E09183808380E895E02B
:104B30009483838383E090E09683858380E091EE85
:104B4000A0E0B0E087839087A187B287F0935006FA
:104B5000E0934F06309709F08BC186E090E0A0E02B
:104B6000B0E080934B0690934C06A0934D06B09313
:104B70004E064EEF50E06FEF70E081E596E00E9448
:104B8000B23B8EE090E090937F0580937E0560E0DD
:104B90000E94230B61E08DE00E94230B61E08BE01B
:104BA0000E94230B60E08CE00E94230B61E084E014
:104BB0000E94230B61E084E00E941D0A8CB58C7F6B
:104BC00082608CBD8DB581608DBD0E946B1110928D
:104BD00043051092420580E58093440510924505F7
:104BE00081E495E0909347058093460587E08093A4
:104BF000480582E08093490510924A0510924B05C2
:104C000010924C0510924D0510924E0510924F05D2
:104C100010925005109251051092530510925205B2
:104C20001092540510925505109256051092570592
:104C3000109258051092590510925A0510925B0572
:104C400010925C0510925D0510925E0510925F0552
:104C50001092600510926105109262051092630532
:104C60001092640510926505109266051092670512
:104C7000109269051092680510926A0510926B05F2
:104C800010926C0510926D0510926E0510926F05D2
:104C900010927005109271051092720510927305B2
:104CA0001092740510927505109276051092770592
:104CB000109278051092790510927A0510927B0572
:104CC00010927C0510927D0589EF94E00E94621994
:104CD00081EB94E00E94621989E694E00E946219D7
:104CE00081E294E00E94621989ED93E00E946219CA
:104CF00081E993E00E94621989E493E00E946219BD
:104D000081E093E00E94621989EB92E00E946219AF
:104D10000E94E50B85E792E090939C0280939B02B2
:104D200089E792E090939A028093990281E792E05A
:104D300090939E0280939D021092B7021092AF0250
:104D40001092B0021092B1021092B20280E090E094
:104D5000AFE7B3E48093B3029093B402A093B5029B
:104D6000B093B60284E690E0A0E0B0E08093AB029E
:104D70009093AC02A093AD02B093AE021092960253
:104D80001092950281E090E09093980280939702B0
:104D90008093B80280E090E0A0E4B0E480937D02CC
:104DA00090937E02A0937F02B093800240E050E097
:104DB00060EA70E440938102509382026093830220
:104DC0007093840240E050E060E070E4409385021C
:104DD00050938602609387027093880280938902C1
:104DE00090938A02A0938B02B0938C0280E090E0B3
:104DF000A0E0BFE380938D0290938E02A0938F0278
:104E0000B093900280E090E0A0EAB1E48093910238
:104E100090939202A0939302B09394020E94E50BA8
:104E20000091AB021091AC022091AD023091AE0224
:104E3000601B710B820B930B60939F027093A00217
:104E40008093A1029093A20210926C0210926B02C6
:104E500010926E0210926D021092700210926F0208
:104E600070E060E08BE692E01F910F910C94D922E4
:104E7000F0931E06E0931D067CCECF93DF93CDB753
:104E8000DEB7C65FD1090FB6F894DEBF0FBECDBF47
:104E9000789484B5826084BD84B5816084BD85B515
:104EA000826085BD85B5816085BD80916E00816021
:104EB00080936E00109281008091810082608093C7
:104EC00081008091810081608093810080918000C9
:104ED0008160809380008091B10084608093B100F4
:104EE0008091B00081608093B00080917A008460EE
:104EF00080937A0080917A00826080937A0080911A
:104F00007A00816080937A0080917A008068809333
:104F10007A001092C10010926A07109269071092ED
:104F20006807109267071092660710926507109243
:104F300064071092630790E080E0FC01E859FD4FA0
:104F400045915591659174914038554261057105BF
:104F500009F0DAC0FC01E459FD4F259134913093FA
:104F6000640720936307FC01E259FD4F25913491BA
:104F70003093660720936507FC01E059FD4F2591AA
:104F800034913093680720936707FC01EE58FD4F7A
:104F90008591949190936A07809369078091670740
:104FA00090916807892BB1F190915C07963160F57B
:104FB0002091680084E0983048F031E09E3008F499
:104FC00030E081E001C0880F3A95EAF7822B8093A8
:104FD0006800EDE6F0E0983050F0EBE6F0E09E304F
:104FE00030F0ECE6F0E0963110F0F0E0E0E04081E7
:104FF000292F30E0983008F08DC081E001C0880F83
:105000009A95EAF7842B80838091690790916A07CB
:105010000E94411280914A0290914B028055974024
:1050200091F080916B078E7F80936B078FB7F89418
:10503000109249021092480220E537E030934B026B
:1050400020934A028FBF80911D0690911E06909377
:10505000500680934F06009709F069C080E490E005
:10506000A0E0B0E080934B0690934C06A0934D06D1
:10507000B0934E0682E080931F06E0911D06F091EA
:105080001E06309709F45FC08281882309F468C046
:1050900030E020E050E040E061E081E00E94BF1697
:1050A000811163C040E050E0BA0182E20E94761EA6
:1050B0000E94491B863AB4E09B0709F48BC008F0B4
:1050C0004FC18031F4E09F0709F484C008F018C193
:1050D000813431E0930709F47DC008F073C0873351
:1050E00051E0950709F476C0803461E0960721F01D
:1050F0008633914009F07AC041E050E060E070E012
:105100008EE40E94761E72C00C968C39910509F0CF
:1051100014CF44CF9E3040F42850310981E001C0C3
:10512000880F2A95EAF76ECF2E503109F7CFDC01B0
:10513000ED91FC910484F585E02D40E051EE60E0B6
:1051400070E0099597CF86E090E0A0E0B0E0809312
:105150004B0690934C06A0934D06B0934E06A2CFFB
:105160008BE090E0A0E0B0E0F2CF2AE030E040E059
:1051700050E063E070E0CE0102960E945F12892B3E
:1051800009F490CF80913606813009F08BCF898366
:1051900060911F0670E090E080E00E94513620E0B0
:1051A00030E040E85FE30E944C36811105C081E0A9
:1051B0000E944B179B838A836A817B8181E00E94D6
:1051C000970970CF823FA3E09A0721F040F4883E10
:1051D000934061F440E050E0BA0189E092CF8C3F07
:1051E000F3E09F07B9F386309440A1F30E94491B76
:1051F000823124EB920708F017C1803134EB93071A
:1052000090F4843348E0940771F008F0F8C08A3DC8
:1052100067E0960741F0843E77E0970721F0803DF4
:10522000974009F0F6C041E050E060E070E084E2B1
:105230000E94761E41E050E060E070E082E20E9451
:10524000761E10924F0210924E020E94740BBC0107
:10525000990F880B990B0E945336609379027093D3
:105260007A0280937B0290937C0280E090E0A0E63B
:10527000B1E48093710290937202A0937302B09391
:1052800074028091B70200919B0210919C028111DF
:10529000F4C0D801CD90DD90ED90FC90C092A302B7
:1052A000D092A402E092A502F092A602E0919902A7
:1052B000F0919A0280819181A281B3818093A702AB
:1052C0009093A802A093A902B093AA028090B3027F
:1052D0009090B402A090B502B090B602A5019401DE
:1052E000C701B6010E94C23918160CF0B6C08092F0
:1052F000A3029092A402A092A502B092A602BDC001
:105300008A3634E0930709F465CFA8F48C3454E06E
:10531000950709F45FCF28F48A31944009F066CFED
:1053200059CF8635A4E09A0709F454CF80369440CB
:1053300009F05CCF4FCF8E37E4E09E0709F44ACFE7
:1053400028F48437944009F051CF44CF823934E0B7
:10535000930709F43FCF8C39944009F047CF3ACFF7
:10536000823154EB950788F5803164EB960708F09D
:1053700031CF843378E0970709F42CCFA8F4803D2F
:10538000B7E09B0709F426CF28F4803B944009F04E
:105390002DCF20CF8A3D27E0920709F41BCF843E12
:1053A000974009F023CF16CF883448E0940709F4DA
:1053B00011CF28F48E33984009F018CF0BCF8851C5
:1053C000994A029708F012CF05CF823078EC970700
:1053D00040F48115A8EC9A0708F0FCCE8051954B5B
:1053E000F0CF8830B2ED9B0709F4F4CE28F4813079
:1053F000924D09F0FBCEEECE8850934DE2CF88342B
:10540000B8E09B0709F40FCF50F48E33984009F4AD
:105410000ACF41E050E060E070E083E209CF8851BC
:10542000994A0297B0F7FFCE823028EC920740F4F9
:10543000811538EC930708F0F6CE8051954BF1CFEB
:10544000883042ED940709F4EECE20F48130924D7D
:1054500001F7E9CE8850934DE4CF8090AF02909051
:10546000B002A090B102B090B202A5019401C701B0
:10547000B6010E944C3687FD3ACF81E08093B70297
:10548000C12CD12CFAEFEF2EF4ECFF2EC092AF021C
:10549000D092B002E092B102F092B202412C512CB3
:1054A000AAEF6A2EA4E47A2E4092B3025092B4027C
:1054B0006092B5027092B602F80180809180A2805D
:1054C000B380A3019201C501B4010E94C23918162C
:1054D0003CF5D8014D925D926D927C92139780902D
:1054E000A3029090A402A090A502B090A602C09042
:1054F000B302D090B402E090B502F090B602A701DA
:105500009601C501B4010E94C2391816CCF4C092AC
:10551000A302D092A402E092A502F092A60220C0BB
:1055200020E030E04AEF54ECC501B4010E944C3653
:1055300087FFD5CFF801C082D182E282F382CFCF3C
:10554000C090AF02D090B002E090B102F090B202F1
:10555000A7019601C501B4010E944C3687FDD7CF43
:105560006091AB027091AC028091AD029091AE025D
:105570000E9451369B01AC0160E070E080EA90E44B
:105580000E941A396B017C01AC019B0160918D0274
:1055900070918E0280918F02909190020E94B2369B
:1055A00060938D0270938E0280938F02909390028D
:1055B000A7019601609191027091920280919302ED
:1055C000909194020E941A39609391027093920212
:1055D000809393029093940285E090E0A0E0B0E085
:1055E0008093AB029093AC02A093AD02B093AE0255
:1055F0000E946B11812C3BE1932E37EBA32EB12C33
:10560000C751DF4F88829982AA82BB82C95ED0408F
:10561000812C49E0942E4DE3A42EB12CCB51DF4FC9
:1056200088829982AA82BB82C55ED04050E3452E13
:10563000512C612C712C88248A94982C5401CF51C0
:10564000DF4F88829982AA82BB82C15ED040C12C82
:10565000D12C7601D394E4E08E2E912CA12CB12C88
:10566000CB51DF4F288139814A815B81C55ED040B3
:10567000CF51DF4F688179818A819B81C15ED040A3
:10568000621773078407950710F00C94D335CF5138
:10569000DF4F688179818A819B81C15ED040C7518B
:1056A000DF4F288139814A815B81C95ED040621712
:1056B000730784079507B8F024013501C751DF4F00
:1056C00088819981AA81BB81C95ED040CF51DF4FCB
:1056D00088839983AA83BB83C15ED04022E0C22E17
:1056E000D12CE12CF12C9FEF891A990AA90AB90A49
:1056F00065E070E080E090E0A50194010E94E5374C
:10570000A1E38A169104A104B10459F1CB51DF4FF2
:10571000688179818A819B81C55ED04079508D43B3
:105720009109CB51DF4F688379838A839B83C55E60
:10573000D040C751DF4F88819981AA81BB81C95E62
:10574000D0409E5EA548BF4FC751DF4F88839983E5
:10575000AA83BB83C95ED040232B242B252B09F0C1
:105760007FCFC301B20125E030E040E050E00E946D
:10577000E537211531054105510521F421E030E0DF
:1057800040E050E0D301C2010197A109B1094C01E9
:105790005D01821A930AA40AB50ACF51DF4F8882AD
:1057A0009982AA82BB82C15ED040C501B401613238
:1057B000710581059105A8F020523109410951096F
:1057C000260F371F481F591F90E2892E912CA12CBC
:1057D000B12CCF51DF4F88829982AA82BB82C15EF1
:1057E000D040CB50DF4FD982C882C55FD040CF5167
:1057F000DF4FA880B980C15ED040CA9C4001CB9CDD
:10580000900CDA9C900C1124CE50DF4F9982888244
:10581000C25FD040B4016034710540F08FE390E086
:10582000CE50DF4F99838883C25FD040CF51DF4F86
:105830008880C15ED040CC50DF4F8882C45FD040AA
:10584000C351DF4F2883CD5ED04083E0440C551C0C
:10585000661C771C8A95D1F7C301B20125E030E0C0
:1058600040E050E00E94E537D301C2010197A10951
:10587000B109821B930BA40BB50B813061E0960735
:10588000A105B10558F0315041095109280F391FC0
:105890004A1F5B1F80E091E0A0E0B0E0C751DF4FFE
:1058A00099838883C95ED040CF50DF4F2883C15F82
:1058B000D040A701960160E271EA87E090E00E9483
:1058C000C1379B01AC01C301B2010E94C137CB516A
:1058D000DF4F688379838A839B83C55ED0406115DF
:1058E000ADE27A07A1E38A07A1E09A0708F0EBC0CE
:1058F000212C0DE2302E01E3402E55245394261A1C
:10590000370A480A590A612C712C430119821B82FB
:105910001A821D821C821F821E82188640E550E07A
:1059200060E070E0CE0101960E945E2141E051E00E
:1059300060E070E0CE0101960E945E2148EE55E0E5
:1059400060E070E0CE0101960E945E21A0E4AA2EE4
:10595000B2E4BB2E1FE0C12ED12CE12CF12C00E0D3
:1059600010E09101A201B301C4010E940D38190198
:105970002A013B014C01CB51DF4F688179818A813B
:105980009B81C55ED04028EE33E040E050E00E94AD
:10599000653859016A017B018C019101A201B301B3
:1059A000C4010E94903809F010F40C94EB35F4E037
:1059B000CF2ED12CE12CF12CC751DF4F48815981DA
:1059C000C95ED04080E090E0DC014230510520F417
:1059D00084E090E0A0E0B0E0CF50DF4F8880C15F6E
:1059E000D04081107EC08065CF50DF4F3881C15FCD
:1059F000D040832E912CC751DF4F48815981C95E19
:105A0000D0404815590508F49160C351DF4F5881C3
:105A1000CD5ED040252E312CC751DF4F0881198132
:105A2000C95ED0400F5F1F4F080D191D30E020E008
:105A3000CF51DF4F48815981C15ED0404F5F5F4FEA
:105A4000420D531D052E000C660B770BE3E0440F4F
:105A5000551F661F771FEA95D1F70417150726070C
:105A6000370709F09460CC50DF4F5881C45FD040B5
:105A7000523008F49860C351DF4F2881CD5ED0408A
:105A80002150203180F4CC50DF4F6881C45FD0407A
:105A9000C351DF4F7881CD5ED040671720F0892B4E
:105AA0008A2B8B2B11F06894C3F88091490510E084
:105AB000823039F111E0833021F18F3FE1F46894B5
:105AC000E3F81FEF1EC0CB51DF4F88819981AA8177
:105AD000BB81C55ED0409D52A143B1401C012D0148
