:100000000C945D000C9485000C9485000C94850084
:100010000C9485000C9485000C9485000C9485004C
:100020000C9485000C9485000C9485000C9485003C
:100030000C9485000C9485000C9485000C9485002C
:100040000C94AE020C9485000C941E030C94F802E0
:100050000C9485000C9485000C9485000C9485000C
:100060000C9485000C9485000000000025002800F9
:100070002B0000000008000201000003040700003C
:1000800000000000000000000000240027002A00FB
:10009000010204081020408001020408102001021F
:1000A00004081020040404040404040402020202EC
:1000B0000202030303030303810311241FBECFEFD6
:1000C000D8E0DEBFCDBF11E0A0E0B1E0E2E8FEE0A5
:1000D00002C005900D92A832B107D9F721E0A8E23D
:1000E000B1E001C01D92A73DB207E1F710E0CDE5F8
:1000F000D0E004C02197FE010E949B05CC35D107BA
:10010000C9F70E941D040C943F070C94000090E076
:10011000FC01EE58FF4F2491FC01E057FF4F349152
:10012000FC01EC55FF4FE491EE23C9F0222339F096
:10013000233001F1A8F4213019F1223029F1F0E047
:10014000EE0FFF1FE859FF4FA591B4918FB7F894B8
:10015000EC91611126C030953E233C938FBF0895EA
:100160002730A9F02830C9F0243049F78091800069
:100170008F7D03C0809180008F7780938000DFCFD8
:1001800084B58F7784BDDBCF84B58F7DFBCF809125
:10019000B0008F778093B000D2CF8091B0008F7D78
:1001A000F9CF3E2BDACFCF93DF93D82F60E082E0F8
:1001B0000E94870087E090E00197F1F71EBC0000E5
:1001C0000DB407FEFDCFCEB587E090E00197F1F7C3
:1001D0006D2F82E00E9487008C2FDF91CF910895D0
:1001E0000F931F93CF93DF93CDB7DEB760970FB612
:1001F000F894DEBF0FBECDBF80E00E94D300082F71
:1002000010E0102F002787E090E00197F1F781E0E0
:100210000E94D300082BFE01319690E080E0A801F7
:10022000082E02C0569547950A94E2F74170419313
:1002300001968031910599F79E858C8598278A854E
:100240009827888598278E8198278C81982781E028
:100250004A81941380E0988998131FC09D858B85EF
:100260009827898598278F8198278D8198278B815A
:10027000982781E04981941380E09F8598130DC0F1
:10028000C8019F7360960FB6F894DEBF0FBECDBF56
:10029000DF91CF911F910F9108958FEF9FEFF2CFD4
:1002A000AF92BF92CF92DF92EF92FF920F931F9384
:1002B000CF93DF936C017B018B01040F151FEB01C2
:1002C0005E01AE18BF08C017D10759F06991D60179
:1002D000ED91FC910190F081E02DC6010995892BEB
:1002E00079F7C501DF91CF911F910F91FF90EF90AA
:1002F000DF90CF90BF90AF900895FC01538D448D57
:10030000252F30E0842F90E0821B930B541710F0C0
:10031000CF96089501970895FC01918D828D9817CD
:1003200061F0A28DAE0FBF2FB11D5D968C91928DA5
:100330009F5F9F73928F90E008958FEF9FEF0895D6
:10034000FC01918D828D981731F0828DE80FF11D9F
:10035000858D90E008958FEF9FEF0895FC01918DBA
:10036000228D892F90E0805C9F4F821B91098F73B3
:100370009927089587E391E00E94AE0121E0892B3F
:1003800009F420E0822F089580E090E0892B29F085
:100390000E94BA0181110C9400000895FC01A48D03
:1003A000A80FB92FB11DA35ABF4F2C91848D90E097
:1003B00001968F739927848FA689B7892C93A0897A
:1003C000B1898C91837080648C93938D848D981304
:1003D00006C00288F389E02D80818F7D8083089597
:1003E000EF92FF920F931F93CF93DF93EC0181E085
:1003F000888F9B8D8C8D98131AC0E889F98980812C
:1004000085FF15C09FB7F894EE89FF896083E8895E
:10041000F98980818370806480839FBF81E090E050
:10042000DF91CF911F910F91FF90EF900895F62EDD
:100430000B8D10E00F5F1F4F0F731127E02E8C8D77
:100440008E110CC00FB607FCFACFE889F9898081BC
:1004500085FFF5CFCE010E94CE01F1CFEB8DEC0FE1
:10046000FD2FF11DE35AFF4FF0829FB7F8940B8FD9
:10047000EA89FB8980818062CFCFCF93DF93EC0143
:10048000888D8823B9F0AA89BB89E889F9898C917C
:1004900085FD03C0808186FD0DC00FB607FCF7CF38
:1004A0008C9185FFF2CF808185FFEDCFCE010E9438
:1004B000CE01E9CFDF91CF910895FC01019000209A
:1004C000E9F73197AF01481B590BBC0187E391E075
:1004D0000C9450018F929F92AF92BF920F931F93F3
:1004E000CF93DF93CDB7DEB7A1970FB6F894DEBFF9
:1004F0000FBECDBF19A2423008F44AE08E010F5D55
:100500001F4F842E912CB12CA12CA50194010E9487
:100510007905E62FB901CA01EA30F4F4E05DD801AB
:10052000EE938D01232B242B252B79F790E080E08F
:10053000109719F0CD010E945D02A1960FB6F894B4
:10054000DEBF0FBECDBFDF91CF911F910F91BF9046
:10055000AF909F908F900895E95CE1CF1F920F922A
:100560000FB60F9211242F933F938F939F93AF93C6
:10057000BF938091330190913401A0913501B091E6
:1005800036013091320123E0230F2D3758F50196C3
:10059000A11DB11D2093320180933301909334014A
:1005A000A0933501B093360180912E0190912F01D7
:1005B000A0913001B09131010196A11DB11D809330
:1005C0002E0190932F01A0933001B0933101BF9180
:1005D000AF919F918F913F912F910F900FBE0F90F0
:1005E0001F90189526E8230F0296A11DB11DD2CFAA
:1005F0001F920F920FB60F9211242F933F934F9398
:100600005F936F937F938F939F93AF93BF93EF937A
:10061000FF9387E391E00E94CE01FF91EF91BF919C
:10062000AF919F918F917F916F915F914F913F918A
:100630002F910F900FBE0F901F9018951F920F9241
:100640000FB60F9211242F938F939F93EF93FF93E5
:10065000E0914701F09148018081E0914D01F091D6
:100660004E0182FD1BC09081809150018F5F8F737E
:1006700020915101821741F0E0915001F0E0E95CD6
:10068000FE4F958F80935001FF91EF919F918F9135
:100690002F910F900FBE0F901F9018958081F4CF6F
:1006A000CF93DF9390E0FC01E057FF4F24918C55EE
:1006B0009F4FFC0184918823D1F090E0880F991F0F
:1006C000FC01EA57FF4FA591B491FC01E859FF4F97
:1006D000C591D49161110EC09FB7F8948C91E22F0F
:1006E000E0958E238C932881E223E8839FBFDF91DE
:1006F000CF9108958FB7F894EC91E22BEC938FBFD4
:10070000F6CFCF9310923A011092390188EE93E020
:10071000A0E0B0E080933B0190933C01A0933D01A9
:10072000B0933E0184E091E09093380180933701CB
:1007300085EC90E0909344018093430184EC90E039
:10074000909346018093450180EC90E0909348019E
:100750008093470181EC90E090934A018093490196
:1007600082EC90E090934C0180934B0186EC90E0FA
:1007700090934E0180934D011092500110925101BF
:1007800010925201109253018EE090E09093D601A6
:100790008093D50160E00E94500361E08DE00E94EB
:1007A000500361E08BE00E94500360E08CE00E9407
:1007B000500361E082E00E94500361E082E00E9409
:1007C00087008CB58C7F82608CBD8DB581608DBDBE
:1007D000CFB7F8948091D401811127C0EEEAF0E000
:1007E0008491EAE9F0E09491E82FF0E0EE0FFF1F2A
:1007F000EA57FF4FA591B491EC91E92321F461E010
:100800008AE00E94870061E08AE00E9450038CB574
:1008100080618CBD8CB580648CBD61E08DE00E94F0
:10082000500361E08BE00E9450038091D4018F5F00
:100830008093D401CFBFCF910895CF93DF9300D0A1
:100840001F92CDB7DEB7789484B5826084BD84B53D
:10085000816084BD85B5826085BD85B5816085BDBB
:1008600080916E00816080936E0010928100809173
:1008700081008260809381008091810081608093FB
:100880008100809180008160809380008091B10020
:1008900084608093B1008091B00081608093B0004B
:1008A00080917A00846080937A0080917A008260DF
:1008B00080937A0080917A00816080937A008091A1
:1008C0007A00806880937A001092C10010922D0106
:1008D00010922C0110922B0110922A01E0914701F5
:1008E000F091480182E08083E0914301F09144015E
:1008F0001082E0914501F09146018FEC80831092C7
:100900004F01E0914B01F0914C0186E08083E09132
:100910004901F0914A01808180618083E091490121
:10092000F0914A01808188608083E0914901F091D3
:100930004A01808180688083E0914901F0914A01F9
:1009400080818F7D808300E010E08091D5018E3022
:1009500008F08E508770806480937C0080917A00CC
:10096000806480937A0080917A0086FDFCCF80912C
:10097000780060917900762F682F072E000C880B85
:10098000990B0E9446062AE939E94CEC52E40E9490
:10099000A10528E33AE246E65DE30E94D2060E9402
:1009A0000E067B836A8377FF02C01B821A828091C6
:1009B0002C0190912D012A813B8128173907A9F03C
:1009C00030932D0120932C0182E191E00E945D0281
:1009D0002A813B81B901330F880B990B4AE00E94B1
:1009E0006A028DE191E00E945D020E94F000909306
:1009F00029018093280180912801909129018F3F3E
:100A0000980709F06CC04981423009F465C00E9422
:100A1000F000909329018093280182E08983EBCF35
:100A20009C012B5F31092D3B4AE0340708F446C096
:100A3000225B3C402B3A4DE0340708F444C0205A76
:100A40003F402B3A4DE0340708F440C0205A3F4065
:100A50002B3D3540F0F18D5B94438F3C9740E0F5A2
:100A600086E090E09B838A8380912A0190912B01FC
:100A70002A813B8182179307A9F030932B012093A1
:100A80002A0180E291E00E945D022A813B81B90146
:100A9000330F880B990B4AE00E946A028DE191E0C6
:100AA0000E945D020115110509F44FCF0E94BA01A1
:100AB000882309F44ACF0E94000047CF22E030E0AB
:100AC0003B832A83D1CF83E090E0CCCF24E030E099
:100AD000F7CF85E090E0C6CF1B821A82C5CF9C017C
:100AE000285C3109293B3D4308F49ACF21E030E0EE
:100AF000E7CFA1E21A2EAA1BBB1BFD010DC0AA1F46
:100B0000BB1FEE1FFF1FA217B307E407F50720F076
:100B1000A21BB30BE40BF50B661F771F881F991FF1
:100B20001A9469F760957095809590959B01AC013A
:100B3000BD01CF010895EE0FFF1F0590F491E02D48
:100B400009945058BB27AA270E94B9050C9498060F
:100B50000E948A0638F00E94910620F039F49F3FE7
:100B600019F426F40C9487060EF4E095E7FB0C9438
:100B70008106E92F0E94A90658F3BA176207730786
:100B80008407950720F079F4A6F50C94CB060EF4B3
:100B9000E0950B2EBA2FA02D0B01B90190010C018D
:100BA000CA01A0011124FF27591B99F0593F50F4A5
:100BB000503E68F11A16F040A22F232F342F4427FD
:100BC000585FF3CF469537952795A795F0405395F5
:100BD000C9F77EF41F16BA0B620B730B840BBAF0C5
:100BE0009150A1F0FF0FBB1F661F771F881FC2F730
:100BF0000EC0BA0F621F731F841F48F48795779544
:100C00006795B795F7959E3F08F0B0CF9395880FFD
:100C100008F09927EE0F9795879508950E9415067D
:100C20006894B1110C94CC0608950E94B10688F026
:100C30009F5798F0B92F9927B751B0F0E1F0660FA0
:100C4000771F881F991F1AF0BA95C9F714C0B130E1
:100C500091F00E94CB06B1E008950C94CB06672F6B
:100C6000782F8827B85F39F0B93FCCF38695779510
:100C70006795B395D9F73EF49095809570956195F9
:100C80007F4F8F4F9F4F0895E89409C097FB3EF424
:100C900090958095709561957F4F8F4F9F4F9923C9
:100CA000A9F0F92F96E9BB279395F6958795779547
:100CB0006795B795F111F8CFFAF4BB0F11F460FF07
:100CC0001BC06F5F7F4F8F4F9F4F16C0882311F05F
:100CD00096E911C0772321F09EE8872F762F05C073
:100CE000662371F096E8862F70E060E02AF09A950E
:100CF000660F771F881FDAF7880F9695879597F903
:100D0000089597F99F6780E870E060E008959FEF8D
:100D100080EC089500240A94161617061806090692
:100D2000089500240A941216130614060506089561
:100D3000092E0394000C11F4882352F0BB0F40F4E9
:100D4000BF2B11F460FF04C06F5F7F4F8F4F9F4F29
:100D5000089557FD9058440F551F59F05F3F71F0AB
:100D60004795880F97FB991F61F09F3F79F0879512
:100D70000895121613061406551FF2CF4695F1DF9B
:100D800008C0161617061806991FF1CF869571052B
:100D9000610508940895E894BB2766277727CB015F
:100DA00097F908950E94E5060C9498060E948A0619
:100DB00038F00E94910620F0952311F00C948106E2
:100DC0000C94870611240C94CC060E94A90670F39B
:100DD000959FC1F3950F50E0551F629FF001729FE0
:100DE000BB27F00DB11D639FAA27F00DB11DAA1FEF
:100DF000649F6627B00DA11D661F829F2227B00D3C
:100E0000A11D621F739FB00DA11D621F839FA00DC6
:100E1000611D221F749F3327A00D611D231F849F16
:100E2000600D211D822F762F6A2F11249F5750406D
:100E30009AF0F1F088234AF0EE0FFF1FBB1F661FE8
:100E4000771F881F91505040A9F79E3F510580F0B1
:100E50000C9481060C94CC065F3FE4F3983ED4F3E7
:100E6000869577956795B795F795E7959F5FC1F755
:100E7000FE2B880F911D9695879597F90895F89404
:020E8000FFCFA2
:100E820000000000F00150017D013D02AE018C0125
:100E9200A00150726573737572653A20000D0A00E5
:080EA200476561723A2000006F
:00000001FF
