:100000000C9435000C945D000C945D000C945D0024
:100010000C945D000C945D000C945D000C945D00EC
:100020000C945D000C945D000C945D000C945D00DC
:100030000C945D000C945D000C945D000C945D00CC
:100040000C94EA010C945D000C945A020C94340256
:100050000C945D000C945D000C945D000C945D00AC
:100060000C945D000C945D00870311241FBECFEF3C
:10007000D8E0DEBFCDBF11E0A0E0B1E0E8E2FAE0F9
:1000800002C005900D92A631B107D9F721E0A6E193
:10009000B1E001C01D92AC3BB207E1F710E0C5E34F
:1000A000D0E004C02197FE010E94D603C433D107DB
:1000B000C9F70E948C020C9412050C940000883041
:1000C00028F08E3010F08E5001C08FEF8770806462
:1000D00080937C0080917A00806480937A00809184
:1000E0007A0086FDFCCF809178002091790090E025
:1000F000922B08953FB7F89480911B0190911C01B9
:10010000A0911D01B0911E0126B5A89B05C02F3FEF
:1001100019F00196A11DB11D3FBFBA2FA92F982F2D
:100120008827820F911DA11DB11DBC01CD0142E0A8
:10013000660F771F881F991F4A95D1F70895CF92B0
:10014000DF92EF92FF920F931F93CF93DF936C0197
:100150007A018B01C0E0D0E0CE15DF0581F0D80137
:100160006D918D01D601ED91FC910190F081E02D12
:10017000C6010995892B11F02196EECF7E01C701AA
:10018000DF91CF911F910F91FF90EF90DF90CF9073
:100190000895FC01918D828D981761F0828DDF01A9
:1001A000A80FB11D5D968C91928D9F5F9F73928F6A
:1001B00090E008958FEF9FEF0895FC01918D828D5F
:1001C000981731F0828DE80FF11D858D90E008952C
:1001D0008FEF9FEF0895FC01918D228D892F90E084
:1001E000805C9F4F821B91098F73992708958FE13F
:1001F00091E00E94EB0021E0892B09F420E0822F9E
:100200000895FC01848DDF01A80FB11DA35ABF4FD3
:100210002C91848D90E001968F739927848FA68905
:10022000B7892C93A089B1898C9180648C93938D2C
:10023000848D981306C00288F389E02D80818F7D1C
:1002400080830895EF92FF920F931F93CF93DF93D4
:10025000EC0181E0888F9B8D8C8D981305C0E88917
:10026000F989808185FD24C0F62E0B8D10E00F5F8B
:100270001F4F0F731127E02E8C8DE8120CC00FB6A4
:1002800007FCFACFE889F989808185FFF5CFCE0197
:100290000E940101F1CF8B8DFE01E80FF11DE35AA1
:1002A000FF4FF0820B8FEA89FB898081806207C053
:1002B000EE89FF896083E889F98980818064808381
:1002C00081E090E0DF91CF911F910F91FF90EF902F
:1002D0000895CF93DF93EC01888D8823C9F0EA89D4
:1002E000FB89808185FD05C0A889B9898C9186FD2F
:1002F0000FC00FB607FCF5CF808185FFF2CFA8892C
:10030000B9898C9185FFEDCFCE010E940101E7CF25
:10031000DF91CF91089580E090E0892B29F00E9431
:10032000F70081110C9400000895009769F0FC011A
:1003300001900020E9F73197AF01481B590BBC0130
:100340008FE191E00C949F0080E090E008958F92FF
:100350009F92AF92BF920F931F93CF93DF93CDB72E
:10036000DEB7A1970FB6F894DEBF0FBECDBF19A2BE
:10037000423008F44AE08E010F5D1F4F842E912C0D
:10038000A12CB12CA50194010E94B403E62FB90160
:10039000CA0101501109EA3014F4E05D01C0E95CC2
:1003A000D801EC93232B242B252B61F7C8010E9445
:1003B0009501A1960FB6F894DEBF0FBECDBFDF91B9
:1003C000CF911F910F91BF90AF909F908F90089504
:1003D0000E940D051F920F920FB60F9211242F93BA
:1003E0003F938F939F93AF93BF9380911701909109
:1003F0001801A0911901B0911A013091160123E062
:10040000230F2D3720F40196A11DB11D05C026E84C
:10041000230F0296A11DB11D209316018093170191
:1004200090931801A0931901B0931A0180911B01B8
:1004300090911C01A0911D01B0911E010196A11D7A
:10044000B11D80931B0190931C01A0931D01B093DB
:100450001E01BF91AF919F918F913F912F910F906E
:100460000FBE0F901F9018951F920F920FB60F920C
:1004700011242F933F934F935F936F937F938F93A9
:100480009F93AF93BF93EF93FF938FE191E00E940F
:100490000101FF91EF91BF91AF919F918F917F915A
:1004A0006F915F914F913F912F910F900FBE0F90E1
:1004B0001F9018951F920F920FB60F9211242F9331
:1004C0008F939F93EF93FF93E0912F01F091300171
:1004D0008081E0913501F091360182FD12C090815A
:1004E000809138018F5F8F7320913901821751F00D
:1004F000E0913801F0E0E15EFE4F958F8093380186
:1005000001C08081FF91EF919F918F912F910F906A
:100510000FBE0F901F901895789484B5826084BDAB
:1005200084B5816084BD85B5826085BD85B58160F7
:1005300085BD80916E00816080936E001092810075
:100540008091810082608093810080918100816030
:1005500080938100809180008160809380008091F1
:10056000B10084608093B1008091B000816080937D
:10057000B00080917A00846080937A0080917A0044
:10058000826080937A0080917A00816080937A0003
:1005900080917A00806880937A001092C100E09187
:1005A0002F01F091300182E08083E0912B01F091E6
:1005B0002C011082E0912D01F0912E018FEC8083AF
:1005C00010923701E0913301F091340186E080838D
:1005D000E0913101F0913201808180618083E0916E
:1005E0003101F0913201808188608083E091310196
:1005F000F0913201808180688083E0913101F09137
:10060000320180818F7D8083C9E7D3E08EE00E9434
:100610005F004C018FE00E945F00BE01681B790BF8
:10062000072E000C880B990B0E94140420E030E088
:1006300040E05FE30E9478040E94DC036B017C01D0
:10064000092C000CAA08BB08B7FE0EC06DE28FE1B2
:1006500091E00E94220166277727CB01681979096A
:100660008A099B094AE003C04AE0C501B4010E941F
:10067000A70180E191E00E94950183E191E00E9451
:1006800095010D2C000CEE08FF08F7FE0EC06DE280
:100690008FE191E00E94220166277727CB016C1938
:1006A0007D098E099F094AE003C04AE0C701B601EF
:1006B0000E94A70180E191E00E9495010E947A00CA
:1006C0006B017C0184E6882E912CA12CB12C0E9418
:1006D0007A00DC01CB018C199D09AE09BF09883E67
:1006E0009340A105B10598F321E0821A9108A10871
:1006F000B10888EEC80E83E0D81EE11CF11C8114FD
:100700009104A104B10419F70E948B017FCFEFE19E
:10071000F1E01382128288EE93E0A0E0B0E08483DF
:100720009583A683B78384E091E09183808385ECF1
:1007300090E09587848784EC90E09787868780ECAB
:1007400090E0918B808B81EC90E0938B828B82EC9C
:1007500090E0958B848B86EC90E0978B868B118E46
:10076000128E138E148E0895A1E21A2EAA1BBB1BA3
:10077000FD010DC0AA1FBB1FEE1FFF1FA217B3076D
:10078000E407F50720F0A21BB30BE40BF50B661F83
:10079000771F881F991F1A9469F760957095809547
:1007A00090959B01AC01BD01CF010895EE0FFF1F95
:1007B0000590F491E02D09940E94E3036894B1112F
:1007C0000C94720408950E94570488F09F5798F083
:1007D000B92F9927B751B0F0E1F0660F771F881F46
:1007E000991F1AF0BA95C9F714C0B13091F00E9460
:1007F0007104B1E008950C947104672F782F882755
:10080000B85F39F0B93FCCF3869577956795B39586
:10081000D9F73EF490958095709561957F4F8F4FF5
:100820009F4F0895E89409C097FB3EF490958095FA
:10083000709561957F4F8F4F9F4F9923A9F0F92FA6
:1008400096E9BB279395F695879577956795B79524
:10085000F111F8CFFAF4BB0F11F460FF1BC06F5F0A
:100860007F4F8F4F9F4F16C0882311F096E911C01C
:10087000772321F09EE8872F762F05C0662371F03D
:1008800096E8862F70E060E02AF09A95660F771F51
:10089000881FDAF7880F9695879597F9089557FD81
:1008A0009058440F551F59F05F3F71F04795880FDE
:1008B00097FB991F61F09F3F79F087950895121675
:1008C00013061406551FF2CF4695F1DF08C0161621
:1008D00017061806991FF1CF8695710561050894D2
:1008E0000895E894BB2766277727CB0197F90895E9
:1008F0000E948B040C94FC040E94EE0438F00E94C9
:10090000F50420F0952311F00C94E5040C94EB040D
:1009100011240C9472040E944F0470F3959FC1F34C
:10092000950F50E0551F629FF001729FBB27F00D9D
:10093000B11D639FAA27F00DB11DAA1F649F6627F2
:10094000B00DA11D661F829F2227B00DA11D621F41
:10095000739FB00DA11D621F839FA00D611D221FFB
:10096000749F3327A00D611D231F849F600D211DDF
:10097000822F762F6A2F11249F5750409AF0F1F062
:1009800088234AF0EE0FFF1FBB1F661F771F881FCB
:1009900091505040A9F79E3F510580F00C94E5041A
:1009A0000C9472045F3FE4F3983ED4F386957795F8
:1009B0006795B795F795E7959F5FC1F7FE2B880F71
:1009C000911D9695879597F9089597F99F6780E807
:1009D00070E060E008959FEF80EC089500240A9491
:1009E0001616170618060906089500240A9412160A
:1009F0001306140605060895092E0394000C11F43D
:100A0000882352F0BB0F40F4BF2B11F460FF04C0E9
:100A10006F5F7F4F8F4F9F4F089581E090E0F89474
:080A20000C941205F894FFCFBD
:100A28000000000022019F00EB00C900DD00690101
:060A38000D0A0009000098
:00000001FF
