:100000000C9435000C945D000C945D000C945D0024
:100010000C945D000C945D000C945D000C945D00EC
:100020000C945D000C945D000C945D000C945D00DC
:100030000C945D000C945D000C945D000C945D00CC
:100040000C94A9010C945D000C9419020C94F3011A
:100050000C945D000C945D000C945D000C945D00AC
:100060000C945D000C945D00250311241FBECFEF9E
:10007000D8E0DEBFCDBF11E0A0E0B1E0E2E0F7E004
:1000800002C005900D92A031B107D9F721E0A0E19F
:10009000B1E001C01D92A63BB207E1F710E0C5E355
:1000A000D0E004C02197FE010E947403C433D1073D
:1000B000C9F70E944B020C947F030C940000883017
:1000C00028F08E3010F08E5001C08FEF8770806462
:1000D00080937C0080917A00806480937A00809184
:1000E0007A0086FDFCCF809178002091790090E025
:1000F000922B08953FB7F8948091150190911601C5
:10010000A0911701B091180126B5A89B05C02F3FFB
:1001100019F00196A11DB11D3FBFBA2FA92F982F2D
:100120008827820F911DA11DB11DBC01CD0142E0A8
:10013000660F771F881F991F4A95D1F70895CF92B0
:10014000DF92EF92FF920F931F93CF93DF936C0197
:100150007A018B01C0E0D0E0CE15DF0581F0D80137
:100160006D918D01D601ED91FC910190F081E02D12
:10017000C6010995892B11F02196EECF7E01C701AA
:10018000DF91CF911F910F91FF90EF90DF90CF9073
:100190000895FC01918D828D981761F0828DDF01A9
:1001A000A80FB11D5D968C91928D9F5F9F73928F6A
:1001B00090E008958FEF9FEF0895FC01918D828D5F
:1001C000981731F0828DE80FF11D858D90E008952C
:1001D0008FEF9FEF0895FC01918D228D892F90E084
:1001E000805C9F4F821B91098F739927089589E145
:1001F00091E00E94EB0021E0892B09F420E0822F9E
:100200000895FC01848DDF01A80FB11DA35ABF4FD3
:100210002C91848D90E001968F739927848FA68905
:10022000B7892C93A089B1898C9180648C93938D2C
:10023000848D981306C00288F389E02D80818F7D1C
:1002400080830895EF92FF920F931F93CF93DF93D4
:10025000EC0181E0888F9B8D8C8D981305C0E88917
:10026000F989808185FD24C0F62E0B8D10E00F5F8B
:100270001F4F0F731127E02E8C8DE8120CC00FB6A4
:1002800007FCFACFE889F989808185FFF5CFCE0197
:100290000E940101F1CF8B8DFE01E80FF11DE35AA1
:1002A000FF4FF0820B8FEA89FB898081806207C053
:1002B000EE89FF896083E889F98980818064808381
:1002C00081E090E0DF91CF911F910F91FF90EF902F
:1002D0000895CF93DF93EC01888D8823C9F0EA89D4
:1002E000FB89808185FD05C0A889B9898C9186FD2F
:1002F0000FC00FB607FCF5CF808185FFF2CFA8892C
:10030000B9898C9185FFEDCFCE010E940101E7CF25
:10031000DF91CF91089580E090E0892B29F00E9431
:10032000F70081110C9400000895009769F0FC011A
:1003300001900020E9F73197AF01481B590BBC0130
:1003400089E191E00C949F0080E090E008950E9484
:100350007A031F920F920FB60F9211242F933F939F
:100360008F939F93AF93BF9380911101909112014E
:10037000A0911301B09114013091100123E0230FDB
:100380002D3720F40196A11DB11D05C026E8230FCD
:100390000296A11DB11D209310018093110190932D
:1003A0001201A0931301B093140180911501909153
:1003B0001601A0911701B09118010196A11DB11D60
:1003C0008093150190931601A0931701B093180123
:1003D000BF91AF919F918F913F912F910F900FBE41
:1003E0000F901F9018951F920F920FB60F92112425
:1003F0002F933F934F935F936F937F938F939F932D
:10040000AF93BF93EF93FF9389E191E00E940101C5
:10041000FF91EF91BF91AF919F918F917F916F91DC
:100420005F914F913F912F910F900FBE0F901F90B2
:1004300018951F920F920FB60F9211242F938F933E
:100440009F93EF93FF93E0912901F0912A0180811E
:10045000E0912F01F091300182FD12C090818091D6
:1004600032018F5F8F7320913301821751F0E09139
:100470003201F0E0E75EFE4F958F8093320101C0BC
:100480008081FF91EF919F918F912F910F900FBEDF
:100490000F901F901895CF93DF93CDB7DEB7A1973C
:1004A0000FB6F894DEBF0FBECDBF789484B58260DE
:1004B00084BD84B5816084BD85B5826085BD85B508
:1004C000816085BD80916E00816080936E00109286
:1004D0008100809181008260809381008091810001
:1004E0008160809381008091800081608093800092
:1004F0008091B10084608093B1008091B0008160F0
:100500008093B00080917A00846080937A0080911B
:100510007A00826080937A0080917A008160809373
:100520007A0080917A00806880937A001092C100EE
:10053000E0912901F0912A0182E08083E091250178
:10054000F09126011082E0912701F09128018FECB3
:10055000808310923101E0912D01F0912E0186E00F
:100560008083E0912B01F0912C0180818061808358
:10057000E0912B01F0912C01808188608083E091D3
:100580002B01F0912C01808180688083E0912B0108
:10059000F0912C0180818F7D80838EE00E945F002E
:1005A0008FE00E945F00C12CD12C76010E947A005E
:1005B0004B015C0184E6482E512C612C712C0E9469
:1005C0007A00DC01CB0188199909AA09BB09883E88
:1005D0009340A105B10598F321E0421A5108610842
:1005E000710888EE880E83E0981EA11CB11C41148E
:1005F00051046104710419F719A2A70196018E0133
:100600000F5D1F4FCA01B9012AE030E040E050E021
:100610000E945203605DF80162938F01211531053C
:100620004105510579F7CF010E949501FFEFCF1ADF
:10063000DF0AEF0AFF0A2FEFC216D104E104F1042A
:1006400009F0B4CF0E948B01A8CFE9E1F1E0138259
:10065000128288EE93E0A0E0B0E084839583A683C5
:10066000B78384E091E09183808385EC90E0958767
:10067000848784EC90E09787868780EC90E0918B6C
:10068000808B81EC90E0938B828B82EC90E0958B59
:10069000848B86EC90E0978B868B118E128E138E56
:1006A000148E0895A1E21A2EAA1BBB1BFD010DC0DA
:1006B000AA1FBB1FEE1FFF1FA217B307E407F50712
:1006C00020F0A21BB30BE40BF50B661F771F881FEE
:1006D000991F1A9469F760957095809590959B0184
:1006E000AC01BD01CF010895EE0FFF1F0590F491FD
:1006F000E02D099481E090E0F8940C947F03F89445
:02070000FFCF29
:100702000000000022019F00EB00C900DD0069012A
:00000001FF
